:020000040800F2
:100000000050002021020008270200082B020008EF
:1000100043020008470200085F02000800000000D9
:10002000000000000000000000000000770200084F
:100030007B020008000000007F0200081908000889
:100040009102000891020008910200089102000844
:100050009102000891020008910200089102000834
:100060009102000891020008910200089102000824
:100070009102000891020008910200089102000814
:100080009102000891020008910200089102000804
:1000900091020008910200089102000891020008F4
:1000A00091020008910200089102000891020008E4
:1000B00091020008910200089102000891020008D4
:1000C00091020008910200089102000891020008C4
:1000D00091020008910200089102000891020008B4
:1000E000910200089102000891020008000000003F
:1000F0000000000000000000000000000000000000
:1001000000000000000000005FF808F100B583B0B7
:1001100000F0DEF8304B314A1360314A1360314B46
:10012000314A32498B4204D21168196004330432D7
:10013000F7E72A4B1A682E4B9A4200D0FEE7284B6D
:100140001A682C4B9A42F9D1234B2B4A13602B4A45
:1001500013602B4B02E000221A600433294A9342B9
:10016000F9D3254B1B6813B9244B1B6803B1FEE779
:1001700000F0BAF8694601A800F0A2F8224C234B1F
:10018000E41AA4100025AC4214DC214C214BE41AE3
:10019000A4100025AC4213DC0099019800F0A0FBEC
:1001A00005461D4C1D4BE41AA410002C0EDC2846FD
:1001B00000F084F8154B53F8253098470135E2E7F5
:1001C000144B53F8253098470135E3E7013C134BB6
:1001D00053F824309847E8E7BABADECA0000002096
:1001E0002800002000000020B00900082C0000209A
:1001F00078563412325476982C000020700100207A
:100200002C00002074010020BC020008BC02000881
:10021000BC020008BC020008BC020008BC020008C6
:1002200008B5FFF773FF00BEFEE71EF0040F0CBF1A
:10023000EFF30880EFF309807146124A104700BEC1
:10024000FEE700BEFEE71EF0040F0CBFEFF30880D0
:10025000EFF3098071460C4A104700BEFEE71EF01E
:10026000040F0CBFEFF30880EFF309807146074AD3
:10027000104700BEFEE700BEFEE700BEFEE700BE80
:10028000FEE770473F0200085B02000873020008A7
:0402900000BEFEE7C7
:10029400B0090008000000202C000020B00900086C
:1002A40000000000000000002C0000207401002069
:0802B400000000000000000042
:1002BC00FEE7000001230360014B0B60704700BF99
:1002CC000400002008B500F073F8024A024B9A6053
:1002DC0008BD00BF0000000800ED00E008B500F00C
:1002EC008FF808BD82B00023019300932C4A136849
:1002FC0043F4803313602A4B1B6803F400330093E0
:10030C00019B01330193009B1BB9019BB3F5A06FBB
:10031C00F1D1234B1B6813F4003F06D0012300934B
:10032C00009B012B04D002B0704700230093F7E729
:10033C001C4B1A6842F010021A601A6822F0030271
:10034C001A601A6842F002021A60A3F580535A68C8
:10035C005A605A685A605A6842F480625A605A6805
:10036C0022F47C125A605A6842F4E8125A601A68F5
:10037C0042F080721A600A4B1B6813F0007FFAD0AF
:10038C00074B5A6822F003025A605A6842F0020284
:10039C005A60034B5B6803F00C03082BF9D1C2E7DE
:1003AC00001002400020024008B5FFF79BFF08BD7B
:1003BC0008B5104B1A6842F001021A6059680E4ACF
:1003CC000A405A601A6822F0847222F480321A6051
:1003DC001A6822F480221A605A6822F4FE025A60CB
:1003EC004FF41F029A60FFF7DFFF044B4FF00062DF
:1003FC009A6008BD001002400000FFF800ED00E01C
:10040C001F4B5B6803F00C03042B15D0082B17D083
:10041C001BB11C4B1C4A1A6002E01A4B1A4A1A6098
:10042C00174B5B68C3F30313184AD35CDAB2154954
:10043C000B68D3400B607047124B134A1A60EFE7FE
:10044C000F4A53685268C3F38343023312F4803F5C
:10045C000AD00B4A526812F4003F0BD00C4A02FB34
:10046C0003F3084A1360DBE7094A02FB03F3054A6E
:10047C001360D5E7044A02FB03F3024A1360CFE78B
:10048C00001002401C00002000127A000C0000201A
:10049C0000093D0010B4012824D018B1022841D025
:1004AC0010BC7047072910D90F29F9D8A1F10804FD
:1004BC00E4B2A4000F23A3402A48016821EA0303F5
:1004CC0002FA04F119430160EAE789000F2303FAE9
:1004DC0001F0254C236823EA000302FA01F11943C9
:1004EC002160DDE7072910D90F29D9D8A1F108001F
:1004FC00C0B280000F2383401C4C216821EA030307
:10050C0002FA00F119432160CAE789000F2303FAAC
:10051C0001F0174C236823EA000302FA01F1194396
:10052C002160BDE7072910D90F29B9D8A1F108031B
:10053C00DBB29B000F2098400E4C216821EA000092
:10054C0002FA03F101432160AAE789000F2303FAA1
:10055C0001F0094C236823EA000302FA01F1194364
:10056C0021609DE70408014000080140040C014093
:10057C00000C01400410014000100140154BDB68D9
:10058C0013F0010FFAD1134B1B6913F0800F05D038
:10059C00104B114A5A6002F188325A600D4B1A699D
:1005AC0042F002021A61800200F1006058611A697F
:1005BC0042F040021A61074BDB6813F0010FFAD1CD
:1005CC00044BDA6842F02002DA601A6922F0020267
:1005DC001A617047002002402301674510B50424BE
:1005EC0004E02046FFF7CAFF0134E4B23F2CF8D9EF
:1005FC0010BD000030B482B0184BDB6813F0010F53
:10060C00FAD1164B1B6913F0800F05D0134B144C09
:10061C005C6004F188345C6000241AE00F4D2B6997
:10062C0043F001032B6131F81430ADF8063020F89B
:10063C00023B0A4BDB6813F0010FFAD1074BDD6864
:10064C0045F02005DD601D6925F001051D610134B3
:10065C00E4B29442E2D302B030BC704700200240B6
:10066C00230167450246A0F13003D8B2092802D90C
:10067C00A2F13700C0B270472DE9F84F064640781A
:10068C00FFF7F0FF0746B078FFF7ECFF40EA0717DB
:10069C00FFB2F078FFF7E6FF04463079FFF7E2FF90
:1006AC0005467079FFF7DEFF8046B079FFF7DAFF79
:1006BC001F4A538840EA034040EA081848EA0528D4
:1006CC0048EA0438C2F80080002527E04FEA850B81
:1006DC000BF10903F05CFFF7C5FF81460BF10A0330
:1006EC00F05CFFF7BFFF82460BF10B03F05CFFF7EA
:1006FC00B9FF04460BF10C0B16F80B00FFF7B2FF19
:10070C00240344EA002000B240EA0A0000B240EAA6
:10071C000910084B23F815000135EDB27A08AA42EE
:10072C00D4D804494046FFF765FFBDE8F88F00BFF9
:10073C00200000203400002008B5037A302B00D0B4
:10074C0008BDFFF799FFFBE7034B81221A600433C6
:10075C0000221A60704700BF001002401F291CD8ED
:10076C0001280BD010B1022810D07047012303FAD6
:10077C0001F10A4A13680B4313607047012303FA13
:10078C0001F1074A13680B4313607047012303FA06
:10079C0001F1044A13680B431360704714100240B4
:1007AC001C10024018100240014B00221A607047C6
:1007BC0010E000E00A4B1A6822F001021A600022D5
:1007CC005A609A605860186840F00100186005483B
:1007DC00016005490A701A6842F002021A607047FB
:1007EC0010E000E0FC00002000010020064B1A681D
:1007FC0022F002021A601A6842F001021A6000220A
:10080C005A609A60704700BF10E000E008B50A4BD0
:10081C001B785BB9094B1A6822F002021A601A683D
:10082C0042F001021A6000225A609A60044B1B6865
:10083C009847024B1B6808BD0001002010E000E047
:10084C00FC000020094B40F241329A60DA6842F019
:10085C000802DA60DA6842F00402DA60DA6842F41C
:10086C000052DA6000221A60704700BF0038014065
:10087C00002208E006494B60054B1B6813F0400F43
:10088C00FAD00132D2B2835C002BF3D1704700BF97
:10089C0000380140054B1B6813F0200F04D0034BAC
:1008AC005B680370012070470020704700380140DE
:1008BC0008B5044B044A1A60044B1B68044A1360C5
:1008CC00984708BD08ED00E000100008041000086F
:1008DC000401002008B5FFF737FF0E210220FFF7B7
:1008EC003DFF02210846FFF739FF04210020FFF7E6
:1008FC0035FF0A2209210020FFF7CCFD04220A2132
:10090C000020FFF7C7FDFFF79DFFFFF74DFF1D49C7
:10091C001D48FFF74FFF1D4B1B78002B30D11C4B94
:10092C001B781C481844FFF7B5FF0128F3D1FFF7DB
:10093C005DFF194B1B78DBB2012B11D0144B1B78CC
:10094C00DBB2144AD35CDBB20A2B0FD0104A1378FB
:10095C000133DBB213700B490B48FFF72BFFDAE7BF
:10096C00FFF73CFE0C4B00221A70E7E71046FFF72E
:10097C00E3FE0A48FFF77CFF054B00221A70EAE7FA
:10098C0008BD00BFBD080008C0E1E400090100205B
:10099C00080100200C01002024000020AC090008F4
:0409AC006F6B00006D
:1009B00078563412300000200000000000000000D3
:1009C00000000000010203040607080900A24A040F
:0C09D0000000000801FFFFFF3254769881
:040000050800010DE1
:00000001FF
