:020000040800F2
:100000000050002021020008270200082B020008EF
:100010009D020008A1020008E9020008000000009B
:100020000000000000000000000000003103000894
:10003000350300080000000039030008010A000829
:100040004D0300084D0300084D0300084D03000850
:100050004D0300084D0300084D0300084D03000840
:100060004D0300084D0300084D0300084D03000830
:100070004D0300084D0300084D0300084D03000820
:100080004D0300084D0300084D0300084D03000810
:100090004D0300084D0300084D0300084D03000800
:1000A0004D0300084D0300084D0300084D030008F0
:1000B0004D0300084D0300084D0300084D030008E0
:1000C0004D0300084D0300084D030008B109000866
:1000D0004D0300084D0300084D0300084D030008C0
:1000E0004D0300084D0300084D0300080000000008
:1000F0000000000000000000000000000000000000
:1001000000000000000000005FF808F100B583B0B7
:1001100000F0AAF9304B314A1360314A1360314B79
:10012000314A32498B4204D21168196004330432D7
:10013000F7E72A4B1A682E4B9A4200D0FEE7284B6D
:100140001A682C4B9A42F9D1234B2B4A13602B4A45
:1001500013602B4B02E000221A600433294A9342B9
:10016000F9D3254B1B6813B9244B1B6803B1FEE779
:1001700000F086F9694601A800F022F9224C234BD1
:10018000E41AA4100025AC4214DC214C214BE41AE3
:10019000A4100025AC4213DC0099019800F0DCFCAF
:1001A00005461D4C1D4BE41AA410002C0EDC2846FD
:1001B00000F0E2F8154B53F8253098470135E2E797
:1001C000144B53F8253098470135E3E7013C134BB6
:1001D00053F824309847E8E7BABADECA0000002096
:1001E00084000020000000208CB50008880000205A
:1001F0007856341232547698880000202C01002062
:1002000088000020300100207803000878030008EF
:1002100078030008780300087803000878030008D2
:1002200008B5FFF773FF00BEFEE71EF0040F0CBF1A
:10023000EFF30880EFF309807146414A10472DE93A
:10024000F04182B004468846124B5E6B9F6B9D6AFC
:100250001B6B13F0020F03D00E4BDB6A002B0CDB81
:100260000D4800F0B5F8CDF800803B4632462946EF
:10027000204600F009F900BEFEE74BF6AB6100F046
:100280007DF90028ECD0034B4FF00042DA6202B057
:10029000BDE8F08100ED00E02C15000800BEFEE78F
:1002A0001EF0040F0CBFEFF30880EFF309807146D6
:1002B000244A10472DE9F04182B004468846084B95
:1002C0005E6B9F6B9D6A074800F082F8CDF8008056
:1002D0003B4632462946204600F0D6F800BEFEE7EF
:1002E00000ED00E03C1500081EF0040F0CBFEFF31A
:1002F0000880EFF309807146134A10472DE9F04159
:1003000082B004468846084B5E6B9F6B9D6A074827
:1003100000F05EF8CDF800803B4632462946204684
:1003200000F0B2F800BEFEE700ED00E0481500085E
:1003300000BEFEE700BEFEE700BEFEE7704700001D
:100340003F020008B5020008FD02000800BEFEE7FB
:100350008CB5000800000020880000208CB5000843
:100360000000000000000000880000203001002094
:08037000000000000000000085
:10037800FEE7000008B503460C4A12685AB10B4A5A
:100388001068033323F003030344094A934206D851
:10039800064A136008BD054A06491160EFE700F0F8
:1003A80003FC0C2303604FF0FF30F3E78C000020C0
:1003B800004C00203001002001230360014B0B603A
:1003C800704700BF040000200FB400B583B004AB31
:1003D80053F8042B01938021064800F017FC0028ED
:1003E80003DD0146034800F037F803B05DF804EB7D
:1003F80004B07047940000202DE9F04385B004460E
:100408000F4643560BB10E461EE0042528462146EA
:10041800ABBE0446384605B0BDE8F08314F9011BAD
:1004280004AA1A4402F8101C0133AB42F6D304AAFA
:100438001344002203F8102C4FF00408E946404604
:100448004946ABBE8046761B002EE3D03546102EBB
:1004580028BF10250023E8E708B5FFF7CDFF08BD42
:1004680008B500F0FDF8024A024B9A6008BD00BFCB
:100478000000000800ED00E008B500F019F908BD1B
:10048800F8B504460D4617461E462748FFF79CFF59
:1004980021682648FFF798FF61682548FFF794FF11
:1004A800A1682448FFF790FFE1682348FFF78CFF15
:1004B80021692248FFF788FF61692148FFF784FF17
:1004C800A1692048FFF780FFE1691F48FFF77CFF1B
:1004D8001E48FFF779FF29461D48FFF775FF1D4C99
:1004E800E16A1D48FFF770FF216B1C48FFF76CFF9E
:1004F800E16B1B48FFF768FF15F0800F0AD115F470
:10050800004F0CD11748FFF75FFF06991648FFF711
:100518005BFFF8BD39461548FFF756FFEFE7314650
:100528001348FFF751FFEDE71014000820140008E6
:100538003014000840140008501400086014000823
:10054800701400088014000890140008A014000813
:10055800AC14000800ED00E0BC140008CC1400083E
:10056800DC1400080C15000814150008EC14000829
:10057800FC14000883691A888A4201D00020704759
:100588000268033A012A03D80233836101207047C5
:100598000020704782B00023019300932C4A13680F
:1005A80043F4803313602A4B1B6803F40033009331
:1005B800019B01330193009B1BB9019BB3F5A06F0D
:1005C800F1D1234B1B6813F4003F06D0012300939D
:1005D800009B012B04D002B0704700230093F7E77B
:1005E8001C4B1A6842F010021A601A6822F00302C3
:1005F8001A601A6842F002021A60A3F580535A681A
:100608005A605A685A605A6842F480625A605A6856
:1006180022F47C125A605A6842F4E8125A601A6846
:1006280042F080721A600A4B1B6813F0007FFAD000
:10063800074B5A6822F003025A605A6842F00202D5
:100648005A60034B5B6803F00C03082BF9D1C2E72F
:10065800001002400020024008B5FFF79BFF08BDCC
:1006680008B5104B1A6842F001021A6059680E4A20
:100678000A405A601A6822F0847222F480321A60A2
:100688001A6822F480221A605A6822F4FE025A601C
:100698004FF41F029A60FFF7DFFF044B4FF0006230
:1006A8009A6008BD001002400000FFF800ED00E06D
:1006B8001F4B5B6803F00C03042B15D0082B17D0D5
:1006C8001BB11C4B1C4A1A6002E01A4B1A4A1A60EA
:1006D800174B5B68C3F30313184AD35CDAB21549A6
:1006E8000B68D3400B607047124B134A1A60EFE750
:1006F8000F4A53685268C3F38343023312F4803FAE
:100708000AD00B4A526812F4003F0BD00C4A02FB85
:1007180003F3084A1360DBE7094A02FB03F3054ABF
:100728001360D5E7044A02FB03F3024A1360CFE7DC
:10073800001002401C00002000127A000C0000206B
:1007480000093D0010B4012824D018B1022841D076
:1007580010BC7047072910D90F29F9D8A1F108044E
:10076800E4B2A4000F23A3402A48016821EA030346
:1007780002FA04F119430160EAE789000F2303FA3A
:1007880001F0254C236823EA000302FA01F119431A
:100798002160DDE7072910D90F29D9D8A1F1080070
:1007A800C0B280000F2383401C4C216821EA030358
:1007B80002FA00F119432160CAE789000F2303FAFE
:1007C80001F0174C236823EA000302FA01F11943E8
:1007D8002160BDE7072910D90F29B9D8A1F108036D
:1007E800DBB29B000F2098400E4C216821EA0000E4
:1007F80002FA03F101432160AAE789000F2303FAF3
:1008080001F0094C236823EA000302FA01F11943B5
:1008180021609DE70408014000080140040C0140E4
:10082800000C01400410014000100140012818D0BC
:1008380010B1022829D07047012A0AD0002A2FD1E6
:10084800012303FA01F11B4A136823EA0103136029
:100858007047012303FA01F1164A13680B4313602A
:100868007047012A09D0DAB9012303FA01F1124AC3
:10087800136823EA010313607047012303FA01F1A7
:100888000D4A13680B4313607047012A09D03AB91F
:10089800012303FA01F1094A136823EA01031360EB
:1008A8007047012303FA01F1044A13680B431360EC
:1008B800704700BF0C0801400C0C01400C100140AF
:1008C800034B4FF480321A60043301221A607047D8
:1008D800001002401F281CD801280BD010B1022894
:1008E80010D070470B480368012202FA01F119433E
:1008F8000160704708480368012202FA01F11943B0
:100908000160704705480368012202FA01F11943A2
:1009180001607047141002401C1002401810024079
:10092800134B1A6842F001021A601A6842F0020278
:100938001A601A6842F004021A601A6822F08002EB
:100948001A601A6822F400721A601A6822F40062A7
:100958001A6000225A601A6822F038021204120C37
:100968001A601A681A601A6842F040021A607047E2
:100978000030014038B505460C46002211461046A5
:10098800FFF754FF074BDD60064B9B6813F0800FA1
:10099800FAD1044BDB682370012200210846FFF7D7
:1009A80045FF38BD0030014008B5034BD868034BFC
:1009B8001B68C0B2984708BD0030014028010020DC
:1009C800014B00221A60704710E000E0094B5860A4
:1009D8001A6842F001021A60064B1B6813F4803F44
:1009E800FAD0044B1A6842F001021A6000225A60D9
:1009F8009A60704710E000E008B50A4B1B785BB9B5
:100A0800094B1A6822F002021A601A6842F00102C1
:100A18001A6000225A609A60044B1B689847024B80
:100A28001B6808BD1801002010E000E01401002038
:100A380010B582B00446012202210020FFF7F6FE1D
:100A48000DF107012046FFF795FF02B010BD10B564
:100A580082B00446002202211046FFF7E7FE0DF19E
:100A680007012046FFF786FF02B010BD08B5012236
:100A780011460020FFF7DAFE6420FFF7A7FF0022E7
:100A880001211046FFF7D2FE0120FFF79FFF012248
:100A980011460020FFF7CAFE6420FFF797FF0022E7
:100AA80001211046FFF7C2FE6420FFF78FFF0122E5
:100AB80011460020FFF7BAFE0948FFF787FF11200B
:100AC800FFF7C5FF0748FFF781FF3A20FFF7BFFF91
:100AD8000520FFF7ADFF2920FFF7B9FF08BD00BFCC
:100AE800C0D40100F049020038B505462A20FFF7B6
:100AF800AEFF0020FFF79CFF0020FFF799FF0020C2
:100B0800FFF796FF7F20FFF793FF2B20FFF79FFF4C
:100B18000020FFF78DFF0020FFF78AFF0020FFF776
:100B280087FF9F20FFF784FF2C20FFF790FF00240A
:100B38000AE035F81400000AFFF77AFF15F81400E8
:100B4800FFF776FF0134A4B2B4F5A04FF1D338BD56
:100B580008B5FFF7B5FE02210846FFF7BBFE0C21DA
:100B68000220FFF7B7FE022201210020FFF7EAFD6D
:100B7800022211460020FFF7E5FD09220521002089
:100B8800FFF7E0FD092207210020FFF7DBFDFFF753
:100B980017FFFFF7C5FEFFF769FF0248FFF7A4FF3D
:100BA800FEE700BF58150008014B1868704700BFE2
:100BB8002000002030B5141E05469BB0184605DA03
:100BC8008B234FF0FF302B601BB030BD4FF4027306
:100BD800ADF80C300CBF234604F1FF3302930593A4
:100BE8004FF6FF7300910491ADF80E3002461E9B3C
:100BF8006946284600F072F8431CBCBF8B232B6063
:100C0800002CE1D00022009B1A70DDE707B50093A5
:100C180013460A46014603480068FFF7CBFF03B0B6
:100C28005DF804FB200000202DE9F0478E6882461D
:100C38009E420C469046994637D88A8912F4906F9E
:100C480031D00223256809696F1A656905EB4505E6
:100C580095FBF3F509F101033B449D4238BF1D465E
:100C6800530530D5294600F035FB064650B90C230C
:100C78004FF0FF30CAF80030A38943F04003A38146
:100C8800BDE8F0873A46216900F0B4FAA38923F455
:100C9800906343F08003A38126613E4426604E465C
:100CA8006561ED1BA5604E4500D94E46324641466A
:100CB800206800F0AAFAA36800209B1BA3602368A1
:100CC8001E442660DCE72A4600F05EFB0646002844
:100CD800E2D12169504600F0B1FAC8E72DE9F04F9A
:100CE8009DB003938B8980461D060C4616460FD58A
:100CF8000B696BB9402100F0EDFA2060206128B93A
:100D08000C23C8F800304FF0FF30C7E04023636180
:100D18000023099320238DF8293030234FF0010B4D
:100D28008DF82A3037463D4615F8013B0BB1252B87
:100D38003ED1B7EB060A0BD0534632462146404611
:100D4800FFF772FF013000F0A480099B5344099318
:100D58003B78002B00F09D8000234FF0FF32CDE957
:100D68000523049307938DF853301A932F460522D1
:100D780017F8011B4F4800F02FFA049BD0B9D90689
:100D880044BF20228DF853201A0744BF2B228DF828
:100D980053202A782A2A15D02F4600200A25079A98
:100DA800394611F8013B303B092B4DD9B8B10FE05A
:100DB8002F46B8E73F4A3D46801A0BFA00F0184321
:100DC8000490D3E7039A111D12680391002A01DBEE
:100DD800079204E0524243F00203079204933B78DF
:100DE8002E2B0CD17B782A2B33D1039B02371A1D6B
:100DF8001B680392002BB8BF4FF0FF3305932E4DAD
:100E080003223978284600F0E7F938B14023401B1F
:100E180003FA00F0049B0137034304933978062250
:100E280026487E1C8DF8281000F0D6F9002838D006
:100E3800234B13BB039B073323F0070308330393A8
:100E4800099B4B4409936DE705FB023201200F46CD
:100E5800A6E700230A25194601370593384610F8F6
:100E6800012B303A092A03D9002BC8D00591C6E7CF
:100E780005FB012101230746F0E703AB0093224657
:100E8800104B04A94046AFF30080B0F1FF3F814604
:100E9800D6D1A3895B063FF536AF09981DB0BDE8EA
:100EA800F08F03AB00932246064B04A9404600F09E
:100EB80081F8EAE758B500085EB5000862B5000891
:100EC80000000000310C00082DE9F04791461F464C
:100ED8008A680B6906469342B8BF1346C9F80030C2
:100EE80091F843200C46DDF8208012B10133C9F88F
:100EF80000302368990642BFD9F800300233C9F898
:100F08000030256815F0060507D104F1190AE368D1
:100F1800D9F800209B1AAB4229DC94F843302268A8
:100F2800003318BF012392062ED404F14302394638
:100F38003046C047013021D02368E56803F0060336
:100F4800042B18BF0025D9F800204FF0000908BF6E
:100F5800AD1AA368226908BF25EAE5759342C4BFA4
:100F68009B1AED181A344D451AD1002008E00123C8
:100F7800524639463046C047013003D14FF0FF3062
:100F8800BDE8F0870135C2E73020E11881F8430059
:100F98005A1C94F845102244023382F84310C4E7DF
:100FA8000123224639463046C0470130E6D009F1D0
:100FB8000109D8E72DE9F04301F1430C0C46097EFD
:100FC80085B06E291746064698460C9A00F0B380FD
:100FD80022D8632936D00AD8002900F0B9805829C8
:100FE80000F0838004F1420584F8421032E064295D
:100FF80001D06929F6D120681368050603F10401B8
:101008002AD51B681160002B03DA2D225B4284F875
:1010180043206F480A2239E0732900F09D8008D8E0
:101028006F2920D07029DDD1236843F02003236085
:1010380003E0752917D07829D4D17823654884F836
:10104800453055E0136804F14205191D1B6811600D
:1010580084F8423001238CE01B6810F0400F1160C7
:1010680018BF1BB2CFE713682568181D1060280643
:1010780001D51B6802E06806FBD51B886F2914BFE1
:101088000A2208225248002184F843106568002D7E
:10109800A560C0F29580216821F004012160002B31
:1010A8003DD1002D40F08E806546082A0BD123687B
:1010B800DB0708D5236962689A42DEBF302305F84A
:1010C800013C05F1FF35ACEB05032361CDF8008049
:1010D8003B4603AA21463046FFF7F6FE01304DD1C4
:1010E8004FF0FF3005B0BDE8F083394884F845106B
:1010F800136821681D1D1B6815600A060BD5CA07F1
:1011080044BF41F0200121601BB9226822F020026F
:1011180022601022B7E74D0648BF9BB2EFE765464D
:10112800B3FBF2F102FB1133C35C05F8013D0B463A
:101138000029F5D1B9E713682568181D61691060A1
:1011480028061B6801D5196002E06A06FBD51980DC
:10115800002365462361B9E71368191D11601D68EE
:1011680062680021284600F037F808B1401B60602B
:1011780063682361002384F84330A7E723692A467C
:1011880039463046C0470130AAD023689B0713D49C
:10119800E068039B9842B8BF1846A3E701234A4674
:1011A80039463046C04701309AD00135E368039A82
:1011B8009B1AAB42F2DCEBE7002504F11909F5E7CD
:1011C800002BACD1037804F1420584F842306CE777
:1011D80069B500087AB5000810B5C9B20244904252
:1011E800034601D1002303E01C7801308C42F6D17C
:1011F800184610BD10B5431E0A44914200D110BDD7
:1012080011F8014B03F8014FF7E7884210B501EBDD
:10121800020307D8421E99420AD011F8014B02F87E
:10122800014FF8E78342F5D98118D21AD34200D189
:1012380010BD13F8014D01F8014DF7E738B5054623
:10124800002943D051F8043C0C1F002BB8BFE41808
:1012580000F0D0F81E4A1368104633B96360146072
:101268002846BDE8384000F0C6B8A3420BD921682B
:101278006218934201BF1A685B6852182260636063
:101288000460EDE713465A680AB1A242FAD9196810
:101298005818A0420BD1206801445818824219609E
:1012A800DED110685268014419605A60D8E702D943
:1012B8000C232B60D4E7206821188A4201BF1168EB
:1012C80052680918216062605C60C9E738BD00BFD8
:1012D8001C01002070B5CD1C25F0030508350C2D28
:1012E80038BF0C25002D064601DBA94203D90C2383
:1012F8003360002070BD00F07DF8214A1468214653
:1013080091B9204C23681BB9304600F063F820607F
:101318002946304600F05EF8431C24D10C233046A1
:10132800336000F068F8E4E70B685B1B18D40B2BFC
:101338000FD90B60CC18CD50304600F05CF804F1A2
:101348000B00231D20F00700C31AD3D05A42E250E5
:10135800D0E74B688C4216BF636013600C46EBE71E
:101368000C464968CCE7C41C24F00304A04205D00D
:10137800211A304600F02EF80130CFD02560DBE787
:101388001C01002020010020F8B5074614460E462F
:1013980021B9BDE8F8401146FFF79CBF22B9FFF715
:1013A8004DFF25462846F8BD00F026F8A0420FD28A
:1013B80021463846FFF78EFF05460028F2D0314611
:1013C8002246FFF717FF31463846FFF737FFE9E7B0
:1013D8003546E7E738B50023054C0546084623603F
:1013E800FEF7C8FF431C02D1236803B12B6038BD48
:1013F800240100207047704751F8043C181F002B47
:10140800BCBF0B58C0187047537461636B20667279
:10141800616D653A0A000000205230203D202025E9
:101428003038580A00000000205231203D20202585
:101438003038580A00000000205232203D20202574
:101448003038580A00000000205233203D20202563
:101458003038580A0000000020523132203D202543
:101468003038580A00000000204C52203D2020252A
:101478003038580A00000000205043203D20202525
:101488003038580A0000000020505352203D2025D3
:101498003038580A000000004653522F4641523A4D
:1014A8000A0000002043465352203D2020253038B2
:1014B800580A00002048465352203D202025303845
:1014C800580A00002044465352203D202025303839
:1014D800580A00002041465352203D20202530382C
:1014E800580A0000204D4D464152203D20253038F5
:1014F800580A00002042464152203D20202530381D
:10150800580A00004D6973630A000000204C522FEE
:101518004558435F52455455524E3D202530385862
:101528000A0000005B486172644661756C745D0A6C
:10153800000000005B4275734661756C745D0A00BB
:101548005B55736167654661756C745D0A000000E0
:10155800656A656A035AA249A251C251C351245A05
:101568000452C34962394239A4414752885A6752E2
:10157800B28C99C699C6DACEDACE99C6BAC6BAC6B8
:10158800BAC6BAC6BAC6BAC69AC69AC69AC69ACECB
:10159800BACE9ACE9AC6BAC6BAC6BAC6DABEDABE43
:1015A800DABEDABEDAC6DAC6DAC6BAC6BAC6BAC6A3
:1015B800BBC6BBC6BBC6BBC6BBC6BAC6BAC6BAC61E
:1015C800BAC6BACEDACEDBCEDBCEDCC6DCC6DDC62A
:1015D800DACEDACEDACEDACEDACEDACEFACEFACE83
:1015E800FACEDACED9CED9CEB9C6B9CEB9CEB9CE21
:1015F800DBC6DBC6DBCEDBCEDBCEDBCEDBCEDBCEAB
:10160800DBCEDBCEDBCEFBCEFBCEFBCEDBCEDBCE2A
:10161800DBCEDBCEBACEBACEBACEBACEBACE9AC668
:10162800BACEBACEBACE9ACE9ACE9ACE9ACEBACEF2
:10163800BACEBACE9AC69ACE9ACE9AC67AC679C683
:101648007AC679C679C659C659C659C659C659C639
:101658004562C25141416141E351C351C3510452F2
:10166800245AE4510552A762885A84392229A43998
:101678000B53B5ADDAD658BEBAC6BAC6DAC6BAC6BC
:10168800BAC6BAC6BAC6BAC6BAC6BAC6BACEBACE42
:10169800BAC6BAC6BAC6BAC6BAC6BAC6BAC6BAC642
:1016A800BAC6DAC6DAC6DAC6BAC6BAC6BAC6BAC6D2
:1016B800BACEBAC6BAC6BAC6BAC6BAC6BAC6BAC61A
:1016C800DAC6DACEDACEDACEDBCEDBC6DBC6BCC60D
:1016D800DBCEDBCEDACEDACEDACEDACEFACEFACE80
:1016E800DACEDAC6DAC6DAC6DAC6DAC6B9C6B9C62C
:1016F800BAC6BAC6DBCEDBCEDBCEDBCEDBCEDBCEEC
:10170800DBCEDBCEDBCEDBCEBACEDACEDBCEDBCEAB
:10171800BACEBACEBACEBACEBACEBACEBACEBACE81
:10172800BACEBACEBACEBACEBACE9ACE9ACE9ACED1
:10173800BACEBACEBACE9ACE9ACE9ACE9AC69AC611
:1017480079C679C679C659C659C659C659C659C639
:10175800C34982496141614161418249E35104526F
:10176800A762A7628762054A6339C120433168527C
:10177800E6316C63F6B5DAD6DACE79BE9AC6DAC641
:10178800BAC6BAC6BAC6BAC6BAC6BAC6BAC6BACE49
:10179800DABEDABEBAC6BAC6BAC6BACEBACEBACEF9
:1017A800BBCEBACEBACEBAC6BAC6DAC6DABEDABEC8
:1017B800B9CEBACEBACEBAC6BAC6BAC6BAC6DAC6EA
:1017C800DAC6DACEDACEBACEBACEBACEBBCEBACE78
:1017D800DBCEDBCEDBCEDBCEDBCEDBCEDBC6DBC6C9
:1017E800DBC6DAC6DAC6DAC6DAC6DAC6BAC6BAC630
:1017F800BAC6BAC6BAC6BACEBACEBACEBACEBACEB9
:10180800BACEBACEBACEBACEBAC6BAC6BACEBAC6A8
:10181800BACEBAC6BAC6BAC6BAC6BACEBACE9AC6C8
:10182800BACEBACEBACEBACEBACEBACEBACEBACE70
:10183800BACEBACEBACEBACE9ACE9ACE9AC69AC6F0
:1018480079C679C679C679C679C659C659C659C6F8
:1018580083414239423962418241E451A762E86AD0
:1018680025528339623922290129E541474A22292B
:101878004421A6318D6BF6B5DACEDACE99C6DBCE29
:10188800BAC6BAC6BAC6BAC6BAC6BAC6BAC6BAC650
:10189800DABEDABEBABEBAC6BAC6BACE9ACE9ACE40
:1018A800BBCE9ACEBACEBACEBAC6DAC6DAC6BAC6EF
:1018B800B9CEB9CEBACEDAC6DAC6DAC6DBC6DAC669
:1018C800DAC6DACEDACEDACEDACEDACEDACEDACED8
:1018D800DBCEDBCEDBCEDBCEDBCEFBC6DBC6DBC6B0
:1018E800DBC6DBC6DBC6DBC6DBC6DBC6BBC6BBC628
:1018F800BAC6BAC6BACEBACEDACEBACEBACEBACE90
:10190800BACEBACEBACEBACEBACEBACEBACEDACE6F
:10191800BAC6BAC6BAC6BAC6BACEBACE9AC69AC6EF
:10192800BACEBACEBACEBACEBACEBACEBACEBACE6F
:10193800BACEBACEBACEBACE9AC67AC67AC67AC65F
:1019480079C679C679C679C679C679C659C659C6D7
:101958006341633983418341C44987622652013117
:10196800012983394231E12063318431E220A11811
:10197800E2180742C631AA5234A5BACE79C6BACE01
:10198800BAC6BAC6BAC6BAC6BAC6BAC6BAC6BAC64F
:10199800DAC6BAC6BAC6BAC6BAC6BAC6BACEBACE0F
:1019A800BBCEBBCEBBCEBBCEBBCEBBCEBACEBAC6F1
:1019B800B8CEB9CEDAC6DAC6DAC6DBC6DBC6DBC64F
:1019C800DBC6DAC6DACEDACEDACEDACEDAD6DAD6CE
:1019D800DCCEDCCEDCCEDCCEDBCEFBC6FBC6DBC68B
:1019E800DBC6DBC6BBC6BBC6BBC6BBC6DBC6DBC667
:1019F800BAC6BAC6DACEDACEDACEBACEBACEBACE4F
:101A0800BACEBACEBACEBACEBACEBACEBACEBACE8E
:101A1800BAC6BAC6BAC6BACEBACEBACE9AC69AC6E6
:101A2800BACEBACEBACEBACEBACE9ACE9ACE9ACECE
:101A38009AC6BACEBACEBACE9AC69AC679C67AC667
:101A48007AC67AC67AC679C679C679C679C659C6B3
:101A58008441C441E549E5492652A76246522131ED
:101A6800054A423122292229E120E2200229A1182F
:101A780003210321A5318531C639EF7B9ACEBACE31
:101A8800BACEBAC6BAC6BBC6BAC6BBC6BBC6BBC642
:101A9800BACEBAC6BAC6BAC6BAC6DAC6DAC6DBC6D5
:101AA800DBC6BBC6BBC6BBCEBBCEBBCEBBCE9BCEFE
:101AB800D9C6DAC6DAC6DBC6DBC6DBBEDCBEDCC628
:101AC800DBC6BBC6DBCEDBCEDACEDACEDACEDACEFA
:101AD800DBCEDBCEDBCEFBCEFBCEDBCEDBCEDBCE76
:101AE800DBC6DBC6BBC6BAC6BAC6BAC6BBCEDBCE79
:101AF800DACEDACEDACEDACEDACEDACEBACEBACEDE
:101B0800BACEBACEBACEBACEBACEBACEBACEBACE8D
:101B1800BACEBACEBACEBACEBACEBACE9AC69AC6CD
:101B2800BACEBACEBACEBACEBACE9AC69AC69AC6E5
:101B38009AC69AC69AC6BACE9AC69AC69AC69AC675
:101B48007AC67AC67AC679C679C679C679C659C6B2
:101B58004752A54184398439423122318339E549D4
:101B68004231A020C1200229E12022294329E22074
:101B780060106010E320C218A2186529EF7379C6B7
:101B88009ACEBAC6BAC6BBC6BBC6BBC6BBC6BBC660
:101B9800BACEBACEBAC6BAC6DAC6DBC6FBBEFBBE7A
:101BA800DBBEDBC6DBC6DBC6BBCEBBCE9BCE9BD6C5
:101BB800DAC6DAC6DBC6DBC6DBBEDCC6DCC6BCC63C
:101BC800DBC6BBCEDBCEDBCEDBCEDBCEDBCEDBCEED
:101BD800DBCEDBCEFBCEFBCEFBCEDBCEDBCEDBCE55
:101BE800BACEBACEBAC6BACEBACEBACEBACEBACEB5
:101BF800DACEDACEDBCEDBCEDBCEBACEBACEBACEFA
:101C0800BAC6BACEBACEBACEBACEBACEBACEBACE94
:101C1800BACEBACEBACEBACEBACEBACEBACEBACE7C
:101C2800BACEBACEBACEBACE9AC69AC69AC699C60D
:101C38009AC69AC69AC69AC69AC69AC69AC69AC69C
:101C48007AC679C679C679C679C679C679C679C693
:101C5800643943310229A020A0206339A4414331CB
:101C6800E128A020E1200129E120E12002294329DF
:101C7800E228201020086010611081102421CE7302
:101C88009ACEBACEBACEDBC6BBC6BBC6BBC6BBC62F
:101C9800BAC6BAC6BAC6BAC6BBC6DBC6DBC6DBC6D8
:101CA800DBC6DBC6DBC6DBC6BBC6BBC6BBCEBBCE94
:101CB800DABEFBBEDBC6DBC6DBC6BBC6BBC6BBCE5D
:101CC800BBCEBBCEBBD6BBCEDBCEDBCEFCCEFCCEFA
:101CD800DBCEDBCEDBCEFBCEDBCEDBCEDACEDACE96
:101CE800BACEBACEBACEBACEBACEBACEBACEBACEAC
:101CF800DAC6DAC6DACEDACEDBCEDBCEBAC6BAC6FA
:101D0800BAC6BACEBACEBACEBACEBAC6BAC6BAC6AB
:101D1800BACEBACEBACEBACEBACEBACEBACEBACE7B
:101D2800BACEBACEBACE9AC69AC69AC699C699C635
:101D38009AC69AC69AC69AC69AC69AC69AC679C6BC
:101D480079C679C679C679C679C679C679C679C693
:101D580044312331E228E2280229E1280129E1203F
:101D6800A020C120E128E120E22822290229022915
:101D7800A12060182008000800002008821003191C
:101D88002C6339BEBACE9AC6FBCE9ABE9ABEDBC6C3
:101D9800BABEBABEBBC6DBC6DBC6BBC6BBC6DBC6E5
:101DA800DBC6BBC6BBC6DBC6DBC6DBC6DBBEFBC64B
:101DB800DAC6DABEDBC6DBCE9AC6DBD6FBDE79D660
:101DC80079D6F7C575B5D7BD38C67AC61CD7DCCE67
:101DD800FBCEFBCEDBCEFBCEFBCEDBCEBACEBACE75
:101DE800DBCEBACEBACEBACEBACE9AC6BACEDACE92
:101DF800DAC6BAC6DAC6DBCEBAC6BAC6DBC6DBC630
:101E0800DBC6BBC6DBCEDBCE9AC6BAC6DBCEBAC64D
:101E1800BACEBACEBACEDACEBACEBACEBACEBACE5A
:101E2800DBCEBACEBACE9AC69AC69AC6BACEBACEC1
:101E38009AC69AC69AC679C69AC69AC69AC69AC6BB
:101E48009AC69AC69AC67AC679C679C679C679C62E
:101E58008118A120A118A120801860188018A0203E
:101E6800A020C120E128E22802290229022902290A
:101E7800A2208118401040102008000000004000F7
:101E8800A210EB5238BEBACE9AC6DBC6DBC6DBC69A
:101E98001BC7FBC6DBBEBBBEBBC6BBC6BBC69BC6A1
:101EA8009BC6BBCEDBCEFBC6DBC6DABEDBBE1BC722
:101EB800FBCEBACEDAD6B9D637CED6C533BD6FA4E7
:101EC800EA7A886A275ACA62EF83B294F7B5FCD6D1
:101ED800FBCEFBCE1CCF1CCFFBCEDBCEDBC6BAC6FF
:101EE8009AC6BAC6DBCEDBCEDBCEDBCEDBCEBAC63D
:101EF800DACEDBCEDBCEDBCEDBCEDBC6DBC6BBC6CB
:101F0800BBC6BAC6BBC6DBC6BAC6BAC6DAC6DAC666
:101F1800BACE9AC69AC6BACEBACEBACEBACE9AC6F1
:101F2800BACE9AC69AC69AC6BACEBACE9AC679C652
:101F38009AC69AC69AC69AC69AC69AC69AC69AC699
:101F48009AC69AC69AC69AC679C679C679C67AC60C
:101F58008118C120C120C220801840108018C120DB
:101F6800A020E12802290229E220E220C220A118AB
:101F7800611040104010611061102008000000003E
:101F8800610882086942B6ADBAC6DBC6BAC69ABE4F
:101F9800BABEBBBEBBBEBBC6BBC6DBCEDBCEBBCEF2
:101FA800DBCEDBCEDBCEDBC6FBCEFBCEFBCEDAC692
:101FB800B9D617C694B5F2AC2F9C6B8BA872C459CE
:101FC80062510149E138A4518C83EF8BB29C79CEE0
:101FD800FCC6FCCEFCC6DBC6DBC6DBCEFCCEFCCE2C
:101FE800BBC6DBC6DBC6DBC6DBC6DBC6DBC6DBC601
:101FF800DACEFBCEDBCEBAC6DBCEDBCEBAC6BBC6EC
:10200800DBC6BBC6BBC6BBC6DBC6BAC6BAC6FBCE3A
:102018009AC6BACEDACEBACEBACEBACEBACEDBCE5F
:10202800BACEBACEBACEBACE9AC69AC69AC6BACEE0
:102038009AC69AC69AC69AC69AC69AC69AC69AC698
:102048009AC69AC69AC69AC67AC67AC67AC67AC608
:10205800811881188118A11881188018A120C12021
:10206800C120E2280229E220C1208118601020083E
:102078000000000000002008400840082008200058
:1020880020002000A208A629559DFBCE9AC6DBC6D3
:10209800BBC6BBCEDBCEDBC6BBC6BAC6BBC6DBC6C1
:1020A800BAC6DBCEDBCEDACE99CE78C6F7BD95AD13
:1020B800909CCD8B4B7BE972A872C87A098B088BF0
:1020C8002993457A2151A3596B8BCD8BEE8B38CE52
:1020D8001CCF1DCF1DD71DCFFCCEBBC69AC69AC636
:1020E800BBC69ABE59BE59B659B659B69ABEDBC6D2
:1020F800B9CEDACE99CE9AC6DBCEDBCEDBCE1CD7F4
:10210800BBCEFCCEDBCEBBCEDBCEDBCE9AC6BAC610
:10211800BACEBACE9ACEBACEBACEBACE9AC699C6E8
:10212800BACEBACE9AC69AC69AC6BAC6BAC6BACEEF
:102138009AC69AC69AC69AC69AC69AC69AC69AC697
:10214800BACEBACEBACE9AC69AC67AC67AC69AC64F
:102158004010401040088010A118A118C120A118F3
:10216800A118C120C120A11860102008000000009B
:10217800000000000000000000002008400841089E
:102188000000200020006100C629559DDBCEBAC69C
:102198009ACE9ACE9AC6BAC6BAC6BAC6DAC6FBCE1E
:1021A800DAC6FACEDAD637C654B5709CCE8B4C7BDD
:1021B8002A7B2A7B6B8BAC93AC9BAB9B8A9B6A9BE1
:1021C800699BE88A056AC87AED9B8C8B475A0F94FD
:1021D800F8B5B6AD349D71848E63EC520C5B6E63BA
:1021E8004D63CB4A493A283AE731C7290832694250
:1021F800894AA94AA94AEB524D634D636D63F0734E
:10220800559DB7ADF8B518B69AC6FCD6FBD6FBCE29
:10221800FBD6FBD6DACEBACEBACEBACEBACEFBD67B
:10222800DBCEBACE9AC6BACEDBCEDBCEBAC679C67C
:102238009AC69AC69AC69AC69AC69AC69AC69AC696
:10224800BACEBACEBACEBACE9AC69AC69AC69AC6E6
:10225800400860106110C218E220C218C220C118DC
:1022680081106010400820080000000000000000F5
:1022780000000000000000000000000020004008EE
:10228800A2100000000041008100A629349DBAC6B2
:10229800BACE9ACEBACEDBCEFBCEFACEDACEDACE34
:1022A80078C6F6BD33AD2F946C830B7B0A7BEA822C
:1022B8008B8B8B93AB938B938B936A936A938B9B48
:1022C8008A9B4993E9828B93CC93C972233906522E
:1022D800AA52EB5A0C63CA5A07426529863107424B
:1022E80007426529E2188110400000004000C21032
:1022F800232103210219E318C21041000000200025
:102308004100C3082519A629AA4AEF739284B28C02
:10231800139555A5D7AD79C6FBD6DACE9AC6DACECF
:10232800BACEBACEBACEBAC69AC6BAC6BACEDBCE7C
:102338009AC69AC69AC69AC69AC69AC69AC69AC695
:10234800BACEBACEBACEBACE9AC69AC69AC69AC6E5
:1023580040086008600881108110601061106010EA
:1023680040082008000000000000000000000000F5
:102378000000000000000000000000000000000055
:10238800200061084000000020008100852195A5FB
:10239800DAC6DBCEDACE79BE17B6F6B595B554AD4A
:1023A800D29C0F8C4C7B0A7B2B838C93EDA30EA4C1
:1023B8000DA42DA40DA4CC9BCC93CD93ED9B0DA483
:1023C800CC9B8B8B8B93AC938C8B886A8441854197
:1023D800E6494852895A485AE649C649074A48527E
:1023E800E64985390329C220A118A11802214331E1
:1023F800A531A531A53185314429C31861082000CC
:10240800200021002000000082006521E731E7312B
:102418000732C729E731EB529184559DD6AD79C66D
:10242800BACEDBCEDBCEDBCE9AC69AC69AC69AC6A1
:102438009AC69AC69AC69AC69AC69AC69AC6BACE6C
:10244800BACEBACEBACEBACE9AC69AC69AC69AC6E4
:102458000000000000000000200000002000000034
:102468000000000000000000000000000000000064
:102478000000000000000000000000000000000054
:102488000000000061082000200020004000A6296C
:1024980017A658AEF6ADF38C307C0F7CEF83CE8355
:1024A8008D834C834B83AD930EA42EAC0DA4EDA36A
:1024B800CC9BEC9BCC9BAC93ED930E9C2E9C4FA499
:1024C8002E9C6B8BAC938C8BAC8B0A7BEA72A96AC3
:1024D800EA722B7B2B7BCA6AA96AC96AA96A6862F5
:1024E8006862475AC5496339233143318439A44165
:1024F800C539C539C539A53985314429E31861007D
:10250800610861008208A208E3108629E731C63114
:10251800442124190411241965214519A629AA4A18
:102528004D5B8E63307C349D38BEBACEBACE9AC627
:102538009AC69AC69AC69AC69AC69AC69AC6BACE6B
:10254800BACEBACEBACEBACE9AC69AC69AC69AC6E3
:102558002100000000000000000000000000000052
:102568000000000000000000000000000000000063
:102578000000000000000000000000000000000053
:102588000000000000002100210000000000000001
:1025980004522D94EC8B8A83EC8BAB8BCC8BCC8B3D
:1025A8000D940D94EC93CC93AB8BAB8BAB8BCC8B0A
:1025B800AB8BAB8B8B836B83AC83ED8B0E942E94A0
:1025C800EE8BEE8BEE8BEE8BCD83AD83CD83CD8BF7
:1025D8000E940E940E8CED8BCC838B7B6B7B6B7B7C
:1025E8004A7B097BE872C872A872A76A876A876AF9
:1025F8008762A76AA76A6662255AE4516341013176
:10260800C130A0288028A12802312331C2286018AF
:102618008218611020008108E310E310E310A21073
:102628008210E320C31824214942307438AEFBC617
:102638009ACEBACE9AC69AC69AC69AC69AC6DBCE19
:10264800BAC6BAC6BAC69ACE9ACE9ACE9ACE9ACEFA
:102658002000000000000000000000000000000052
:102668000000000000000000000000000000000062
:102678000000000000000000000000000000200032
:1026880000000000000020002000000000002000E2
:1026980000316A7BEC8BAB83EC8BCB8BEC930D948A
:1026A8002D9C0D94EC93EC93EC93EC93EC93EC93BE
:1026B800EC930D940D94ED930D942E942E940E940A
:1026C8002E940E942E942F942E944F9C4F9C2F94BE
:1026D8004F9C2E940D8CED8BCC83CC83CC8BCC8BE8
:1026E800AB8B8B8B6B8B4A834A832983297B297B12
:1026F800297B297B297B0973E872E872A86A6762DB
:10270800065AE551C549A44984412339C128802086
:1027180061106010000000002000200041086108DE
:10272800C318E420A3186208410024198D5B54954E
:1027380058BE9ACE99C69AC6DBCEDACE9AC6DBCEFA
:10274800BAC6BAC6BAC69ACE9ACE9ACE9ACE9ACEF9
:102758000000000000000000000000000000000071
:102768000000000000000000000000000000000061
:102778000000000000000000000000000000000051
:102788000000000000000000000000000000000041
:1027980061396A7B4D9C0C94EC8BCC8BCC8BEC9385
:1027A8002D9C0D94ED930D940D942D9C2D9C2D9C9A
:1027B8002D9C4EA46EA46F9C4F9C6F9C4F9C2E9496
:1027C8004F9C2F942F942E940E944F9C6FA44F9C43
:1027D8006F9C4F9C2E940D8C0D8C0D8C0D8CEC8B5E
:1027E800CC8BCC8BAC8B8B8B8B8B6B8B8B8B8B8BAE
:1027F8008B838B836A836A834A836A836A836A8347
:102808006B834B832A7BE972A86A675AE651A4490D
:1028180043392331A11840082008000041088210DC
:10282800C318C318C318C318610881002419852167
:102838002C5B549D9AC679C679C69AC69AC6BAC6FA
:10284800BAC6BAC6BAC69ACEBACE9ACE9ACE9ACED8
:102858000000000000000000000000000000000070
:102868000000000000000000000000000000000060
:102878000000000000000000000000000000000050
:10288800000000000000000000084010A118E2202D
:10289800A241C76A6A836A838B83CC8BEC930D94BD
:1028A8000D9C0D940D940D9C2E9C4E9C6E9C6E9CC4
:1028B8004FA46FA48FA46FA46F9C6FA46FA46F9C88
:1028C8004F9C2E942F9C2E94EE934F9C90A46FA413
:1028D8004F9C4F9C4E9C2E942E942E942D940D8C90
:1028E800ED93ED93ED93ED93CC93CC93CC93EC9344
:1028F800EC8BEC93EC93CC8BCC8BCC93CC93AC93B0
:10290800EC93CC93AB8BAB8B8B8B6B832A7BE87272
:10291800676246628441E22881180008200862083C
:10292800A310C418A3108208A31004210319610876
:1029380082086942D39479C6DACE9AC69AC6DBCEA3
:10294800BACEBACEBAC6BACEBACE9ACE9AC69ACEAF
:10295800000000000000000000000000000000006F
:10296800000000000000000000000000000000005F
:102978000000000000000000000000000000000847
:1029880000086018E2286339C549465AC8620973C5
:10299800297B4983AB8BAB8BCC8B0D940D940D9C11
:1029A8002D9C2E9C4E9C4E9C6F9C6FA48FA48FA434
:1029B800B0A4B0A4B0A490A490A46FA46FA46F9C7A
:1029C8004F9C4F9C4F9C2E9CED930D942E9C4E9C9F
:1029D8006F9C6FA46F9C4F9C2E944E944E944E9C6B
:1029E8004E9C4E9C2E9C2E9C4E9C4E9C2E9C2E9C0F
:1029F8002D942D9C2D9C2D9C2D9C2D9C2D9C0D9CAF
:102A08000D9C0D9CEC93EC93EC93EC93AB8B8B832C
:102A18002983E87A4662A551233940180008000046
:102A28000100A310A3108210042124218110400862
:102A3800C21045212C6355A538BE9AC6DBCEBACE46
:102A4800BACEBACEBACEBACEBACE9ACE9AC699C6AF
:102A5800000000000000000000000000000000006E
:102A6800000000000000000000000000000000005E
:102A7800000000000000000000000008611802319A
:102A8800E6514762C9722A7B4A7B4A7B4A7B4A7B6A
:102A98008A8B8A8BAB8BEC93EC930D9C2D9C4E9C74
:102AA8004E9C6F9C6FA48FA48FA490A4B0A4D0ACAC
:102AB800D1ACD1ACD1ACD1ACB0A4B0A490A490A40A
:102AC8006FA44F9C4E9C2E9C0D9CAC93AC93ED9B9D
:102AD8000E942E944F9C8FA48F9C6F9C6F9C8F9C00
:102AE8008FA46F9C6FA46FA46FA46FA46F9C4E9C5F
:102AF8004E9C4E9C4E9C4D9C2D9C2D9C2D9C2D9C03
:102B08000D9C2D9C2D9C2D9C0C9CEC9BEC93EC938C
:102B1800AA93698BE882A872065A23398220000892
:102B280021082100410082080421A2186110E32035
:102B3800652903198629EB5A718418B6FBD679C61C
:102B4800DBCEBACEBACEBACEBACE9ACE9AC69AC68C
:102B5800000000000000000000000000000000006D
:102B6800000000000000000000000000000000005D
:102B78002008000000002008A1204439275AEA72E2
:102B88000A7B2A834A834A834A836A83AB8BCB8B2B
:102B9800AB8BCB93EC930D9C2D9C2D9C4E9C6FA4E2
:102BA80090A4B0A4B0ACD1ACD1ACD1ACF1ACF1AC88
:102BB800F2ACF2ACF2ACF2ACF1ACD1ACB0A490A4F3
:102BC8006FA40E9CCD93ED930E9CAC8B6B83CD9331
:102BD8008C838C8BED9390A4D1A4B0A4909C90A4EA
:102BE800B0A4B0A4B0ACB0ACB0ACB0A4B0A4B0A425
:102BF800AFA4AFA48FA48FA46EA46EA44EA46EA499
:102C08002D9C2D9C2DA40D9C0C9C0C9C0C9C0C9C10
:102C1800CA9BAA93698B298BA8720662A549C22808
:102C2800000800004008C210C318C218E320863903
:102C3800A631C210C3102842EF7B75A579C61CD7F0
:102C4800BACEBACEBACEBACEBACE9ACE9ACE9ACE9C
:102C5800000000000000000000000000000000006C
:102C6800000000000000000000000000000000005C
:102C7800000000008018A541A962EA720A7B2A8335
:102C88004B836B8B8B8BAB93CC93CC93CC8BCB8BB9
:102C9800CB930D9C0C9C0D9C2D9C4EA48FA46FA4D3
:102CA800D1ACD1ACD1ACF1ACF1AC12AD12AD12AD2E
:102CB80033AD13AD12ADF2ACF1ACD1AC90A470A4AD
:102CC80090A4ED934B7B4B838C8BE97A676AE9720E
:102CD8006B834B7B8C834F9CD1ACF1ACD1A4F1AC12
:102CE800D1A4D1ACD1ACD1ACD1ACB0A4D0A4D0A437
:102CF800D0ACD0ACD0ACB0ACB0A48FA48FA48FAC07
:102D08008FAC8FAC4EA42DA42DA44DA42C9C0C9C50
:102D1800EA9BCA93AA936A93C882C8828872A44914
:102D2800C1200008200040004000E318252904299C
:102D38006108C31865292842EB526D639284F7B580
:102D4800BACEBACEBACEBACEBACEBACE9ACEBACE5B
:102D5800000000000000000000000000000000006B
:102D6800000000000000000000000000000021003A
:102D7800000802312752C96A2B7B6B8B8C8BAC9372
:102D8800AC93AC93CC93ED930D94EC93EC8BEC8BD0
:102D98000C9CEC930D9C2D9C4EA46FA48FA4B0ACFE
:102DA800F1ACF1AC12AD12AD12AD12AD32AD32AD27
:102DB80033AD33B533ADF2ACF2ACF1AC90A46FA443
:102DC8004FA4CD8BC96A4339065AE972C55163418C
:102DD800275A0A7B4B7B0E94909C32B5F1A412AD16
:102DE800F2ACF2ACF1ACF1ACF1ACF1ACF1ACF1ACF1
:102DF800F1ACD1ACD1ACB0ACD1ACB0ACB0A48FA478
:102E0800B0AC8FAC8FAC6EAC6EAC6EA42DA40C9C29
:102E18002B9C0B94CB938A936A9B4A93C87A466AF5
:102E28008341C020400820006108E318C3188310BC
:102E3800A21065292421A631E7318A4AEB5213955D
:102E4800BACEFBD6BACEBACE9AC6BACEBACE99C642
:102E5800000000000000000000000000000000006A
:102E68002100000000002100000000000000000018
:102E78006339475A0A736B838C8BCC93CC93CC936E
:102E8800EC9BED9BED9B0D9C0D9C0D940D940D946E
:102E98000D9CEC930D9C2E9C6FA48FA4B0ACD1AC70
:102EA800F2AC12AD32B533B533B553B553B553B5EE
:102EB80033AD53AD33AD12AD12ADD1AC90A46F9C10
:102EC8000E94AC8B0A73A449C12847624B7BC55149
:102ED800233947626B7BCD8B709C12AD12AD33AD3D
:102EE80012AD12AD12AD12AD12AD12AD11AD11ADE4
:102EF800F1ACF1ACF1ACD1ACD1ACD1ACD1ACD1AC82
:102F0800D0ACB0ACB0AC8FAC8FAC6EAC4EA42DA432
:102F18004D9C2C9C0C9CCB9BCB9B8A9B4993E88219
:102F2800A772A341E120A010A110C310A308A30811
:102F3800242144292421A631A631283A69428E6BDE
:102F480075A579C6BACEBACEBACEBACEBACE9AC618
:102F58000000000000000000000020000000000049
:102F680000000000000000000000000061080421CB
:102F7800465AE9726B838B8BAC93CC93CC93CC93EE
:102F8800ED9B0D9C0D9C0D940D942E942E940E94F7
:102F9800EC93ED9B2D9C4E9C6FA4B0A4D1ACF1ACEE
:102FA80012B532B553B553B574B573B573B573B5BA
:102FB80053AD53AD33AD33AD12ADD1A46F9C4F9C1F
:102FC8000E94EE93EE938C83275AA5414B7B6C7B32
:102FD800023964414B7B0E94909CF2A453B553B5CF
:102FE80033AD33B533B532B532B512AD32AD12ADFE
:102FF800F2ACF2AC12AD12ADF2ACF2ACF2ACF2B48F
:10300800F1ACD1ACD0ACB0ACAFAC8FAC6EAC6EA404
:103018008E9C6D9C2D9C0C9CEBA3EBA3AA9B899387
:1030280008836662A441222903190319E4102519AB
:10303800242124216529E739E73969428A4AEB5274
:10304800CF6B75A5DBCEBACEBACEBACE9ACE9ACE13
:103058000000000000000000000000000000000068
:10306800000020080000000800080000E220074ACD
:10307800C86A2A7B8B83AB8BCC93ED930D9C0D9CFC
:10308800ED930D9C0D940D940D940E940E940E9446
:103098000D940D9C2E9C4E9C8FA4B0A4D1AC12B55F
:1030A80012B533B553B574B594B574B574B574B574
:1030B80053AD53AD33AD33B532B5D1A46F9C4F9CEE
:1030C8002F9C0E94B0A453BDF2ACC649C641EE8302
:1030D8004862E230C96A2F94909CF2A474B533AD6B
:1030E80033AD53B533B533B532AD32AD32AD12ADC4
:1030F80012AD12AD12AD12AD12AD12ADF2ACF2AC12
:10310800F2ACD1ACD1ACD0ACB0ACAFAC8FAC8FAC76
:10311800AF9C8EA46D9C2C9C2CA40BA4EBA3CA9BE7
:103128004883087B465A4331E2180319C310E41058
:10313800C3180419C739294249428A4AAA4ACB4ABC
:10314800AA4A517C79C6BACE9AC69ACE9ACE9ACE57
:10315800000000000008000800080008000820100F
:10316800000820106018E128C120C128C549885AE4
:1031780009736B838C8BCC8BEC930D940D940D940D
:103188000D942D942D940D940E942E942E940E94AB
:103198000D9C2E9C4E9C4F9C6FA4B0A4F1ACF2AC3D
:1031A80033B553B574B594B594B574B574B574B5F1
:1031B80074B553B533AD33B532B5D1AC909C6F9C73
:1031C80090A490A4D1A4AD83695AC2208118CE7B63
:1031D800AD8B0339C649AD83909C53AD74B533ADFF
:1031E80033AD33AD33B533B533B532AD32AD32ADC2
:1031F80032AD32AD12AD12AD12AD12AD12ADF2ACB0
:10320800F2ACF2ACF1ACF1ACD0ACB0ACAFACAFACB2
:10321800AFA48FA48EA44DA44CA42CA40BA4EBA300
:103228008A93498366624239E220E218C210E210AA
:10323800E3186529284269428A4A8A4269426942F2
:1032480008324D5BD7ADDBCEBACE9AC6BACE9ACE8F
:103258000010201040188020A020E130433984411C
:1032680006522652A862676263418341A86AC86A07
:103278002A7B6B83AC83CC8BED930D940C8C0D94D3
:103288002D942D942E942E940E942E940E940E9488
:103298002E9C4E9C4F9C6F9C90A4B0A4D1ACF2ACD9
:1032A80033B553B574B594B594B574B574B574ADF8
:1032B80074B574B553B533B532B5F1AC90A4909CE0
:1032C8004F94709CAD7B6539C218284A24216E73CF
:1032D8002F9CA5492339A9622F8C74B574B574B590
:1032E80033AD33AD33AD33B533B532B532AD32ADC1
:1032F80032AD32AD32AD32AD33AD33AD33AD12ADEB
:1033080032B512AD12AD11ADF1ACF0ACD0ACD0AC61
:10331800AFAC8FAC8EA46DA46DA44DA44CA42C9C12
:10332800CB93097B4662C44984396431222123192D
:103338004529C73149426942AB4ACB4A4942493AD1
:1033480008328A42D38C9AC6DBCE9ACEBACE9AC6B7
:10335800C4510552465A8762C86A09734A838B8BDF
:10336800297B297B097B255A6249055A087B4983B1
:103378008C83AC83CD83ED8B2E942D942D944E9419
:103388004E942D940D940D940D94ED93ED930E940D
:103398002E9C4F9C6F9C6FA490A4B0A4D1A4F2ACB7
:1033A80033AD53B574B574B574B574B574B574B537
:1033B80074B574B553B532AD32B5F1ACB0A490A4C0
:1033C8006F9CB1A48D7B03294008284245214D6B91
:1033D8002F9CC6512439685A6C73B19C54AD74B58E
:1033E80054AD53AD53B533B533B532B552B552AD0F
:1033F80032AD32AD32AD32AD53B553B553B533AD51
:1034080053B532B532B512B511B511B5F0ACD0AC73
:10341800AFB48FAC8EAC8EA48EA48EA46DA44DA434
:103428002D9C6A8BE97A886A2652C541632943290B
:103438008629C731083A49428A4ACB526A42493AF0
:103448002832493AAE63F7B5DBCEBACE9ACE9ACED9
:10345800097B297B4A836A836A836A834A8349830F
:10346800297B4A8B666A414904620883087B498B39
:10347800AD83CD83ED8B0D8C2E8C2D8C2D8C4E94A5
:103488004E942D94ED8B0D94ED93CD8BCD93EE93BF
:103498002E9C4F9C8FA490A490A4B0A4D1A4D1A496
:1034A80012AD33AD53AD74B574B574B574B574ADB0
:1034B80053B573B553B532AD32B512ADD1A4B0A47E
:1034C800909C909C309469526531494A2942AF7367
:1034D800309CA6498541895A895AAD7B34AD33ADB4
:1034E80054AD53AD33AD33B532AD32AD32AD52AD6F
:1034F80032AD52AD52AD52AD53AD53AD53AD53B5E0
:1035080053B552B532B532B531B511B5F1ACD0AC11
:10351800AFBCAFB48FACAFACAEA4AEA48EA46EA457
:103528002EA4CC938C8BE97A475A264A0542E53972
:10353800E739C731083A69426942EB52AA4A6942F7
:10354800293A283ACB4A359DBACEBACE79C6BACEF0
:10355800697BAB83AB836A836A836A83097BE97A75
:10356800C872E5590139C449A86A29738B838B83CA
:10357800CD8BED8B0D8C0E8C0E942E944F944F9416
:103588002F942F942E94EE8BCD8B8C7B4B732A73B8
:103598008C7B0E8CD19CD19CB19CF1A4F1ACD1ACAC
:1035A80012AD52AD72AD72A573A574AD75B555B5B2
:1035B80074B554B534B533B533AD13ADF3A4D29C5B
:1035C800D29C919475AD74AD91942C6B0742B29CCA
:1035D8000E9402318441685A074AA95AD2A413A505
:1035E80053AD53AD53AD53AD53B553B533B533ADFB
:1035F80033B533AD33AD53B553B553B553B553B5F3
:1036080053B553B553B552B552B532B512ADF1AC49
:10361800D0ACD0ACCFACAFA4AFACAEACAEAC8EAC93
:103628004DA42C9CEB934973A75A67522742E6395D
:10363800E639C631073A283A4942AA4A8A42083A3C
:10364800083A083A6942307C99C6BAC69ABEDAC6C0
:103658006A7B8A838A836A834A83097BA872676A3A
:10366800C5510139224167622A7B6B83AB83ED8B9D
:10367800ED8B0D8C2E942E942E944F944F9C4F9C32
:10368800709C4F9C4F9CAD83A862675A475A633918
:103698000229885A2F8CD19CD1A4F2AC12B5F1B46E
:1036A800F1AC31AD52AD52AD53A553AD54B534B5AF
:1036B80054B553B533B533AD33AD33AD13ADF2A413
:1036C800B194D29CD29CB5B537CE508C8D7B308CC2
:1036D8000A73E23043390652A541E6492F9433ADC7
:1036E80033AD53AD53AD53AD53AD53B554B554B5D8
:1036F80053B533B553B553B553B553B553B573B582
:1037080073B573B573B553B552B532B532B512AD9D
:10371800F0ACD0ACD0ACCFACCFACCFACAFACAEACE7
:103728008EAC0C94CB8B4A7BC862675227424742C7
:10373800073AC631E739083A293AAB4A8A4A294250
:10374800083AC731083A2C5B559D99C6DAC6BAC6FD
:103758006A836A83297B2A83097BA872876A065A47
:1037680084490239E5510A736B7BAC83AC8B0D94A9
:103778002E942E944F9C4F9C4F9C4F9C4F9C4F9C3B
:103788004F9C2F944F9C8C838441C5498862633930
:10379800A120A5410A6B4F94D1A4B1A4B0ACD1B477
:1037A800D1ACF1AC31AD52AD53AD33AD33AD34B571
:1037B80033AD33AD33AD33AD13AD13AD12ADF2A4AC
:1037C800D2A412A5D19C33AD919C4C732F94AD8398
:1037D800686A8449A549075AE649C641EE8354B543
:1037E80033AD53AD73AD73B574B574B574B574B505
:1037F80074B554B553B553B553B573B573B573B5FF
:1038080073B573B553B552B532B532B532B512ADDD
:10381800F1B4F0ACF0ACD0ACD0ACCFACCFACCFB452
:10382800AEAC2C9CCB8B4973A8626752474A684A56
:103838002742C639C731C731083A8A4A6A42093A23
:10384800C8318629E7318A42718479BEDBCE9ABEB7
:10385800297B2A7BE872E97AA872886A686AC55166
:1038680043418449A86A4B7B8C83ED8B2E944F9CF3
:103878002E944F944F9C4F9C4F9C4F9C4F9C4F9C19
:103888000E94EE930E9C0A7BC13084494B83886A60
:10389800A541E651895ACD83909C90A470A490AC20
:1038A80090AC90A4D0A411A532AD32AD13B534B507
:1038B80032AD32AD32AD12AD12AD12AD12ADF2ACC9
:1038C80012AD12ADF2A4D1A4CD83EE8B2F9C4C8304
:1038D800C97A686A4862896A896A8962509453B564
:1038E80053AD53AD73B594B574B574B574B574B5BB
:1038F80074B574B573B573B573B573B574B574B57C
:1039080073B573B573B553B553B553B552B532AD39
:1039180012B511B5F1ACF1ACD0ACD0ACCFACCFACEA
:10392800AEAC4D9CCC8B0973875A6852684A484A9A
:103938000742C631A731A731E831293AE839A7311A
:10394800A7318729E8396A42517C59BEBBC6DBC614
:10395800C872E87AA872A872886A886A476A84492D
:1039680002392762EA726C83CD8B0E944F9C4F9C70
:103978004F9C6F9C4F9C4F9C4F9C4F9C4F9C2F9CE7
:103988000E9CEE9BAD93886A40280239C97AEA7A80
:1039980085412752C9624C7B0E8C70A490AC4FA411
:1039A8004FA44E9C6F9CB09CF1A4F2ACF2B4F3B45B
:1039B80011A512AD12AD12AD12AD12AD12ADF1AC32
:1039C800B0A4D1A4B0A42F942F9C90AC6C8B0A7B8C
:1039D8000A83EA82CA7A0B7B2B7B8D83F2AC53B5C0
:1039E80053B573B593B594B594B594B594B594B5EA
:1039F80094B594B574B574B574B594B594B594B5D7
:103A080094B594B594B573B573B573B553B553B54B
:103A180032B512B512B5F1ACF1ACD0ACD0ACCFAC7C
:103A28008EA44D9CEC932973885A8852484A2742A1
:103A38002842E739C731A731C831E83987298729AA
:103A4800A731A731C8312942117C39BE9BC6FCCEAB
:103A5800A772A872C872A8728872686AE659234168
:103A68006449A96A0B7B8D832F940F942F9C709CBB
:103A78006F9C6F9C6F9C4F9C4F9C4F9C4F9C2F9CA6
:103A88000E9CCD936C8B686AA13864518872EA8267
:103A9800075A275A8962EA6A6C7B0F9450A450AC83
:103AA8002FA42EA46FA4B0A4D1A4D1ACD2ACD2B40C
:103AB800F1A411A511ADF1ACF1ACF1ACF1ACF1ACE4
:103AC800D1ACD0ACF1AC4F9C2E9CAD936B8B8C8B56
:103AD8006C936C8B6C8B6C8B6C832F9C74BD54B506
:103AE80074B594B594B594B594B594B594B594B5A6
:103AF80094B594B594B594B594B594B594B594B576
:103B080094B594B594B594B594B574B573B553B5E7
:103B180033B532B532B512B511B5F1B4F0B4D0B48D
:103B2800CFAC2D9CEC936B7BC962885A484A694A92
:103B3800694A2842E839A731C831A8316729872955
:103B48008729A731A731E839AF6B18B6BBC6BBC602
:103B5800A87A8772C87A88728872476A4349023994
:103B6800C551896A4C7BAE8B2F9C509C909CD1A4EC
:103B7800909C909C6F9C4F9C4F9C4FA44FA42FA44B
:103B8800EE9B8D936C8BA97A6451066A897A4C9363
:103B98000B7BC649C649074AC962CE8BEE9BEE9B92
:103BA8000EA44FA4B0ACD0ACD1A4D1ACB1ACB1ACE4
:103BB800D1A4F1A4F1ACF1ACF1ACF1ACF1ACD1AC65
:103BC800B0A46F9C90A46FA42E9CAC8BED93CD9366
:103BD8000E9CED9BEE93EE93EE93D2AC74BD74B550
:103BE80094BD94B594B594B594B5B4B5B4B594B53D
:103BF80094B594B594B594B594B594B594B594B575
:103C080094B594B594B594B594B594B574B553B5C5
:103C180033B533B533B532B512B511B5F1B4F0B427
:103C2800D0B44EA40D948B83EA6AA95A695289527A
:103C3800494A2842E739A731A731A731672987318F
:103C480067298731A731E831CB52359DBAC69AC664
:103C5800C87A667287726772676AE659C130C1307E
:103C6800E659896AAD8BEE932F94919C709C909C39
:103C7800B0A490A4709C6F9C4F9C4FA44FA42FA4F9
:103C88000FA4AD938D93CA7A6451076A687A2B930F
:103C98006962E330C228E228E6496C7B4C83C97A22
:103CA800CD9B4FA4D0ACF1ACD1A4B0A4B1A491A445
:103CB800D1A4D1A4F1ACF1ACF1ACF1ACD1ACD0ACA5
:103CC800D0A4D1AC6F9C6F9C4E9C6FA42E9C4FA42B
:103CD8006FA42E9C2E942F94709C33B574B574B534
:103CE800B4BDB4B5B4B5B4B5B4B5B4BDB5BDB5B56A
:103CF80094B5B4B5B4B594B594B5B4B5B4B594B5F4
:103D0800B4B5B4B5B4B594B594B594BD94B574B51B
:103D180053B533B533B533B532B512B5F1ACD0AC14
:103D2800D0AC6EA42D946B7BC962A95A6952684ABB
:103D38002842E739C6318629A731A729462186298D
:103D480087316629A631C731E731517C7AC6BBCEA7
:103D58006672466A6772266A266264496028033971
:103D6800075A0B73AD83EE934F9C909CB1A4B1A4FA
:103D7800D1A4B1A4909C6F9C4F9C4F9C4FA44FA47E
:103D8800CE9BCE9B6C93EB8203492772A982A982B2
:103D9800AA6AC228A220C22003298439275A44418A
:103DA800065A6FA4F1B4B0A4F1A4B1A4B1A491A42B
:103DB800F1ACD1A4B0A4D1ACD1ACF1ACF1ACD1ACE4
:103DC800F1ACF1A4D0A4B0A4B0A4B0A4B0A4B0AC99
:103DD800D0A4B09C6F9CB1A432AD74B594B594B521
:103DE80094B594B5B4B5B4B5B4B5B5BDB5BDB5BDA8
:103DF80094B594B5B4B594B5B4B5B4B5B4B5B4B5D3
:103E0800B5BDB4B594B594B595B595B574B574B557
:103E180074B574BD53B533B532B512B5F1AC11B53F
:103E28008FAC2E9CAC8B0A73685A274A28422842CA
:103E3800C63907422842083AC731C731C831E8397C
:103E48008631A731A631083A2842EF7359BEBBCE56
:103E5800266A466A466A2662E559E1382020023910
:103E6800475A4B7BCD8B2F94909CB19CB1A4D1A485
:103E7800D1A4B1A4909C709C509C509C50A450A478
:103E880050A450A4EE9BEA822349A97A8D9BEB8A21
:103E98008A6203292431A539C1186018E2288128CB
:103EA80002392A7B8FA4B0A4D0A4D1A4D1A4D1A4D0
:103EB800F2ACD1ACD1ACD1ACF2ACF2B412B5F1AC3D
:103EC800F1ACF1A4F1A4F1A4F1A4F1A411AD11ADE8
:103ED80011A5F1A4F1A412A533A553AD74AD94B501
:103EE80094B5B4B5B4B5B4B5B4BDB5BDB5BDB5BD7F
:103EF800B4B5B4B5B4B5B4B5B4B5B4B5B5B5D5B550
:103F0800B5B5B5B5B5B594B595B5B5BD95BD95BDC2
:103F180074BD94BD53B533B553B532B5F1ACF1B4F6
:103F2800B0AC2E9C8B83E96A475207420742C639D8
:103F38008531C639073A28422842083AC731A7319D
:103F4800662986298631083A6942EF7358BEBACE87
:103F5800256A266AC459A459A451A030402023399F
:103F680088626C7BEE8B4F94B19CB19CD1A4F1A478
:103F7800D1A4D1A4B1A4909C709C509C70A470A4AE
:103F880050A450AC30A4EB82A551A97AAD9BEA822B
:103F9800EB722852653164310221A539E649A549F9
:103FA8000239C97290A4F1AC11A533AD12AD13ADAD
:103FB80012AD12ADF2ACF2B412B512B512B532B5FB
:103FC80012AD32AD32AD32AD32AD53AD52AD53B5A7
:103FD80032AD52AD52AD53AD53AD53AD74AD94AD9A
:103FE80094B5B4B5B4B5B4BDB5BDB5BDB5BDB5BD75
:103FF800B4BDB4BDB4BDB4B5B4B5B5B5D5B5D5B516
:10400800B5B5B5BDB5BDB5BDB5BDB5BDB5BDB5BD20
:1040180095BDB5BD74B553B594BD73BDF1ACF1ACE8
:10402800D0AC4E9C6B7BA862274AE741C63965290C
:10403800232144298531073A49424942083AA731A0
:1040480086318631A631E739083A8D6317B6BAC684
:104058006772466AA4592241224180284018433990
:10406800A9626C7BEE8B5094B19CD19CF1A4F1A415
:10407800D1A4B19CB19C909C709C709C709C91A4A4
:1040880091A471A4309CCE934C83EA7AAD932B8390
:104098002C7BCA62643103210221A539064AA96A28
:1040A800E6598C8BF1AC32B573B594B574B554AD93
:1040B80033AD53B533B533B533B533B533B553B580
:1040C80033AD53AD53AD73AD73AD73B573B573B550
:1040D80073AD73AD53AD73AD74AD74AD74AD74ADF4
:1040E800B4B5B5B5D5B5D5BDD5BDB5BDD5BDD5BDB1
:1040F800B5BDB5BDB5BDB5BDB5BDB5B5D5B5D5BDF8
:10410800B5BDD5BDF6BDF6C5D6BDD5BDB5BDB5BD2C
:1041180094BDB5C594BD74BDB4C573BDF1ACF0AC68
:10412800AFA42E946B7BA862474A484A2842E739D5
:1041380085318529A631073A694A8A4A6942083A87
:10414800C731C739E739073AE7392C5BF7B5DACE13
:10415800A87A67720562E138802840200010443947
:10416800A9628D7BEE8B5094B19CD19CF1A412A5D1
:10417800D1A4D1A4B19C909C709C509C709C91A49B
:10418800D2ACB1ACEE93309CD2B46C83CE93AD8BF1
:104198008E83EB6A6431C218442106424852275A7A
:1041A80027624F9CF1B432ADB4B5B4B5B5B595B589
:1041B80074B574B574B553B553B553B553B574B533
:1041C80053B573B574B594B594B594B574B574B561
:1041D80073B573AD73AD53AD53AD74AD74AD74AD0C
:1041E800B5B5B5B5D5BDD5BDD5BDD5BDD5BDD5BD87
:1041F800B5BDB5BDB5BDB5BDB5BDD5BDD5BDD5BDC7
:10420800F6BDF6C516C616C6F6C5B5BDB5BD95BD8F
:1042180094BDB5BD74BD53B594BD52B5F1ACF0AC09
:10422800AFA42D946B7BA85A06420742283A073A56
:10423800073AE639E739284249424942083AA7315C
:1042480086298631C731E739E7392C5BD7ADBAC63D
:10425800C97A67720662E138602040200010E328BE
:10426800895A8D7B0F8C7094B19CD19CF2A4F2A4D6
:10427800F2A4D1A4D19C919C70945094709491A470
:10428800B1A4F2ACEF930F94D2AC6C7B8D830F94F6
:1042980092AC92A4CF83EA5AA9520B634C7B075283
:1042A800275A70A412B553B5B5BD94B595B595B553
:1042B80094B594B594B574B573B553B553B553B5B2
:1042C80073B573B573B574B574B554B554B554B501
:1042D80073B573B553B553AD33AD54AD74AD74B553
:1042E80094B5B5B5D5BDF5BDF6BDD6BDD6BDD6BD63
:1042F800D5BDD5BDD5BDB5BDD5BDD5BDD5BDF6BD25
:1043080016C616C616C6F6C5D5BDB5BD95BD95BDAE
:1043180094BD73B553B532B532AD11ADF1ACF1AC56
:10432800AFA40D946A7B875AC539A531C631C63109
:10433800C631C631073A2842083AC731A72945216C
:104348006629662986298629C7310C53D7AD9AC6AE
:10435800EA82687226624341C130612020108118C8
:1043680068528D730F8C508CB194D19C12A5F2A415
:10437800F2A4F1A4D19CB19C70944F947094B19C18
:10438800D2A413AD719CEF8B91A4CE8B6C7B2F9430
:10439800D3B4B2A4308CEE7BEE7BAD7B8D7BA96A67
:1043A800896A4FA412B573B5B5BDB5B595B595B5C0
:1043B800B4AD93AD73AD73AD53B553B533B533B534
:1043C80033AD33AD33AD33AD13AD12AD12AD12AD68
:1043D80012AD12AD12AD12AD33AD54B574B574B59E
:1043E80074B594B5D5B5D5BDF6BDD6BDD6BDD6BDCB
:1043F800D5BDD5BDB5BDB5BDB5BDD5BDD5BDD5BD85
:10440800F6BDF6BDD6BDD5BDB5BD94B574B574B50C
:1044180053B532B512AD12ADF1ACF1AC11B5F0AC8B
:104428008FA4EC8B4A73A85A274A27422842283A75
:104438008529A529073A2942E831A729A729662904
:10444800A731A731C7318629A7290C53F8B5BACEA9
:10445800EA82A97A686AE6590339401800104018B8
:10446800074A4C730F84508CB194F29C12A5F2A4A5
:10447800F2A4D1A4D19CB19C70945094709CD2A405
:10448800F3ACD2A4919C0F8CD2A4D2A48D7B0F94B0
:1044980031A4F3B48D7B0742E639E641895A0B7B98
:1044A8002B832F9CF2B453B5B4B5D6BDB5B595AD35
:1044B80093AD93AD73AD52AD32AD32AD12AD12AD19
:1044C80012AD12ADF2A4D2A4B1A4B1A4B1A4B1A406
:1044D800D1A4B0A4909CB1A413AD74B575B574B54E
:1044E80054AD74B5B5B5D5BDF6BDF6BDD6BDD6BD12
:1044F800D5BDB5BDB5BDB5B5B5B5B5BDB5BDD5BDF4
:10450800B5B5B5BDB5BD95B574B574B553B533ADD1
:1045180033B5F1AC12AD32ADF1AC11AD31B5F0AC93
:10452800AFA4EC8B2A73A85A674A2742283A283A3C
:10453800A631A629073A083A8729662187296629D4
:104548008629A731083AA731A729EB52F8B5BBCE7F
:104558002B83CA7A886A0662444981282018001089
:1045680084394B6B2E846F8CD194F29C12AD12A5BA
:10457800F2A4F2A4D1A4B19C909470949094D19C8C
:1045880013A5F3A4F3A4108C719C75BD8D7B0F8CBF
:104598000F94AE8B8539C220E218E220C220075260
:1045A8000B736D8BB1B4F2B453BD94B553A573A519
:1045B80012AD32AD12AD12AD12AD12AD12AD12ADDB
:1045C800F1A4D1A4D1A4D1A44F944F94B0A42E9413
:1045D8004F9C0E94709C909C909C73B5B5BD74AD27
:1045E80094B594B594B5B5BDF6C5F6C5D5C5B5BDF4
:1045F800D5BDB4BD94B594BD94BD95BDB5BDB5BD8F
:10460800B5BD94B574B574B574B553B553B553B554
:1046180053B532AD12AD52B551B511B511B510B58E
:104628008F9C0D8C4B738852274A6852684AE64122
:10463800C6318529A629C73129422942C831872987
:10464800862986216521C731283A0C5BF8B5BACE90
:104658002B83EA7AA972686AC65923416020001040
:1046680043310A6B0E846F8CB094D19CF2A4D1A410
:10467800F2A4F2A4D19CB19C909470949094D19C93
:1046880013AD13AD13AD719C519CF3ACAD83CE8BC0
:104698008D83CA6AA541A118C2188110C22023318E
:1046A800275248620F9CD1B412AD12A532A5339D92
:1046B80012AD12AD12ADF2ACF1A412AD12AD12AD45
:1046C80012A5D1A4B1A4B1A490A4909CED8B0E9492
:1046D800AD8BEE93EE8B0E94909C53AD53ADB5B568
:1046E80094B574AD94AD94B5B5BDD5C5D5BDB5BDBE
:1046F800B4BDB4BD94B594B594B595BDB5BDB5BDBF
:1047080094B574B553B574B573B553B553B553B5BE
:1047180053B532AD32B552B531B511B5F0ACD0ACF8
:104728006E9CCC8309638852274A07420742E639C0
:10473800073AA63186296629C731293A293A093A1A
:10474800862986298629A629083A307C59BE9AC620
:104758004B832B7BEA7AC972886AE6590339602051
:104768002331EA620E84708C9094D19CF2A4D2A476
:10477800F2A4F2A4D19CB19C909470949094B19CB2
:1047880013AD34ADD3AC92A4EF8BEF8B4C7B4C7B49
:10479800AE8BCA6A0752A11881106010C21823296B
:1047A8000752C651AD8BF2B4F2AC12A533A5329DB7
:1047B80012AD12AD12ADF1A4F1A412AD12AD12AD4D
:1047C800B1A4F2A4B1A4709C4F9C4F9CEE8BAD8B0E
:1047D8008D8B4C834C83AD83AD834F9412AD94B5D0
:1047E80094B574AD74AD74B594B5B5BDD5BDD5BD2E
:1047F800B4B594B594B594B594B595B595B595B546
:1048080074B574B553B553B573B553B553B553AD06
:1048180053B553AD32B532B511B510B5D0AC8FA480
:104828004E94CC83C95A6852484A07420742C6394F
:10483800C631C631C6318629A729C831A729872993
:1048480087298621C729A629694255A57AC69AC605
:104858008B834B832B830A7BEA7A896AE651443936
:104868006439EA6A2F8C70949094D19CF2A412A5B2
:10487800F2A4F2A4F19CD19C909470947094919CB1
:10488800D2A4F3ACB2AC92A4109CCE934C834C83CC
:104898006D83CA6AA541A118032185316431685224
:1048A8004B73A96AAD8BD2AC12B533AD53AD32A5FB
:1048B80012A512AD12AD12A512AD12AD12AD12AD08
:1048C800F2A4F2AC909C90A40F94EE8B90A4AD8BC4
:1048D8008D8BCA72CA722B7BCA6A0B6B919C54ADC2
:1048E80094B594B594B594B594B5B4B5B5BDD5BDE6
:1048F800B4B5B4B5B4B594B594B594B594B594B508
:1049080094B574B574B574B574B573B573B573B53A
:1049180053B553B552B531B510ADF0ACAFA46E9CDC
:10492800EC8BCC7BA85A674A6852484A0742A631A2
:10493800C631C631C631A629A729C73187296629B4
:1049480086298629C7296521CB52F7B59AC69AC602
:10495800AC838C836B834B832B830A7B896A275AAE
:10496800C649EA6A0F8C70949194D29CF2A4F2A47E
:10497800129DF29CF19CD19CB0946F947094709CA1
:10498800B1A4D2AC91AC51A430A48E938972496A77
:104998002C7BEB722852643103218531A5312B6BB6
:1049A8002F94CD8B0E94B1A412AD33AD12A5129DE8
:1049B80012A512AD32AD32AD32AD32AD12AD12AD7F
:1049C800F2A4B1A4B1A491A4EE8BCA6AAE8BCE8B2B
:1049D800EB8228622762AA6AA96A27520F8C74B5EB
:1049E80074B594B594B594B594B594B5B4B5B5B556
:1049F800B4B5B4B594B594B594B594B594B594B527
:104A080094B594B594B594B594B593B573B573B599
:104A180053B553B532B511ADF0ACF0ACAFA42D948D
:104A28008B7B6B73A85A474A484A0742E741C63905
:104A3800C6318529A629A731C731A729662166214C
:104A48008621A6296521A629CE6B59BEBACE9AC65B
:104A5800CC8BAC8B8C838C836C8B4B830A7BCA721C
:104A680068620B730E8C7094B19CD29CD29CD29CC1
:104A7800F29CF29CF19CF19CB09C909C709C909C48
:104A880091A491A451A4109C50A40FA4EB82AA72E3
:104A98002C832C7B0B73074A2429242907428C7BFF
:104AA800919C90A4709CB0A4D1AC12ADF2A432A594
:104AB80012A533AD53AD53AD53AD33AD33AD12ADD8
:104AC800D1A4919CB1A4509CB1A4CE8B4C7BEF9304
:104AD800CA7A8551654948620752A6492F8C54B550
:104AE80074B574B594B594B594B594B594B594B5B6
:104AF800B4B5B4B5B4B594B594B5B4B5B5B5B5BD9C
:104B080094B594B594B594B594B594B573B573AD9F
:104B180053B533B532B511B5F0ACD0AC8FA40D9404
:104B28006B7BE9628852474AE741A631A6310842C1
:104B3800A631652185298629A72986294521652148
:104B48008629652165214D63B6AD99C69AC6BACE48
:104B5800EC83CC83AC8BAC8B8C8B8C8B6B834B8337
:104B68000A730B73CD8B4F94919CD1A4D19CD29C8A
:104B7800F29CF19CF19CF19CD09C909C909C909C08
:104B880091A471A4309CCF93EF9BAE93EA7A07620D
:104B9800AA72AA726962E749074A484A2B6B2F8CA6
:104BA800B19CF1ACB0A4D1ACD1A4F2AC12A553AD78
:104BB80033AD53AD53AD53AD53AD33AD33AD12AD8E
:104BC800F2ACB19C709C719CB5C595BD8D836D7B15
:104BD8008D9386514441AA6AC6490752D2A454B556
:104BE80074B594B595B594B594B594B594B594B594
:104BF80094B594B594B5B4B5B4B5B5B5B5BDB5BDB2
:104C080094B594B594B594B594B594B593B573AD7E
:104C180053B532AD32AD11B5F0ACCFAC4E9CCC8BA8
:104C28004B73885A474A0742A63185316529C739E7
:104C3800C63165294521441945218629A729083205
:104C4800C7294521283A75A5DACEBACE79C6BACE93
:104C5800ED83CC83CC83CC83AC8BAC8B8C8B8C8B53
:104C68006B830A736C83EE8B5094B19CB19CF29C5D
:104C7800D19CD19CF19CF1A4D09CB09C909C90A418
:104C8800709C70A4509C309CEF93AD930B7BA5490E
:104C9800C651CA72695AE649685289520A63508CE9
:104CA800B19CD1A4B0A4F1ACB1A4F1A412AD32ADC1
:104CB80033AD33AD53AD33AD33AD33AD13AD12A515
:104CC800D19CD2A4B19C13A5B29CCE83074AE741DC
:104CD8000F9C896AA6492B7B695A0B6B54ADB5BDED
:104CE80094B595B595B594B594B594B594B594B572
:104CF80094AD94B594B594B5B4B5B4B5B4B5B4B5EC
:104D0800B4B5B4BDB4B594B594B5B4B594B573B5EC
:104D180053B532AD12B512B5F0ACAFA42D94AC8337
:104D28002A7347520742A5316529A63145214529ED
:104D3800852965296521441925196621652186215A
:104D4800C729C7292C5B38BE79C6BACE9AC69AC677
:104D58004A6BAB7BCC83AB838B83CC8BCC8B8C8328
:104D6800AC8B6C832A732B73EE8B7094B19CD19CA3
:104D7800B19CD1A4F1A4F1A4D0A4B09CB0A4B0A4D7
:104D880090A491A4709C70A4309C2F9CAD8BC549B5
:104D980024410B7B485AA541074A07424C6BB19CFA
:104DA800F2A4D1A4B0A4D1A4D1A4F1A412AD53AD5E
:104DB80034B533B554B553B533AD33AD33AD12A5B2
:104DC800F2A49094B19C0E8407422321A631A63107
:104DD8006C830B7307524C73EA6A2F8C74B574ADED
:104DE80095B594AD74AD94B594B574B594B594BDBA
:104DF800B4B574AD73AD74B594B594B5B4BDB4B56C
:104E080094B594B5B4B594B594B5B4BD94B553AD53
:104E180053B532B532B532B5AFA42E940D946B7B31
:104E28000A6B4752A639A631C639C631863166297A
:104E38008529442144194521452145218621A62952
:104E4800C62907327184BACE79C6BACEBACE9AC606
:104E58000129264A2A6B8B7B8B7B8C83AC8BAC8B92
:104E6800AC8B6C832B7B2A736C7B2E8CB09CD19C77
:104E7800B19CD1A4D1A4B0A4B09CB09CB0A4909C87
:104E8800B1A4B1A4709C709C4F94509C2F94E96A73
:104E980064416862C649854148522B6B4F8CF2A425
:104EA80032ADD1A4B09CB09CF1A412AD33AD53ADDA
:104EB80054B554B554B553B533AD33AD33ADF2A491
:104EC800D19CF29CB194CD73C5396008E639073A94
:104ED800EA6AAD838541CA62AD7BD29C74ADB5B533
:104EE800B5B595B594B594B594B594B574B594BD68
:104EF80094B573AD53AD74AD73AD94B594B594B525
:104F080073B594B5D5BDD5BDB4BD94B574B553AD21
:104F180053B553B532B5F1ACD0AC2E9CED8B4A737A
:104F2800A85A4752C639C739C63166296629452164
:104F3800231904194521452125198629C7316521D9
:104F48008629AA4A75A5DACEBACEBACE9AC69AC624
:104F580020000000A018464A4B736B734B738C8378
:104F6800AD8B8C8B8C832B7BE96A2A730E8CB19C5E
:104F7800919CB19CB09C909C909C909C909C909C87
:104F8800909C91A4709C709C4F944F942F946B7B31
:104F9800475A6441A2286539EA620F8CF2A412AD1F
:104FA800F2A4B09C909CB09C12A533AD53B554B5F7
:104FB80074B554B554B553B513AD33AD12ADF2A4B1
:104FC800D19CF2A490944F840A5B842985312321D3
:104FD8000B6B0E8C8539EA620E84F29CB5B594B5DC
:104FE800B5B594B594B594B594B574B574B574BDA8
:104FF80074B553AD53AD53AD53AD53AD73B573B530
:1050080094B594B5B4BDD5BD94B553B553B553B5A2
:1050180032AD53B532B5D1ACD0AC0D948B832A7375
:105028002752074AA639A631A631452166294521C6
:105038002419452145214521652186298629862966
:105048006521AE6B79C6DACEBACEBACE9AC69AC602
:105058000000200820080000E220885A6C7B6B7B47
:105068004B7B6B7B8C836C830A73885A0A6B2F8CFF
:10507800709C909C909C909C6F9C6F9C6F9C6F9C6C
:10508800709C919C709C909C709C4F942E8CCC83AF
:105098000B73A541233947528D7B909CD2A4B1A4B0
:1050A800909C909CD1A4F1A412AD53AD74B574B585
:1050B80075B554B554B553AD13AD12AD12A5F1A4E1
:1050C800D19CB19C9094F19C12A5B19406422321E5
:1050D800CE838C7B64312B6B0E84F29CB5B5B4B552
:1050E800B4B594B594B594B574B574B573B574B5D1
:1050F80074B553AD53AD53AD33AD33AD53AD53ADBF
:1051080073B573B594BD94BD73B553B553B533AD8D
:1051180032B532B5F1ACF1AC8FA4ED8B0A73A8624D
:10512800074AA53965294529662966294521452162
:1051380085214521251945218729E831C73186214F
:10514800283AF394BACEBACEBACE99C69AC69AC6B7
:10515800000000000000000000006010A539EA62AD
:105168002B736C7B4B7B4C7B4C7BA962885A4B73B3
:105178002F8C7094909C909C6F9C6F9C6F9C4F940C
:105188004F9C709C2F942F944F942F942E8C2E8C80
:10519800AC834B7B6C7BAD830F94919C909C50941B
:1051A800909CB1A4F2AC32AD33AD33AD53AD74AD18
:1051B80074B554AD54AD53AD33AD12AD12ADF1A4C9
:1051C800B09CD19C909C4F94D1A4F2A46852685290
:1051D80091A40A6B44314C735094F2A433A5B4B52E
:1051E80094B594B594B574B573B573B573B573B513
:1051F80053AD33AD33AD53B533AD32AD32AD32AD62
:1052080012AD32AD53B573B573B574BD53B512ADA8
:1052180053B5F1ACB0A411B56F9CED8BC96A064AC1
:10522800074A85316531242125216629041925215C
:105238006521041925198629C729293A4942C72908
:10524800EF7358BEBACEBACEBACE9AC69AC69AC626
:105258000000000000002000000000002008A11845
:10526800E649A962EA722B7B8D834C7BCA62CA62CB
:10527800CD832F8C709C909C6F9C6F9C4F9C4F94FF
:105288002F942F940F940F942F942F940E944F943F
:105298002E944F94909C709C509C50944F94709C6A
:1052A800B1A4D1A4F2AC12AD53AD74B574B574B554
:1052B80054AD34AD53AD53AD33AD12AD12ADF1AC09
:1052C800B0A4B0A44F9CAD832B73E6490752CE839C
:1052D8000F9C0752A6498D83EE8B919C12A574AD45
:1052E80074AD94AD94AD73AD73B573B573B553B573
:1052F80033AD13AD33AD33AD12AD12AD12AD11AD4B
:10530800F1A411AD12AD12AD33B574BD74BD33B592
:10531800F1ACB0A4D1ACF1AC0D948C83A862E64991
:10532800C6416531A6314529252166210519462141
:105338004521652145216621C731A729293A8E6B68
:10534800B6ADFBD699C6BACEBAC69AC69AC69AC69A
:10535800010001080100000000000000000000003A
:105368000008C220A541285AEA726D836C7B0B7332
:105378006C73CE834F946F946F9C6F9C6F9C2F942B
:105388002F942F94509C509C4F9C2F9C2F942F9C73
:105398008F9C4F944F94709C4F9C0F942F9C90A47B
:1053A800B1A4D1A4F2A412AD53AD74B594B574AD43
:1053B80054AD33A553AD53AD33AD12ADF2ACD1AC52
:1053C80090A46F9C2F9CEE93A96A4339CA6AEE9306
:1053D800696A654148626C836C7B4F9433AD53AD09
:1053E80073AD73AD73AD73AD53AD73AD73AD53ADF5
:1053F80033AD12AD12AD12AD12AD12AD12ADF1ACAE
:10540800F1ACD1A4D1A4D1A4D1A412AD53B533B574
:10541800B0A4B0A4F1AC4E9C8B830A736762E649D2
:1054280044314431452966294621252146216621F2
:1054380024196621452146218729C7316E63D7B5CE
:1054480079C6DACE99C69AC6BAC69AC69AC69AC60E
:105458000100010001000000000000000000000041
:105468000008000800082018E33089628D836D7BEE
:105478000B6B8C7BEE832F944F94709C4F9C2F94D6
:105488000E94EF932F9C0F940E940F940E942E9CD1
:105498004E946F9C6F9C709C2F940F9470A4509C9A
:1054A80090A4D1AC12AD33AD33AD54AD74AD74AD81
:1054B80074AD33A553AD53AD33AD12ADF1ACD1A43A
:1054C80090A490A44FA42F9C0A7BEA72CE93AA7250
:1054D800075A89724C834C7BCE8B91A433AD53AD64
:1054E80033AD53AD53AD53AD52AD53AD53AD52ADD6
:1054F80033ADF2ACF2AC12AD12AD12AD12ADF1ACEF
:10550800F1ACD1A4B0A4B1A4909C90A4D1A4F2AC65
:1055180032B512ADD0AC4B7B2A7BE96A265264398E
:10552800E2282429C31825212521E4184621051934
:105538000419C3106621662125192D5BF8B5BBCE69
:10554800DBCE79C6DACE9AC69AC69AC69AC69AC6E3
:10555800000020080000000000000000000000001B
:105568000000000000000000000061086529684A8A
:105578002B7B4B7B4B7B8C83ED934E9C4E942D94D5
:105588002D942E8C2E8C2E8C2E8C0F8C2F8C508C38
:105598002F9C2F944F9C6F9C4E9C2E942E948FA4DE
:1055A800B0A4D1AC11AD12AD12AD53B554B553ADD5
:1055B80073AD53AD32AD32A512A511A511A5F1A455
:1055C800F2ACB1A4D2AC509CCE8B2F9C2F9C8C8B70
:1055D800AD8BCD8B8C83AC7B2F8C12A553AD12A5D4
:1055E80033AD12A5F2A412AD32AD33B512ADF1A4AC
:1055F80011ADF1A4F1A4F1A4D1A4F1ACF1ACD1ACFA
:10560800B1A4B0A46FA44F9C6FA46FA44E9C8EA4A9
:10561800AFAC6E9C6E9C096B264AC5418431032150
:10562800E318C2102419041904190419E3104419C1
:105638000419452103198521AE6BB6AD9AC6DACE99
:105648009AC6BAC6BAC6BAC69AC69AC69AC69AC6F2
:105658000000000000000000000000000000000042
:1056680000000000000000000000000000004008EA
:10567800A1208541895A2B73AC83CD83ED8B2D8C6A
:105688000D8C0D8C2D8C2E8C0E8C0E8C2F8C2F94BB
:105698002F940E942F9C4F9C4F9C4F9C4E9C4F9C3C
:1056A8006F9CB0A4F1AC12AD32AD53AD33AD33AD98
:1056B80033AD33AD12A512A511A511A5F1A4F1A41E
:1056C800D1A4919CD2A4919C2F9490A490A42E94A0
:1056D800CD8BCD8B0E8C4F94B09C12A512A5F29C4D
:1056E80012A512A5F2A4F2AC12AD12ADF1ACF1A460
:1056F800F1ACD0A4B0A4D0A4B0A4B0A4B0A4709CC1
:1057080090A46F9C4F9C6F9C6FA44E9C2D9C2D9CCD
:105718002D940D948B834752633102214429232110
:10572800C210C210031144194419041944198621DE
:10573800C3104521283ACF73F7B5DBCE9AC679C690
:10574800BAC6BACEBACEBAC69AC69AC67AC67AC601
:105758006008611061104008000000000000210886
:105768000000000000000000200000000000000011
:105778000000000040080221064AEA628C7BED83A3
:105788000D8C0D8C0D8CEC8BCC8BED8B0D8C0E94C5
:105798002F942E942E940E942E944F9C6F9C6F9C55
:1057A8004F9C909CD1A4F2A412AD13A513A513A5E8
:1057B80013ADF3ACF2A4F2A4F1A4F1A4F1A4F1A402
:1057C800D1A4B19CF2A4B19C909CB19CB09C6F9464
:1057D8000E942E94709CD1A4F1A4F1A4D19CD1A4D0
:1057E800D1A4D1A4D1A4D1A4B0A4B0A4B0A4D0A46D
:1057F800D0A48F9C8F9C8F9C8F9C6F9C6F9C4F9C80
:105808006F9C4F9C4F9C4F9C2E940D942D942D9CD7
:105818002E94AC83875A83390221E218442903194C
:1058280081080319031945192419041965216521EB
:10583800A6298D63349D58BEDBCEBACE99C6DACE82
:10584800BAC6BACEBACEBAC69AC69AC69AC69AC6C0
:105858006010611061104010200820082008000026
:105868000000000000000000000000000000200010
:1058780000000000200000002000811084318852C0
:105888006B73AC7BCC83AC83AB83CC8BED930D94E7
:10589800EE932F942E942E942E940E942E9C2E9448
:1058A8006F9C6F9C909CD1A4D2A4F29C12A513A5C6
:1058B800F3ACF3A4D2A4D2A4D2A4D1A4D1A4F1A4C9
:1058C800D1A4D1A4F2A4D19CD19CD09C90948F94C3
:1058D80090A490A490A4D1A4D1A4B09CB09CB09C56
:1058E800B09CB0A4B0A4B0A4B0A4B0A4B09CB0A420
:1058F8008F9C6E9C6E9C6E9C4E942E944F9C4F9CDD
:105908002F940E942E942E940D940D94ED8BAC83BD
:105918004B73885A43318018C1184429A53123197B
:105928002419652165216521452124198629C73156
:10593800928C18BEFBD6DACE9AC69AC6BAC6BACE2A
:10594800BAC6BAC6BAC6BAC6BAC69AC69AC69AC6AF
:10595800601040108118A11861104008200800004C
:10596800000000000000000000000000000000002F
:1059780020000000000000002000000000002008B7
:105988004331064AC9622A736B7B8B83AC83AB8332
:10599800CD8BEE8BCD8B0E940E940E944F9C6F9CFA
:1059A8004F9C6F9C909CB19CB19CD19CD29CF29CCA
:1059B800D3A4D2A4D2A4D1A4D1A4D1A4D1A4D1A433
:1059C800D19CD19CD19CB19CD19CD19C8F94D09CD2
:1059D800B1A4B0A490A4909C909C909C909C909C06
:1059E8006F9C6F9C6F9C6F9C6F9C6F9C6F9C4F947F
:1059F8004E9C4E9C4E9C2E940D8C0E940E940E94A0
:105A0800EE8BCD8BCD8BAC83AC838C83096B26520C
:105A180063310229C118A1184329E73985290319D7
:105A280024192419A629A6298621283ACF6B96A5D8
:105A3800BACEDACEBACE9AC6BACEDBCE9AC69AC655
:105A4800BAC6BAC6BAC6BAC6BAC69AC69AC69AC6AE
:105A58002431C2208118A118A1188010601060108C
:105A6800000000000000000000000000000000002E
:105A7800000000000000000000000000000000001E
:105A8800000020086010A1184331064AE9626B7BC8
:105A9800AD83CD83AD830E942F94EE930E94CE8B6D
:105AA8000F944F9C709C909C909C9094B094B09450
:105AB800B29CB19C919C909C909C909C909CB09C1A
:105AC800909C909CB09C909CB09CB09C9094B09CF6
