:020000040800F2
:100000000050002021020008270200082B020008EF
:1000100043020008470200085F02000800000000D9
:10002000000000000000000000000000770200084F
:100030007B020008000000007F0200085107000852
:100040009102000891020008910200089102000844
:100050009102000891020008410600089102000880
:100060009102000891020008910200089102000824
:100070009102000891020008910200089102000814
:100080009102000891020008910200089102000804
:1000900091020008910200089102000891020008F4
:1000A00091020008910200089102000891020008E4
:1000B00091020008910200089102000891020008D4
:1000C00091020008910200089102000891020008C4
:1000D00091020008910200089102000891020008B4
:1000E000910200089102000891020008000000003F
:1000F0000000000000000000000000000000000000
:1001000000000000000000005FF808F100B583B0B7
:1001100000F0DEF8304B314A1360314A1360314B46
:10012000314A32498B4204D21168196004330432D7
:10013000F7E72A4B1A682E4B9A4200D0FEE7284B6D
:100140001A682C4B9A42F9D1234B2B4A13602B4A45
:1001500013602B4B02E000221A600433294A9342B9
:10016000F9D3254B1B6813B9244B1B6803B1FEE779
:1001700000F0BAF8694601A800F0A2F8224C234B1F
:10018000E41AA4100025AC4214DC214C214BE41AE3
:10019000A4100025AC4213DC0099019800F0ACFBE0
:1001A00005461D4C1D4BE41AA410002C0EDC2846FD
:1001B00000F084F8154B53F8253098470135E2E7F5
:1001C000144B53F8253098470135E3E7013C134BB6
:1001D00053F824309847E8E7BABADECA0000002096
:1001E00020000020000000204C090008240000200E
:1001F00078563412325476982400002004010020EE
:100200002400002008010020BC020008BC020008F5
:10021000BC020008BC020008BC020008BC020008C6
:1002200008B5FFF773FF00BEFEE71EF0040F0CBF1A
:10023000EFF30880EFF309807146124A104700BEC1
:10024000FEE700BEFEE71EF0040F0CBFEFF30880D0
:10025000EFF3098071460C4A104700BEFEE71EF01E
:10026000040F0CBFEFF30880EFF309807146074AD3
:10027000104700BEFEE700BEFEE700BEFEE700BE80
:10028000FEE770473F0200085B02000873020008A7
:0402900000BEFEE7C7
:100294004C09000800000020240000204C0900083C
:1002A40000000000000000002400002008010020DD
:0802B400000000000000000042
:1002BC00FEE7000001230360014B0B60704700BF99
:1002CC000400002008B500F073F8024A024B9A6053
:1002DC0008BD00BF0000000800ED00E008B500F00C
:1002EC008FF808BD82B00023019300932C4A136849
:1002FC0043F4803313602A4B1B6803F400330093E0
:10030C00019B01330193009B1BB9019BB3F5A06FBB
:10031C00F1D1234B1B6813F4003F06D0012300934B
:10032C00009B012B04D002B0704700230093F7E729
:10033C001C4B1A6842F010021A601A6822F0030271
:10034C001A601A6842F002021A60A3F580535A68C8
:10035C005A605A685A605A6842F480625A605A6805
:10036C0022F47C125A605A6842F4E8125A601A68F5
:10037C0042F080721A600A4B1B6813F0007FFAD0AF
:10038C00074B5A6822F003025A605A6842F0020284
:10039C005A60034B5B6803F00C03082BF9D1C2E7DE
:1003AC00001002400020024008B5FFF79BFF08BD7B
:1003BC0008B5104B1A6842F001021A6059680E4ACF
:1003CC000A405A601A6822F0847222F480321A6051
:1003DC001A6822F480221A605A6822F4FE025A60CB
:1003EC004FF41F029A60FFF7DFFF044B4FF00062DF
:1003FC009A6008BD001002400000FFF800ED00E01C
:10040C001F4B5B6803F00C03042B15D0082B17D083
:10041C001BB11C4B1C4A1A6002E01A4B1A4A1A6098
:10042C00174B5B68C3F30313184AD35CDAB2154954
:10043C000B68D3400B607047124B134A1A60EFE7FE
:10044C000F4A53685268C3F38343023312F4803F5C
:10045C000AD00B4A526812F4003F0BD00C4A02FB34
:10046C0003F3084A1360DBE7094A02FB03F3054A6E
:10047C001360D5E7044A02FB03F3024A1360CFE78B
:10048C00001002401C00002000127A000C0000201A
:10049C0000093D0010B4012824D018B1022841D025
:1004AC0010BC7047072910D90F29F9D8A1F10804FD
:1004BC00E4B2A4000F23A3402A48016821EA0303F5
:1004CC0002FA04F119430160EAE789000F2303FAE9
:1004DC0001F0254C236823EA000302FA01F11943C9
:1004EC002160DDE7072910D90F29D9D8A1F108001F
:1004FC00C0B280000F2383401C4C216821EA030307
:10050C0002FA00F119432160CAE789000F2303FAAC
:10051C0001F0174C236823EA000302FA01F1194396
:10052C002160BDE7072910D90F29B9D8A1F108031B
:10053C00DBB29B000F2098400E4C216821EA000092
:10054C0002FA03F101432160AAE789000F2303FAA1
:10055C0001F0094C236823EA000302FA01F1194364
:10056C0021609DE70408014000080140040C014093
:10057C00000C01400410014000100140012818D06B
:10058C0010B1022829D07047012A0AD0002A2FD195
:10059C00012303FA01F11B4A136823EA01031360D8
:1005AC007047012303FA01F1164A13680B431360D9
:1005BC007047012A09D0DAB9012303FA01F1124A72
:1005CC00136823EA010313607047012303FA01F156
:1005DC000D4A13680B4313607047012A09D03AB9CE
:1005EC00012303FA01F1094A136823EA010313609A
:1005FC007047012303FA01F1044A13680B4313609B
:10060C00704700BF0C0801400C0C01400C1001405D
:10061C00044B1A6842F001021A60DA6842F00102D7
:10062C00DA60704700040140014B1860704700BF4E
:10063C002C00002008B5044B1B689847034A5369EB
:10064C0043F00103536108BD2C000020000401405D
:10065C00014B024A1A6070470CED00E00005FA05E8
:10066C001F2809D93B2806D82038C0B2012303FA29
:10067C0000F0044B18607047012303FA00F0024BA2
:10068C001860704704E100E000E100E0034B4FF418
:10069C0080321A60043301221A6070470010024045
:1006AC001F281CD801280BD010B1022810D070477D
:1006BC000B480368012202FA01F1194301607047EB
:1006CC0008480368012202FA01F1194301607047DE
:1006DC0005480368012202FA01F1194301607047D1
:1006EC00141002401C10024018100240014B002252
:1006FC001A60704710E000E010B40B4B1A6822F03F
:10070C0001021A6000249C6058601A6842F00102D1
:10071C001A60064A1160064A14701A6842F0020206
:10072C001A6010BC704700BF10E000E030000020E1
:10073C0034000020024B58689B68C01A704700BFF9
:10074C0010E000E008B50A4B1B785BB9094B1A683E
:10075C0022F002021A601A6842F001021A600022AA
:10076C005A609A60044B1B689847024B1B6808BD83
:10077C003400002010E000E03000002038B50E4BB3
:10078C001B7883B10D4C2578EDB2FFF7D3FF0C4BE2
:10079C0043F825000B490C48FFF7AEFF23780133D3
:1007AC00DBB2237038BD07490748FFF7A5FF024BA2
:1007BC0001221A70F6E700BF02010020010100209F
:1007CC00380000206908000840420F0008B5224B91
:1007DC001B78DBB2182B1DD00AD8082B20D00C2B81
:1007EC0012D0B3B9002202211046FFF7C7FE10E069
:1007FC00452B21D0522B19D0422B0AD10122032197
:10080C000020FFF7BBFE04E0012211460020FFF799
:10081C00B5FE08BD002201211046FFF7AFFEF8E738
:10082C00012202210020FFF7A9FEF2E7002203219A
:10083C001046FFF7A3FEECE7002201211046FFF75C
:10084C009DFE002202211046FFF798FE0022032194
:10085C001046FFF793FEDCE70001002008B51F4BA4
:10086C0000221A701E4B1A6842F20F739A422DD94D
:10087C001B4B1A6843F2B0639A4227D8002309E055
:10088C00012202FA01F11548027822EA01020270F3
:10089C000133DBB2072B17D8194603F11100104AAC
:1008AC0052F82020B2F5FA6FEAD30D4A52F8200024
:1008BC0040F6FC029042E3D801229A4007480178A6
:1008CC001143C9B20170E3E7FFF780FF0023054A2B
:1008DC001370034A1360044A137008BD0001002012
:1008EC0038000020020100200101002008B5FFF7AC
:1008FC00CDFE02210846FFF7D3FE04220021084654
:10090C00FFF7C8FD022201210020FFF7C3FD0222E0
:10091C0011460020FFF7BEFD022203210020FFF745
:10092C00B9FD0648FFF780FEFFF772FEFFF790FE59
:10093C000620FFF795FEFFF7D9FEFEE789070008B2
:10094C00785634122800002000000000000000003F
:10095C0000000000010203040607080900A24A0473
:04096C0032547698F3
:040000050800010DE1
:00000001FF
