:020000040800F2
:100000000050002021020008270200082B020008EF
:100010009D020008A1020008E9020008000000009B
:100020000000000000000000000000003103000894
:1000300035030008000000003903000845090008E6
:100040004D0300084D0300084D0300084D03000850
:100050004D0300084D0300084D0300084D03000840
:100060004D0300084D0300084D0300084D03000830
:100070004D0300084D0300084D0300084D03000820
:100080004D0300084D0300084D0300084D03000810
:100090004D0300084D0300084D0300084D03000800
:1000A0004D0300084D0300084D0300084D030008F0
:1000B0004D0300084D0300084D0300084D030008E0
:1000C0004D0300084D0300084D0300084D030008D0
:1000D0004D0300084D0300084D0300084D030008C0
:1000E0004D0300084D0300084D0300080000000008
:1000F0000000000000000000000000000000000000
:1001000000000000000000005FF808F100B583B0B7
:1001100000F0AAF9304B314A1360314A1360314B79
:10012000314A32498B4204D21168196004330432D7
:10013000F7E72A4B1A682E4B9A4200D0FEE7284B6D
:100140001A682C4B9A42F9D1234B2B4A13602B4A45
:1001500013602B4B02E000221A600433294A9342B9
:10016000F9D3254B1B6813B9244B1B6803B1FEE779
:1001700000F086F9694601A800F022F9224C234BD1
:10018000E41AA4100025AC4214DC214C214BE41AE3
:10019000A4100025AC4213DC0099019800F0EEFB9E
:1001A00005461D4C1D4BE41AA410002C0EDC2846FD
:1001B00000F0E2F8154B53F8253098470135E2E797
:1001C000144B53F8253098470135E3E7013C134BB6
:1001D00053F824309847E8E7BABADECA0000002096
:1001E0008400002000000020ECAF00088800002000
:1001F0007856341232547698880000202C01002062
:1002000088000020300100207803000878030008EF
:1002100078030008780300087803000878030008D2
:1002200008B5FFF773FF00BEFEE71EF0040F0CBF1A
:10023000EFF30880EFF309807146414A10472DE93A
:10024000F04182B004468846124B5E6B9F6B9D6AFC
:100250001B6B13F0020F03D00E4BDB6A002B0CDB81
:100260000D4800F0B5F8CDF800803B4632462946EF
:10027000204600F009F900BEFEE74BF6AB6100F046
:100280007DF90028ECD0034B4FF00042DA6202B057
:10029000BDE8F08100ED00E01013000800BEFEE7AD
:1002A0001EF0040F0CBFEFF30880EFF309807146D6
:1002B000244A10472DE9F04182B004468846084B95
:1002C0005E6B9F6B9D6A074800F082F8CDF8008056
:1002D0003B4632462946204600F0D6F800BEFEE7EF
:1002E00000ED00E0201300081EF0040F0CBFEFF338
:1002F0000880EFF309807146134A10472DE9F04159
:1003000082B004468846084B5E6B9F6B9D6A074827
:1003100000F05EF8CDF800803B4632462946204684
:1003200000F0B2F800BEFEE700ED00E02C1300087C
:1003300000BEFEE700BEFEE700BEFEE7704700001D
:100340003F020008B5020008FD02000800BEFEE7FB
:10035000ECAF00080000002088000020ECAF00088F
:100360000000000000000000880000203001002094
:08037000000000000000000085
:10037800FEE7000008B503460C4A12685AB10B4A5A
:100388001068033323F003030344094A934206D851
:10039800064A136008BD054A06491160EFE700F0F8
:1003A800F5FA0C2303604FF0FF30F3E78C000020D0
:1003B800004C00203001002001230360014B0B603A
:1003C800704700BF040000200FB400B583B004AB31
:1003D80053F8042B01938021064800F009FB0028FC
:1003E80003DD0146034800F037F803B05DF804EB7D
:1003F80004B07047940000202DE9F04385B004460E
:100408000F4643560BB10E461EE0042528462146EA
:10041800ABBE0446384605B0BDE8F08314F9011BAD
:1004280004AA1A4402F8101C0133AB42F6D304AAFA
:100438001344002203F8102C4FF00408E946404604
:100448004946ABBE8046761B002EE3D03546102EBB
:1004580028BF10250023E8E708B5FFF7CDFF08BD42
:1004680008B500F0FDF8024A024B9A6008BD00BFCB
:100478000000000800ED00E008B500F019F908BD1B
:10048800F8B504460D4617461E462748FFF79CFF59
:1004980021682648FFF798FF61682548FFF794FF11
:1004A800A1682448FFF790FFE1682348FFF78CFF15
:1004B80021692248FFF788FF61692148FFF784FF17
:1004C800A1692048FFF780FFE1691F48FFF77CFF1B
:1004D8001E48FFF779FF29461D48FFF775FF1D4C99
:1004E800E16A1D48FFF770FF216B1C48FFF76CFF9E
:1004F800E16B1B48FFF768FF15F0800F0AD115F470
:10050800004F0CD11748FFF75FFF06991648FFF711
:100518005BFFF8BD39461548FFF756FFEFE7314650
:100528001348FFF751FFEDE7F41100080412000823
:10053800141200082412000834120008441200089B
:10054800541200086412000874120008841200088B
:100558009012000800ED00E0A0120008B012000898
:10056800C0120008F0120008F8120008D0120008A3
:10057800E012000883691A888A4201D00020704777
:100588000268033A012A03D80233836101207047C5
:100598000020704782B00023019300932C4A13680F
:1005A80043F4803313602A4B1B6803F40033009331
:1005B800019B01330193009B1BB9019BB3F5A06F0D
:1005C800F1D1234B1B6813F4003F06D0012300939D
:1005D800009B012B04D002B0704700230093F7E77B
:1005E8001C4B1A6842F010021A601A6822F00302C3
:1005F8001A601A6842F002021A60A3F580535A681A
:100608005A605A685A605A6842F480625A605A6856
:1006180022F47C125A605A6842F4E8125A601A6846
:1006280042F080721A600A4B1B6813F0007FFAD000
:10063800074B5A6822F003025A605A6842F00202D5
:100648005A60034B5B6803F00C03082BF9D1C2E72F
:10065800001002400020024008B5FFF79BFF08BDCC
:1006680008B5104B1A6842F001021A6059680E4A20
:100678000A405A601A6822F0847222F480321A60A2
:100688001A6822F480221A605A6822F4FE025A601C
:100698004FF41F029A60FFF7DFFF044B4FF0006230
:1006A8009A6008BD001002400000FFF800ED00E06D
:1006B8001F4B5B6803F00C03042B15D0082B17D0D5
:1006C8001BB11C4B1C4A1A6002E01A4B1A4A1A60EA
:1006D800174B5B68C3F30313184AD35CDAB21549A6
:1006E8000B68D3400B607047124B134A1A60EFE750
:1006F8000F4A53685268C3F38343023312F4803FAE
:100708000AD00B4A526812F4003F0BD00C4A02FB85
:1007180003F3084A1360DBE7094A02FB03F3054ABF
:100728001360D5E7044A02FB03F3024A1360CFE7DC
:10073800001002401C00002000127A000C0000206B
:1007480000093D0010B50A4C23680A4AD25C002112
:10075800084600F069F8236801332360226849F6E7
:100768007B439A4200D010BD00222260FBE700BF05
:10077800140100203C13000808B501220021084696
:1007880000F00CF800F0BEF808BD000008B50249FA
:100798007D2000F0BDF808BD4D070008012815D0E0
:1007A80010B1022823D0704711B1012907D0704732
:1007B8004FF0113303FB02F2154B1A6070474FF0EC
:1007C800113303FB02F2134B1A60704741B1012940
:1007D800EDD14FF0113303FB02F20F4B1A60704753
:1007E8004FF0113303FB02F20C4B1A60704741B112
:1007F8000129DCD14FF0113303FB02F2084B1A60D8
:10080800D5E74FF0113303FB02F2064B1A6070472D
:100818000008014004080140040C0140000C01409C
:100828000410014000100140012814D010B1022822
:1008380021D0704711B1012908D0704716490B68BB
:1008480003F47F43D2B21A430A60704712490B7807
:100858001A430A60704731B10129EED10F490B786C
:100868001A430A6070470D490B6803F47F43D2B2FC
:100878001A430A60704731B10129DED1084B197853
:100888000A431A60D9E706490B6803F47F43D2B2DA
:100898001A430A60704700BF0C0801400C0C014065
:1008A8000C100140034B4FF480321A6004330122CC
:1008B8001A607047001002401F281CD801280BD06E
:1008C80010B1022810D070470B480368012202FAC1
:1008D80001F119430160704708480368012202FAD0
:1008E80001F119430160704705480368012202FAC3
:1008F80001F1194301607047141002401C100240B6
:1009080018100240014B00221A60704710E000E006
:10091800074B58601A6842F001021A60054A1160D4
:10092800054A012111701A6842F002021A607047E4
:1009380010E000E0180100201C01002008B50A4B57
:100948001B785BB9094B1A6822F002021A601A6810
:1009580042F001021A6000225A609A60044B1B6838
:100968009847024B1B6808BD1C01002010E000E0FE
:100978001801002008B5FFF795FF02210846FFF788
:100988009BFFFFF7F9FEFFF701FFFEE7014B186831
:10099800704700BF2000002030B5141E05469BB0EC
:1009A800184605DA8B234FF0FF302B601BB030BDA3
:1009B8004FF40273ADF80C300CBF234604F1FF333B
:1009C800029305934FF6FF7300910491ADF80E3032
:1009D80002461E9B6946284600F072F8431CBCBFBD
:1009E8008B232B60002CE1D00022009B1A70DDE7DE
:1009F80007B5009313460A46014603480068FFF707
:100A0800CBFF03B05DF804FB200000202DE9F04780
:100A18008E6882469E420C469046994637D88A8907
:100A280012F4906F31D00223256809696F1A65693D
:100A380005EB450595FBF3F509F101033B449D42A0
:100A480038BF1D46530530D5294600F035FB06460C
:100A580050B90C234FF0FF30CAF80030A38943F097
:100A68004003A381BDE8F0873A46216900F0B4FA53
:100A7800A38923F4906343F08003A38126613E4455
:100A880026604E466561ED1BA5604E4500D94E4671
:100A980032464146206800F0AAFAA36800209B1B52
:100AA800A36023681E442660DCE72A4600F05EFB4C
:100AB80006460028E2D12169504600F0B1FAC8E79D
:100AC8002DE9F04F9DB003938B8980461D060C4697
:100AD80016460FD50B696BB9402100F0EDFA20607E
:100AE800206128B90C23C8F800304FF0FF30C7E068
:100AF800402363610023099320238DF82930302394
:100B08004FF0010B8DF82A3037463D4615F8013B6A
:100B18000BB1252B3ED1B7EB060A0BD05346324614
:100B280021464046FFF772FF013000F0A480099B80
:100B3800534409933B78002B00F09D8000234FF02D
:100B4800FF32CDE90523049307938DF853301A93A8
:100B58002F46052217F8011B4F4800F02FFA049B77
:100B6800D0B9D90644BF20228DF853201A0744BFB4
:100B78002B228DF853202A782A2A15D02F460020B8
:100B88000A25079A394611F8013B303B092B4DD904
:100B9800B8B10FE02F46B8E73F4A3D46801A0BFA36
:100BA80000F018430490D3E7039A111D12680391CB
:100BB800002A01DB079204E0524243F00203079245
:100BC80004933B782E2B0CD17B782A2B33D1039BB3
:100BD80002371A1D1B680392002BB8BF4FF0FF3372
:100BE80005932E4D03223978284600F0E7F938B1ED
:100BF8004023401B03FA00F0049B0137034304938E
:100C08003978062226487E1C8DF8281000F0D6F97F
:100C1800002838D0234B13BB039B073323F007036B
:100C280008330393099B4B4409936DE705FB023294
:100C380001200F46A6E700230A2519460137059328
:100C4800384610F8012B303A092A03D9002BC8D0AE
:100C58000591C6E705FB012101230746F0E703AB31
:100C680000932246104B04A94046AFF30080B0F130
:100C7800FF3F8146D6D1A3895B063FF536AF099879
:100C88001DB0BDE8F08F03AB00932246064B04A9C4
:100C9800404600F081F8EAE7B7AF0008BDAF0008AA
:100CA800C1AF000800000000150A00082DE9F04750
:100CB80091461F468A680B6906469342B8BF134699
:100CC800C9F8003091F843200C46DDF8208012B1B5
:100CD8000133C9F800302368990642BFD9F80030BB
:100CE8000233C9F80030256815F0060507D104F16C
:100CF800190AE368D9F800209B1AAB4229DC94F85A
:100D080043302268003318BF012392062ED404F121
:100D1800430239463046C047013021D02368E56890
:100D280003F00603042B18BF0025D9F800204FF064
:100D3800000908BFAD1AA368226908BF25EAE5754E
:100D48009342C4BF9B1AED181A344D451AD100209E
:100D580008E00123524639463046C047013003D1E6
:100D68004FF0FF30BDE8F0870135C2E73020E118C9
:100D780081F843005A1C94F845102244023382F843
:100D88004310C4E70123224639463046C0470130A4
:100D9800E6D009F10109D8E72DE9F04301F1430C48
:100DA8000C46097E85B06E291746064698460C9A69
:100DB80000F0B38022D8632936D00AD8002900F081
:100DC800B980582900F0838004F1420584F8421064
:100DD80032E0642901D06929F6D120681368050634
:100DE80003F104012AD51B681160002B03DA2D22B8
:100DF8005B4284F843206F480A2239E0732900F0E7
:100E08009D8008D86F2920D07029DDD1236843F050
:100E18002003236003E0752917D07829D4D17823DB
:100E2800654884F8453055E0136804F14205191DFA
:100E38001B68116084F8423001238CE01B6810F0B5
:100E4800400F116018BF1BB2CFE713682568181D43
:100E58001060280601D51B6802E06806FBD51B88D0
:100E68006F2914BF0A2208225248002184F843102F
:100E78006568002DA560C0F29580216821F0040105
:100E88002160002B3DD1002D40F08E806546082A58
:100E98000BD12368DB0708D5236962689A42DEBF55
:100EA800302305F8013C05F1FF35ACEB0503236160
:100EB800CDF800803B4603AA21463046FFF7F6FEF0
:100EC80001304DD14FF0FF3005B0BDE8F08339480F
:100ED80084F84510136821681D1D1B6815600A06F3
:100EE8000BD5CA0744BF41F0200121601BB9226815
:100EF80022F0200222601022B7E74D0648BF9BB2BD
:100F0800EFE76546B3FBF2F102FB1133C35C05F86A
:100F1800013D0B460029F5D1B9E713682568181D6E
:100F28006169106028061B6801D5196002E06A062D
:100F3800FBD51980002365462361B9E71368191D9D
:100F480011601D6862680021284600F037F808B172
:100F5800401B606063682361002384F84330A7E77F
:100F680023692A4639463046C0470130AAD023684B
:100F78009B0713D4E068039B9842B8BF1846A3E7C1
:100F880001234A4639463046C04701309AD00135D8
:100F9800E368039A9B1AAB42F2DCEBE7002504F105
:100FA8001909F5E7002BACD1037804F1420584F860
:100FB80042306CE7C8AF0008D9AF000810B5C9B215
:100FC80002449042034601D1002303E01C7801301B
:100FD8008C42F6D1184610BD10B5431E0A44914202
:100FE80000D110BD11F8014B03F8014FF7E7884213
:100FF80010B501EB020307D8421E99420AD011F836
:10100800014B02F8014FF8E78342F5D98118D21A4B
:10101800D34200D110BD13F8014D01F8014DF7E797
:1010280038B50546002943D051F8043C0C1F002B65
:10103800B8BFE41800F0D0F81E4A1368104633B958
:10104800636014602846BDE8384000F0C6B8A34283
:101058000BD921686218934201BF1A685B6852185D
:10106800226063600460EDE713465A680AB1A24241
:10107800FAD919685818A0420BD1206801445818A9
:1010880082421960DED110685268014419605A60C2
:10109800D8E702D90C232B60D4E7206821188A42AC
:1010A80001BF116852680918216062605C60C9E775
:1010B80038BD00BF2001002070B5CD1C25F0030508
:1010C80008350C2D38BF0C25002D064601DBA9423A
:1010D80003D90C233360002070BD00F07DF8214A4D
:1010E8001468214691B9204C23681BB9304600F09A
:1010F80063F820602946304600F05EF8431C24D18E
:101108000C233046336000F068F8E4E70B685B1B9B
:1011180018D40B2B0FD90B60CC18CD50304600F0EB
:101128005CF804F10B00231D20F00700C31AD3D08C
:101138005A42E250D0E74B688C4216BF6360136096
:101148000C46EBE70C464968CCE7C41C24F00304C2
:10115800A04205D0211A304600F02EF80130CFD039
:101168002560DBE72001002024010020F8B50746B0
:1011780014460E4621B9BDE8F8401146FFF79CBF5A
:1011880022B9FFF74DFF25462846F8BD00F026F89E
:10119800A0420FD221463846FFF78EFF05460028A9
:1011A800F2D031462246FFF717FF31463846FFF79F
:1011B80037FFE9E73546E7E738B50023054C05462C
:1011C80008462360FFF7D6F8431C02D1236803B111
:1011D8002B6038BD280100207047704751F8043C47
:1011E800181F002BBCBF0B58C0187047537461639D
:1011F8006B206672616D653A0A000000205230204B
:101208003D2020253038580A0000000020523120A7
:101218003D2020253038580A000000002052322096
:101228003D2020253038580A000000002052332085
:101238003D2020253038580A000000002052313265
:10124800203D20253038580A00000000204C52204C
:101258003D2020253038580A000000002050432047
:101268003D2020253038580A0000000020505352F5
:10127800203D20253038580A000000004653522FE0
:101288004641523A0A0000002043465352203D206E
:1012980020253038580A00002048465352203D2067
:1012A80020253038580A00002044465352203D205B
:1012B80020253038580A00002041465352203D204E
:1012C80020253038580A0000204D4D464152203D17
:1012D80020253038580A00002042464152203D203F
:1012E80020253038580A00004D6973630A00000051
:1012F800204C522F4558435F52455455524E3D207D
:10130800253038580A0000005B48617264466175F0
:101318006C745D0A000000005B4275734661756C71
:10132800745D0A005B55736167654661756C745D31
:101338000A000000807F807F807F807F80807F80A0
:101348007F807F807F807F807F7F807F80807F809D
:101358007F807F808080807F807F7F807F80807F8C
:1013680080807F7F807F807F807F807F807F807F7D
:101378007F807F7F8080807F80807F7F807F7F806D
:10138800807F8080807F80807F7F80807F8080805A
:101398007F807F7F7F7F7F7F7F7F7F807F7F808051
:1013A8007F7F807F7F80807F80807F7F807F7F803E
:1013B800807F7F8080807F80807F807F7F7F807F2D
:1013C8007F80807F80807F7F7F7F7F807F7F807F1F
:1013D800807F7F807F7F7F7F808080807F8080800C
:1013E800807F80807F807F7F807F7F7F7F80807FFE
:1013F800807F7F807F7F807F7F80807F7F807F7FEF
:10140800807F7F80807F807F7F807F808080807EDC
:1014180080807E807F7F7E7F7F7B7F7F7E7D7F7FDA
:1014280080828282818383838181817F7F7E7D7DAB
:101438007E7E7D7F80808082827F80807E7C7C7EB5
:101448007C7C7D7E7D7F8083838386858484848085
:101458007F7F7E7B7C7D7C7D7E7E7E81818081829C
:10146800817F807E7D7E7D7D7D7F807F818084837E
:101478008484848281837F7E7C7D7A7A7B7C7C7D78
:101488008081818184838384817F81807D7A7E7B52
:101498007B7E7E7F8085838382848280817F7D7A44
:1014A8007D7B7B7C7E7F7F82848285858482818030
:1014B8007D7D7C7C7C7E7C7D808081818181817F3B
:1014C800807F7E7D7E7F7B80827F8184837F838413
:1014D8007F8081807D807D7C7D7E7E7E7F7E808218
:1014E8008181828181807F7F7E7E7C7D7C7B7E7F07
:1014F8007F808285838585828283827D7F7F7C7CD5
:101508007D7B7B7D7D7D7F838484868784828380C9
:101518007B7B7B7877797A7A7D80828185878784DF
:1015280086868081807C797C7B7A797D7D7D8284CA
:1015380084858887868483807D7C787777787577BB
:101548007C7B7F838386878988888782827F7E7C6D
:101558007C78797A7A7D7E81808587888889868279
:10156800807D7A767672737574797E8083888B8AAB
:101578008C8D878684817C7978767778797C7F8171
:10158800848688888B898884817E78787472727260
:1015980073777B7E8385878A8A8A8A888583817D1B
:1015A8007B7B79797B7D7C7F828484868887888829
:1015B80085807F7B77747371727273787A7F858781
:1015C800898C8C8C898782807E7C7B797B7C7F7FF1
:1015D80080838484868686878685807C7A767574FF
:1015E8007373747476797B8285878C8C8B8B8B85EF
:1015F80081817E7B7B7C7B7F807F7F8283838686E5
:10160800888788837E7A777672727070707177793E
:1016180081888D8F91918E8B86817D7B7A7A7B7C78
:101628007D8080818283848787888888827E7A7398
:101638007371716F6F6E707479828A919496938FBB
:101648008B837D7A79797A7C7D7F80818383838699
:101658008787878783807D7A76757272706E696DE9
:101668007174858D94999A958A8781787B7C797C29
:10167800807F7B80818087888988898582827C7C3D
:101688007A777475706A6761686F818F96A19E9783
:101698008E887F787E7E7B807E79787F7E828C8E36
:1016A8008B89857D7C827F81837E78726C63615AA9
:1016B800666F7D949BA2A29A9387857E797C7679C2
:1016C8007174787B868C938F8C867D7778808487FD
:1016D800887F776E6C63615B627379939DA5A5A023
:1016E8009885837A7373717270797D8191939691DD
:1016F8008B8075797A81868A837A716865635E568C
:101708006D7386A5AAADA39D867A7B6E7174746F7E
:10171800788384959C948D83766A72798694928A6C
:101728007A736567645F4F5E737BAAB4B8AB9C81BC
:101738006C766D71757571748A8D9AA19384736BCB
:10174800627588959E99877470646464583F5D7368
:1017580088BFC7BB9D8E6A6378707576766D829EEA
:101768009DA695796360656F919DA29E9378716E31
:1017780062615C40397287B5D5C69D80755C727BA5
:10178800726F727984ACAB9E8D6B5757727992A643
:101798009E9B927D6E6A63545A324B8599CCCAB629
:1017A8007F7667617B74716D858DA5B99E85695B50
:1017B800516A7D839CABAA9F92685C5A605E5B34D9
:1017C800558EACDECAA467655B6987767472919D95
:1017D800B9B5866950566080838AAAB1AB9C724FAE
:1017E80051616169423B86A7DCD8AC655560638767
:1017F80079746A92ABBCBA83604B5D6982807DA2C2
:10180800BAB99E7044496670704C2B7CADD8DAA189
:1018180060476D718B786A6694BDBEB074554D6F24
:101828007A7F78729EC4BD9361434E78766B3A3B5B
:1018380094BAE2B9824B607D7E84606476BCC1B69E
:10184800885C556C8674716788BBC8A56C514D6DF2
:101858007A674C2285BFDEC78356558C7C7E565CE2
:1018680077BDCDA9835963758D6F65688EC8C3969A
:101878005A525D787857461B98D6D8B3765865A7DC
:10188800786244638BD4CC8C72617E878854597A91
:10189800B1D9AD7448696D7D54432145D9D1CC8AFD
:1018A8006F5F9E9658494685AFD9907C7287917F25
:1018B8005B4179A2DABC8D5A68736F5F3C371FB100
:1018C800CFC2A3817488A75150457E9CC9987A8756
:1018D800868F75613E7A9ECFB79B6E6F716C54444C
:1018E8002333C4BBC1988875A58B4C4F50859DBFC9
:1018F800828D90967D704D4F81A2B7A59A7D8066A6
:10190800694F4D2077B2A6B1928587A35E595A7068
:1019180081A19787A59A8C72695B7B8F90928E8A3A
:1019280077715160395EA79A9B979F89A870575A1B
:1019380077838D8D769CA09573705F7C8F97939439
:1019480087806B5E4E533960B19BA8959B8FA972B7
:101958005B66748C8C8D749A958D6D6F6886959581
:101968008D898A6F684C53227C9C8E9690959AAD8F
:101978006D70758B858E7D7D9F98856C6D6C848E62
:101988008C8D8B8C726D585B424BA17F92898D8DAB
:10199800AA8D6582758F878F7092968E83797D85E3
:1019A8009184847983756B545C3D81867C8E7B90B1
:1019B80090A17F8B81898E8B7C797D7A8684757CDA
:1019C800828B95948685827D796E645A7954796A7A
:1019D80060788E8E90A0879BA49B8B927A80807B68
:1019E8006D7B737F837C7C7E7B7B7863815B777682
:1019F8006B768183859C90949F988F91897F847D55
:101A08007074757D7D7F7B7E7B8274726382707259
:101A1800845D76828D819B818CA09B9190887C8E41
:101A2800807B707B768A7D7D7575767E6965794E5B
:101A3800817570818A8494A8929D998F8D8B807D01
:101A48007E7076767A7D808383837F7F6E705F83F6
:101A58005A73745B7D898F82A3859CA5A3938D8619
:101A68007C8277786F7877867881807D7C767061E4
:101A780082577A735E7D888688A48CA0A29689890D
:101A880085868777776E7E83847B7D76797C707197
:101A98005B875B7C79647B888B86A0829D9D9F8F0A
:101AA8008F817E7D786F727B8A8088838181846D47
:101AB8006E5D677E538D637186927B979889A69D2C
:101AC800958A8C818178726D6D7E837F8D88838500
:101AD8007C6C705A814E76715E89928A89A57FA244
:101AE8009F97869385887E776B6C7782747C8181DB
:101AF8008D8C7A756F608B4C806761838C808FA02A
:101B080089AC9C908B8880867F747576798774857C
:101B18007A7C7982697C6179745A91567D8A8D784C
:101B2800A79294A794908C8E7F7C6B706B7C82823A
:101B38007790818C837A657A5D77704C895A819227
:101B480089779C909BB1958E8D8A8782746B697416
:101B58007F8475887C8D8E886A75537A6C5A854B1C
:101B68007C8C8D87A78797A9919387857F847776C3
:101B78006E747D817E92788B8581788362608342E2
:101B88008361668684839C9C90AE92948B82807AD3
:101B98007278757A7C85798F88858283737D626F88
:101BA800774C8F596A86857CA2998EA892998789E5
:101BB8007F786E796E7480847D8C8A848A827D7445
:101BC8007850845C6B8A587F84848EA0859A96901E
:101BD80093837F7C767D77787981828A90848680EA
:101BE8007C6D7B507C566A86588B8A8390AA8C9D24
:101BF8009A898C8387796F6E747082857E848C8FC6
:101C08008E8B7E787272577F4F6B7B588A83848D58
:101C1800A694AA98918781868070706D7382888651
:101C2800868D8A8D81786971538A536B835289892D
:101C380082879F899D9D949082897D7475756E8138
:101C4800848387908E8C887D6D6D6D547F53787AF0
:101C5800639182848D9A8AA3918D89828581777315
:101C68007076818F848D89898B89766665518A4CD7
:101C78007E745295908A919C7F9E9C938679867AF1
:101C88007C7B726B7D86858A8B8A888E86786E6A65
:101C98004F8355717D578C848D919E88A0928F8C2F
:101CA80080837E777B6F737F7F87878B878684812E
:101CB8006E76518051688959918C868CA2889D973F
:101CC8008B8D7B897E7C7A7B6E7B797A84888A8A05
:101CD80084817A747354845075765A92878D959B53
:101CE80084A29496897F817D7A82767A7E808082AA
:101CF8007F8280807F696F518E537D844F8E888765
:101D08008DA0839F98948F7F867A797A756D7F826C
:101D18008A8A8E8987807E6C6E625C834C89726841
:101D2800978486939588A28C938882867A7879702E
:101D38007A7E82818A8A948588726F5E637E418CFE
:101D48005C6D97898896998AA68A917E8384807823
:101D58007C70777E84838489868B82826B7E5786AB
:101D68005D677E4F89838388A1839F9C8F8D7C8448
:101D7800797A8078778289838B87867F84756E6786
:101D880059864E8F6D628C8388959A81A38D99862A
:101D9800827E7B76807173818783908D888A827634
:101DA8006F7052884B77785B8B88848D9E88A1945E
:101DB800948B7F8A7D7B7A71707F847F858682870A
:101DC8008B727156805A70815587878D879C809851
:101DD80095938F82858585817D7478837E7E8485C1
:101DE8007F867E677159895979765B8F8D898A9646
:101DF8007B9995908A808A84867F7B74828B808287
:101E0800847E83816B674A7B5A72865F8994908B44
:101E1800A08595909086808A8481827A727E82805D
:101E28007C8689818A717157756F558A5577918D2E
:101E3800839B8A8BA1908F7A8B86898082727A891C
:101E480082797C847A887368517773648C6179911C
:101E58009589938287978C917982878F8684767704
:101E680085897C85807D85706C53795D6B7E628207
:101E78008F958F9F8A919089847B7E828580847ECE
:101E8800858B8A7782788378705A627F618A666DDB
:101E9800848F8C918C83A09299827F7884817C76C0
:101EA8007783908B8486798273654C775C73876DB2
:101EB8008B8E928AA07F8D8B8384868482887C8790
:101EC8007B848483788D82807E6C536B77568364A1
:101ED8006D8D988E9C908D9D8E89767676837C7D8F
:101EE8007B808C99868C86807770575B78577E6D5F
:101EF800708C958992978A9B908881867E85797364
:101F0800717C7E8D84828E8D887A6B507E5F6D6F3A
:101F1800607C8F90849D87989D9183847D7E837853
:101F2800787B7F8A847F84867F796D537D6B727618
:101F38006C7D8C91809086929D9282838083847E32
:101F480074787E8B847882898878684D87787177F1
:101F58006979879981878394988F837F8A8B88731F
:101F68006E7E85887F7B818F80645946909F7F6DC8
:101F780078938C946D5C7AA293858A8A9B98795918
:101F88006A898789878B8D8B6B53593D84A58577A3
:101F980092A67B8869587FA1927F948F91806A5A14
:101FA8006D9297979B998A7C6146513C5EB8B18D3A
:101FB8008295807170526999BA9E908F84796E5C0F
:101FC8005780A0ACA1927C7369615A614572CEB00A
:101FD800836B7B70717C6981ADB98C747174777116
:101FE800767F9FB79E79736E6E696B6B74617BBAEF
:101FF8009B7251797B7C907F88A4B28462657179E9
:102008007F878492AE977C727977736F71727161F2
:1020180084A5866B60827A8C927F8A9EA0766D7486
:102028007A7E8380798E9C8F7D797C7D7C747875AF
:10203800745C84A47D6B6185848E857F8A959C6F92
:102048006E7286817E8382919586737C807E76749B
:10205800837C80686B9B88736486887F8B7E828A8A
:102068009D7B6C77847E7784808996967D787F794E
:102078007271797C82826A73A38E756882877E9179
:10208800797D8599796E7F7C7E788380909886713A
:102098007B887A73757F7F78705884AE8E77729557
:1020A800868282707F8D996C7283877D737E799525
:1020B8009A8B6C75887D7876807B7D6F5670AB9730
:1020C80073768F997882747E949A7A608188846F07
:1020D800777A889C917565838478788485817C6813
:1020E800567FB07D6D7C969376846D8799997567D8
:1020F80092898163757D989D73666B9380727A8DE2
:10210800807B73547DB093686992917582738697CA
:10211800A47B68848B8166747C9F9C7D666C8A7DB9
:102128007072858377705E98A9826B6A96858779C5
:10213800798A979F6C6A788E7B737C86A2927B677C
:1021480079837B787587796E5870AB927A638593BB
:10215800888B748088A57E67757F8E7777728C9E52
:10216800967A66808A85757B7E715E509AA68363AF
:102178006C947C8E828188A6A56D64738A78777149
:10218800768F9E987270868F7E707B79765762A75D
:10219800A77B5370887E8A85818CB4A3715F6C811C
:1021A8007777747F8EA3987470838F7D7879716543
:1021B8004479C0A8714F7E817B86818094BE9A6ADB
:1021C8005E767F7474728091A39A7673878F7B7220
:1021D800746E4E3E9BCB9E5F588B7D7A827D81A923
:1021E800C6915B587980717075839AA89672788DBC
:1021F800907A727367423EA0CE984F5E8B81858439
:102208007A81AFCB925759778171687083A2B4995C
:102218006B68909881756B572B58BEC0794675903E
:102228008282857C86BBC27D4964827F7175758791
:10223800A7B890616D928E787568432489DBA94EA2
:102248004E8C8786917F729ECFA8544E6E83797686
:102258007A7A9CBBAD72607B907F716C532358D3A4
:10226800C27247708F7F8B887087CCC5754D647537
:102278007B7B7C7082B5C39B676D7C837E705B3E85
:10228800328AD0A35E4F7D858B927873A1CDAB65E2
:1022980053627685887672A3D0B0735B748989732C
:1022A8004B242AAEE49D4E4776829A926066B9E145
:1022B800A66957546F97926969A3C7B0856160860C
:1022C800977B4F3E2B6AD2BA6E4364868E9B7361AE
:1022D80093CDBC82645463899E7B698ABABF8D5F43
:1022E80056728E89612D1A8CEFB96E3C4B77A1B06E
:1022F800695B98CCC08E62375696A4897D85A0B557
:102308009A5F4C698A86683B1E88E4BF81494264AB
:10231800A4BA776787ADBEA767304D839FA1937C2A
:1023280092B1A0685260758472422686CEB79B55DA
:10233800355AA4BE8F827F90B4B4783F3E668DA98B
:10234800A68C8C938A746B67696B503586BAA4A186
:102358006B4F507E9D929F9292A8AA855F535669B3
:1023680099A5999C957B6A726D6E75633B59B4B457
:10237800A58B4B4B648B979AA08D959F93785E5550
:10238800607CA4AFAE9D7D6460676E74653050B1AB
:10239800C1C89944335597A6A0947F91A9A87E56A1
:1023A800454F76A1B4B5A9856C6867656E603050F5
:1023B800A2B8CFAB563F44739DACA5868997A39628
:1023C8007155435688A4BBB9976D5F616B7E7147A1
:1023D8003B7EA4CBC6754F405A8AA1B09C838289A4
:1023E800958A785751698CBCC8A272514860787E2A
:1023F80052588097CCB98A5639567BA0B2A895888E
:1024080080817E76635E6880ABC6B18A5B4051622C
:102418006C65798292B9AB9674534F608BA8A69F6E
:102428009585837D6F696B707998A8AA95664C48E5
:102438005E63718B8998A59D8F766A696A7E8E978F
:10244800A0918C897B706A6B788B9FA09686674E6B
:102458004B4F5B8A96979B8F918A7D706C798A8B9C
:102468008F8E8C89887F716B6B7791A5A79676562E
:102478004F5051728796A09E8F7A76797C7E8181A3
:10248800889092929185726B676B83939D9D9078EB
:10249800594D4B6281929A959585868075797D7F95
:1024A8007A8387929593867A6F6C75829497917BDD
:1024B800665D565069889BA29B8C7A7F86817E7F59
:1024C8007F848785878385817A76747A8A979591C0
:1024D8007A635651526A8199A1A09277797A868E49
:1024E8008C858584868582877F7B766E76828E97BB
:1024F800878074645C52677689959494887F78792C
:102508008290928D8683888888887A75767A7D7F8E
:1025180083837F7B7569625767768B8C8E968D8BEC
:1025280085878188898E868786828480817C7B7C6A
:1025380083807D787671737267686B74868A898503
:1025480086898791918C888C8688817E7F767C802D
:102558007D7B81818178787C777A797471737A79D7
:10256800777A83878A8C8B8D8A8D8C908B847E7604
:1025780074797C7E747B7E7C868179757D7E83828E
:102588008380787774767A7D81837D828B908E8C38
:1025980086848282827F7B7D7D7C817D7F76797D4A
:1025A80082878486817F7C7D77757775747A7F8250
:1025B800857E7C848B8C89838583828283818480D9
:1025C80077787C858284817C80867E7D7D7877792A
:1025D8007C7B7D76797D8483827E817F7E84828503
:1025E800868686817E82817E8080828788857A78C9
:1025F8007E7E827D77777D817E807A757D807D7E07
:1026080081807D87887F7D82838282807C7F8784AA
:10261800807C848284827C7C787C7D7F7E80817EC5
:102628007C7F807D7C7F8382808382827E7F7D7EAB
:10263800807C7D8089847F817982847D7D7C86828F
:10264800837A777D82857F7C788583807E817E7A98
:10265800868581817F7D7A7E7E7E817F827E7E7D7A
:10266800838682807E797B84837F7B7F817C7F8564
:10267800847D7984828385817B7987837F78797D5E
:102688007D8380807F83857D7D818382807E7D813F
:1026980083827D7F7D81847F7B797E7E8383817D3C
:1026A800807F7E837F7F7E7B7E8381818182837E24
:1026B8007F7D7A828484808288807D78777C7F821F
:1026C8007E7B7B7E818184837E7D7E848082837B0A
:1026D8007E7F827D80847E7F828387837E7D7E7DF0
:1026E800808275747A7A7F8283858382827E8280F3
:1026F8007E7C7E848488827C7A7C7C7F80828284D3
:102708008682827F7B73747580847E80827E7F84DC
:10271800817E8181828789857E7F7D7C7C807E80A9
:102728007E7D8483837E7A7A787A84857E7E7C78BF
:10273800818687827E7B7D8487867F807A7F7E8183
:1027480083797D7C8286807B787F82817D82807C94
:10275800807D8081878480807B7D7E85827D7C7979
:102768007D818685807C7E847F7E7A767F85848164
:102778007F7D7E8286867F82827E7E807F7D807D51
:102788007B7A787F828082828284867F7977818350
:1027980080817C807F8588827F8182828079817F29
:1027A8007A7D7C7D7C7E847F7F8284817C7C7B7A41
:1027B8007C857E7D8486838382808886847E7B7800
:1027C8007D817C75777E808183837F8385837F7A13
:1027D800787C7A80817E797C8786868787828787DE
:1027E8008279757B7C797A7F8282827E7C7E818306
:1027F8007F7A7A8385807F7C7A797F858283898BCB
:102808008585837C777E7F767C7F80867F7B7B7CDB
:10281800858581787A80807F7E7E7D8183888680A9
:102828007D7B7B7F8788827F7E80817D7E7A7478BE
:1028380081888B87807B767A7D7A77797F87898B89
:102848008A807D79807E7B848282828380807D7B82
:10285800797679868F8583847A79817D76747A8290
:10286800848A8C84797B7F7E7F7D807C8287858348
:102878007A7C7C797D858581807F8080817E7D7A68
:102888007B847F8082837E7E817F857F7F7A7E8046
:102898007F7D797F83898384807E7D7B7C7E828532
:1028A800867F7D7F7F7D7B7D7E7E82858385837E1F
:1028B8007A7D7E77797B83868886807E7E7A7C7C2B
:1028C8007B8585878183837D76747B7C8385828500
:1028D800898980787A787B7D7B79868984887C79F8
:1028E8007E847E79847F8385867F787B797D7F81EE
:1028F8007E80838A887E7D7B7C7F827E7D808380CC
:102908007B82827C8280807F8277707D83868480D0
:1029180081838181787D808083807F818781827EA9
:1029280076787F868A83807A808579776F76828ABF
:102938008C7E7D84847F827E7D8080817A80818088
:1029480084837E7D8584868179777A7B7B7C797F99
:10295800818A877E7B7F8084877F81818180837C59
:102968007B7E7B7C7F81878586807C7D7A78777D7E
:102978007C82818387827F7C7C7D82818485828042
:102988008285827E76777B7F89857E7C7B7F7D7A58
:10299800777B81858684807D7C7C81807E7D7F823B
:1029A8008786808380828384827F8685837E777012
:1029B80076807B7B787D82858273727680838A833A
:1029C8007F868988848482878B8D8C848384817DAB
:1029D8007371717A807E777376797874706E7A8382
:1029E8008F89848584898E8B8888898F82817F7F6F
:1029F80082847F7876828583817777747774726F23
:102A0800726E79747D86838F8D8A8A939695848673
:102A18007A7980807F7D7F7E828086808983797ABB
:102A2800767477756E685C7073878C838D8B9195DF
:102A380099898C7C82817B867B86827F787E828D59
:102A48008B84827A807E786A5F6067617672868F0F
:102A58008F988C8C8F91869480817A7C868079750A
:102A6800777C938C978A8A8783766E686A6E6364AC
:102A780052727395948E8A86999DA086886F867CFB
:102A88007C7571787C87869C8B9587877C7D797728
:102A98006D62665860597D7391938D9A8E9F959853
:102AA800828C717A7B798277757889849887918608
:102AB8008F8B8271646667766058497980A39984A0
:102AC8008985A5A29F7B7E6F8B8676726673819BB4
:102AD8008E96859090917D716C6E756B685A53587F
:102AE80084789A83849AA0A89E9674886E82746F5C
:102AF8006B75899198838A8198918B7476747674B2
:102B0800645D504660877F9E8C90A2AAA5977F6ED1
:102B1800807A8172717280818E8F869192928E8A6C
:102B2800797E756D60594E564D748684A4889E9D35
:102B3800A89394807886737E6A72708282908A8362
:102B4800939E998F876F7B716D6466585C4B797D16
:102B58008299779B9AAF9B9C7E828B7A7E676C6FFB
:102B6800817A8484878F9392878C7F817D73726F3B
:102B780068625A65776E8A788590999F949A869448
:102B880089897D747279797C7A6D7C848989888158
:102B9800828B878980787A707174706F736F7A7B93
:102BA80084848687868B8A8D8588868786868380B7
:102BB8007E7F807F7D827F807F7E7C74776F737954
:102BC800747B767C847D7A7B7F7F87888D8D9293DA
:102BD8008E85828481817E7C788284817E777577F8
:102BE8007B75766C76857A836D73788483828A7F29
:102BF800908F958B8C878C877E7E7C7B7F867B8174
:102C0800797C7979817F7B6E6F607D78737A6C8847
:102C180089967E84898D968A87829188877A777C3F
:102C280083797E87868C81817F83727562605B7A07
:102C3800816B866D8F8A9381909A929A7E81828E1B
:102C480070776C787C857C929D90947E7E7D7E6585
:102C5800715A6153826C668768A1969E84A89B937B
:102C68009574797A7A64756F81898882A19791922F
:102C7800807C8570676D54454F8B54827D84AC9FF2
:102C88009889B6889B7E75797D6B677B758482870A
:102C98008FAA8D9491887D7C60675B4D3B74804BD7
:102CA800907AA3A1A887ADB17E92767C737A5F7380
:102CB8007D767E9086959F8F90907B7E74666A5213
:102CC800433E99536B9189A9A2A687C387898E7CB5
:102CD80072797B60786771828F86A0988998897FDE
:102CE8008269675851356D9146868CA09CAE95A037
:102CF800B7769D8C7A697E616273607C88858CACBE
:102D080090909B827D7968685A4B338A714D969270
:102D18009F96BA91BB9E809F7C6B637D536D646B5D
:102D28007A8A90A9A87C9894817F7860695F4743E4
:102D3800924D5EA290939ABC93C190948F716571E5
:102D4800764D6F6881809085A1928FA887757F7B6B
:102D58006F6E563A4C96427396898DA9B596BE8386
:102D68009C8977687A665379707C728D8FAA929560
:102D7800948586887A696A5C464E86337191878E17
:102D8800A1B39DBC8FA8847B6C7A634F74698079EA
:102D98008D89A68F9B9C82868B7E736D513B448E5A
:102DA8003D6A887F94A9BEA1BB8DA586766A6F6AA5
:102DB8005B7F6B7E74888799929AA08697897D6BD2
:102DC8006F4F4A307D525196819A90BE99B2949A2B
:102DD80090788B757D587E6B70747C898C9695A2E3
:102DE80083988A836B7A5C523B5D8133847E8882C8
:102DF800AB9B9CB199B0828C808965777A5D717242
:102E08007D7A908C9B919595867E7B76574F3B82F9
:102E18003E5789727F98B893B898A99B8D91836D16
:102E280065876066717772878F8F93909F8D8A7C94
:102E3800815A5C366A572D8D78818AB98CABB3A4D8
:102E4800A17E91858465826C63767A7276908B9880
:102E580091A89283797B6556503B7F366C8E73823E
:102E6800A4AF8BB992A28D8C9489716B856378829B
:102E7800746A888F92908B9381857F7B58613573B4
:102E88005F3F95707E8EB983A59F979F859C8382AF
:102E98006A946F6D7E736C7D8C7C95899E89878022
:102EA800825C6547597A2F86787686B19195AD927E
:102EB800A4869D89846D8C7B617A716A748F8092F7
:102EC800899E91848482655E5D408739648B6C7FBE
:102ED8009FA285BC999E8B9392887275835C7B8038
:102EE800707190838F8D978C8C82856D595843872C
:102EF8003367886E85ABA782AF8F9D898F8D83746A
:102F080083885F787A6B728B8593939B96897A8393
:102F1800685D5841883D6C96727F9C9B79AF8C990F
:102F28008A909287777B895B7E7F747B938090956C
:102F3800909188767C676157508A3979896B7EA031
:102F48009A86B08698818B8B82768A8A64887F700D
:102F58007C917E928F919280797E67625946823DFC
:102F6800749671849D9784AB8690868C958E7C87A9
:102F780083618080727F9281958F8A8B7E737E6455
:102F8800604B567F37888B7086A5918AAA889E8663
:102F9800958E83788D7C678A777084867B968989FD
:102FA8008B7A7A7D616A495E7A3C8388758AA78FB5
:102FB80093AA8E958893897E7A8F7D7488776784A3
:102FC8007D778D87898B817B806469487557589D8B
:102FD8007C838C9F869E958D8580978C7E8C8E6F4A
:102FE8007E806C6F8272838D868D847581736B5F32
:102FF80065815B7A8A7881948E878E8E92838E978C
:10300800847C8C7E7083776D777F7D8C8D828D74C8
:103018008279715D757458887C7F85937E8B9188E1
:103028008E858B8D827D8E797183776D82827E8786
:103038008F8686827D776A677B68658875768A83DE
:103048008598928D898688857A7F7E787D837A7641
:10305800847D828A8D8E878381776D6A755E707AAA
:10306800717C878E89988C907F85867D777D7F752A
:103078008A7A7B7E7D808C918E9185817F766E6D3C
:103088006A5B7277798684868E938B8F8280808044
:103098007C807E757D7D7B84817B8E908E8B898301
:1030A80080786F716D657375717B818389928B8F61
:1030B8008A868783818079737F76787E7F83888B01
:1030C8008F928C877F7F736F7A6B687270747C7E47
:1030D800818A8D8E928E8B8C7E7F7D77797C797DAF
:1030E800837A85878788888A88817B75796F6D6EF2
:1030F8006A747D7D7B8D8A928A8884818886807DAA
:10310800817D83817D767A818687888383807C7CB4
:10311800796A727D717C7C79778B8481857F8A8BD3
:10312800898A867E89847F817E797C847C827F817E
:103138007C7A7A787871827E797C7E7784837F84C2
:10314800808784868489888886808183857981833D
:103158007A82807673766C7E797E867C7C828478AF
:103168008F817C80857F82857F817C858385888827
:103178007F888883827C7074746A7C6E7380807A9E
:1031880088877B968B88898580877C767F757C800D
:103198007C7E89819094888582787A77687169685D
:1031A8007A7573868387958E898F958E887F7A7FC7
:1031B800787B7770738385858C8B8985897D766626
:1031C80072766479756C7B82818E94889295918FE2
:1031D8008886857A737472707F7C778C85888887F7
:1031E80078796B7B7B5D7D75737C8C7787998D9700
:1031F800908E878F8388807278726E7A79738B85C8
:10320800898684787D6C7B7A587F6F6F7C957992FC
:103218009B8799948F869179897F737D72727A756D
:10322800708A8384888675806E717A517977687B15
:10323800968396A79098958E858F798578757C70FA
:10324800747178738A818689877B816F67804B75F3
:10325800746983958690AB8E9A98927C8D7C827FD8
:10326800777B716F71826F8F8182828B78776765C8
:10327800834679776D84A5838BB28C9B978D778EE7
:1032880080827E727A6C757C836D908685898A6D62
:10329800776B518743757F6F82A18788BA8D929328
:1032A800947894867C7A687B787A758A7089917E1E
:1032B80082877569823F8A5B5890727091A371BB4F
:1032C8009A8F92978388896F806C7D7B7B748D7FC2
:1032D8007F967983837D68824C73763E8C73728384
:1032E800AC72A4AB8393928D7B956C85777F847A3F
:1032F800757E8B7498847B85866F766D4590406467
:103308008B6C77A69A74BD8F8A8C9B768C827A8315
:1033180072837E6F798C7283967B878F7B71804DE9
:103328005F893185836A7DAE7C90B8819293987E5F
:10333800947285776F83746D81827094907E908D7E
:103348007C6C753D7B6A4992696B8CAA6DB09F8ACB
:103358009A9B8D8690748F6B76796B6E8983789C37
:103368008586908A6E6B614B8E3E6E84687CA28ADD
:103378007AC1849792958092817F806B8379707BE4
:10338800947592977C89807767754275693A9577C5
:10339800748AAC6DA8A98295968F7791718D727A8F
:1033A8008272758F8877A08D82857B6E6C693C7F71
:1033B800524B95717E97A378B1968B96928A7F87A8
:1033C80074906D837A79789A7F879E7E857E7C5902
:1033D8006A3C884A528E687793AB6FB39D958B9BF6
:1033E8008C7B897A88697F807777977F7CA48186B0
:1033F800888462784464762C8171707AB87C96B03F
:1034080089938B9B7E927B91787786706C83867785
:103418009C91839489716A693C7A50458F6F7D913C
:10342800A66CAC978D8F939883957B935C807D6E0B
:103438006E9D837FA38786817661633E8B3E5D9414
:103448007677939E6FAF989B859A8D888581885CE7
:10345800817A78719880869F87877A7A6573377FB3
:1034680056479475737FB278ACA2948E93978080F8
:103478006D91687B82756B938A759C838C82886852
:10348800794159883476817C70B5928CAF8E9B8453
:10349800927F8B6A8A8164807971809577978B8A0D
:1034A8008F7F716B5E3890544F897A788FAF7BA588
:1034B80098A7919190877E728F5F74737F739880BD
:1034C800848C828C7C6F646646994C5B78777A949E
:1034D800A67BAF96AB91988A8E80768C6772758141
:1034E8006E8B7B828F7E8D79776A79387974397D96
:1034F800837F75B28AA0A09E9E8A9689906A8D74F1
:1035080073807A7178867595778485806D77544352
:103518008F416280867197A891AE98A4869985920A
:10352800797C89797B6F7A6D84798C8A7F937E74B4
:103538006870386D723E76868274B399989D979CB0
:10354800909B8588768A7D79776C7B81897E968049
:103558008688776B68563F89515B738B7F89AE8D00
:10356800A192A78BA0897B8E817F6D816C79808CDD
:10357800808B938190737D60693862744F70729507
:1035880074AA919E9EA29589A67B8C7E83637B7983
:103598006C80808A879C838C8078736A5F3F725EB8
:1035A800666A857D80AF8D9C9DAE809D947C847B72
:1035B80076688C70757E868094937B90887E7A730B
:1035C8005152675A5B6B71688FA28E9FAEA097AB02
:1035D8009786928C6F7A7D66727E74798B7A8785EE
:1035E8008275715E576C5E616A787194A1939FAE23
:1035F8009A99A68785907F6D7D76737C7E727F878A
:103608007C8A847D6D78665A736759677F69839C65
:103618009098AFA191A8968C8D826E737E7A757EF4
:1036280079758E867D7B78697473546A6D646A8057
:10363800747D97929AA8A695A3978785826E7585BB
:103648006F777F827A8E8278817B756B7356647010
:10365800615D7A7B719A9B99A5B29298A0888786BA
:10366800756E8576787F7F7880887A81827E6874A7
:103678005F576B625D6D8772919F9AA0B0948CA61C
:103688008D878A806A857D747978797D907E807D42
:103698007F73716C5265645D68857587A59898A37A
:1036A8009C8BAC93838584767B8066797D817F8FC4
:1036B800837D897E77686F556068625F76867999C1
:1036C800989498AC979FA184868975658073758353
:1036D800837B888C7E867C7C76716A5861616067A2
:1036E800877277A19595A7AB8BA1987E87826C7618
:1036F8008F7179867C7B89817A85847E7A75655419
:10370800626B5D667D747AA5998FA7A68299987C6D
:10371800878C7D7A8E707A8079747D81838E84829D
:103728007C796E585B6D59658077739A9B91A09CE4
:103738008995A1838B907E74877A6F6F7276838D5B
:103748008183868689866E5E5C6C645D6E736F8F1E
:10375800A28593A99C8EA5927B908E727B806274C1
:103768007C7579867B84948C85817A7569586B54CD
:10377800527A876F929E84A0A58B96AA8389927DA0
:103788006F817869796D7278918D89868B85818949
:10379800665358746066746C72999D819CA2949C5F
:1037A800B085868D7E747D79627872777B89818811
:1037B800908A83797B6D70606A5D5B777E72839F88
:1037C800879EA5928AA29185927B7676846F7A7578
:1037D8007079888F76858589839175635D63776550
:1037E8006A7478779F8E869897929A9C808D87794D
:1037F800787C7676786E7877838A868B8C837D84DE
:10380800777059716760777A697AA3879B9F9189E6
:10381800A5957A8B7B7D7B816F75747484838C7E90
:1038280088818B8A8C7B656059775E606F7E729A1F
:10383800A0809C9E8F8CA586858577748283727DF7
:1038480071777E8A85838D8A8A808A6E63585F70D5
:103858005F6E787B73A391829E968A91A17A8C8DF4
:1038680082807D7C73766F7C7C88898288928A7955
:10387800856B6C5B6670586B7B7E759F8A86949AA5
:103888008F98A7808F83867A7E767074728171880C
:103898008B828A9288828771645367745C687471BA
:1038A80075A1948E9D90899C9D84967D7B83887D4F
:1038B80076696C80778F887F8998857C896A65535B
:1038C8005C766269807874A189859E988C9A9B7FC2
:1038D800958C807B7A737873757E74838F808997D3
:1038E800807F8973726454755C5C787B6E989A7C6F
:1038F800A29B8895A4838A8B7B807C78706E708469
:103908007A7D9685919A9287897562604D725E5527
:10391800717B6C8FA0769B9F9191A88D8990797E01
:10392800767772746A8485839D8F8D928E7D867971
:10393800625F41696C546A7B6780B18995A1928CFA
:10394800A192858C7B7F7B7D7E807184807E969220
:1039580082918B7C827D605C4D5477566983767545
:103968009D8586A997909C9B859D87827D797F7B85
:103978007A7B867B8F917C8A87767D7F69645B47BB
:10398800756053787D7398A27BA29F939AA7888EBF
:10399800927E8879807C79777E7681927D838A7C15
:1039A8007D7F765D6047657A54707B747FAD8C92BD
:1039B800A79499A29E8C8F82887D7E7F72707B7B74
:1039C8007287847184847B7E846F6A5F4D7F605DBB
:1039D80080806C999F84AC9C9095A48D948D818AED
:1039E8007A857C696E786772887381928686847E10
:1039F800676F4E677C52728B7677A6818BA79994F6
:103A08009DA0939A818A7470746D67737B6D8785A6
:103A1800818F8A7E88867973654D7B6F4F797A6C42
:103A28008DA77C9DA6979A9B9185877889727B7DC7
:103A3800686E7A79748E7F85958F8B86866C7050C8
:103A4800567D5B647F7B70A391809E8E92909F9140
:103A580093808581727F706A6F8174888D848D8E62
:103A68008687847D766B536A7D4E6B796A739F89EE
:103A78008DA79296909A8A8D7A837B7283717677D6
:103A88008073898A82958D8D8B8E7F6F6443666F74
:103A9800526E7D6E7CA483909B9195969A8C8D7BBB
:103AA8008A76717E73777F80798B8E8A928C8282F8
:103AB800827C6C63446D734E7475647CA88B97A08C
:103AC8009292929B85867A8C7C7A837876788473B6
:103AD80088878792938F84827369604263714F737A
:103AE80087737B9E828B999390959D95907F8F7B12
:103AF80078857B737C837B8D8D84858885827B7BB1
:103B08007063505A774B5D786E719E9588A3949B2D
:103B180092A08F91868F8E7C8E7B78707E697C8A4E
:103B2800848B8B8E838576715C4E49765D557D726C
:103B3800708C9C7BA09B969EA7A29C9A858A727F7C
:103B48007C6F6C75777491828488898583827564AB
:103B58005B4F5B744F61716D7BA09592ADA19FA087
:103B6800A9989B8C817C7181776F6576707E938034
:103B780082878B848A7F695A5447716B4E71787437
:103B88008BA68DA3ADA3A4A59E96927B8072757C0F
:103B98006D6771756E90847D8C8E838888776E5E74
:103BA8004D4B7B585E7B79799BA591ABA2A29AA0DD
:103BB8009A96857F7B687B7367666F707D90858A30
:103BC800898C8B8B7C78675C4F5E76516C7E747ABF
:103BD800A89995AD9F9D9AA2938D797F7A677D72FA
:103BE800686A7D717E93828A909485937E70615312
:103BF80044696B4E75797C89AC8E9BA09F9C9FA372
:103C08008E897B886B6C75666873817E97958F92B9
:103C180091867D7E7670595143725F577775789497
:103C2800AE94ACA09B979F94887F747E6D7F7F72C3
:103C3800727F7F7F9A87898D9081807D6A62544CDC
:103C4800507956657F7B7FA2A38EA4979D94A192FD
:103C58008983827D7087767177857B898D79888164
:103C6800837C82756D62594A70734C7D7F778BA710
:103C7800899CA3969998978F937D8B7D8184756491
:103C8800717D718C807B808C868184766C5F5354C7
:103C98008159618573789B9B89A697A19E9F9D9367
:103CA8008184876C807568697B727B8C7B84878C48
:103CB80085847D71625C4D717253747A788FA98D99
:103CC8009EA09C9C9CA1898B7C8771747D6C696F7C
:103CD80079738C84848687898381786A6152688342
:103CE800556B81797BA2948FA58F9A969C8D8C7940
:103CF8007F7F6F887672717E6C808F7786878A87E0
:103D08008A82796858548064597D757393A183A019
:103D1800938F8D9C998F857F8C747F796E6A76736B
:103D2800798F84858F8E8B878A7F635B4C776B57FF
:103D380072777380A1829695989293A28E8F7E8ACD
:103D4800747A7E716E737E788D8E888B908A878365
:103D58007C66644C61764D6B746E73A28990A693F1
:103D68009A94A58D8F7F837D74867673707E7A8909
:103D780091848C928F8681786D61524B75575678F5
:103D88007573939C84A3959C94979A8E8683877168
:103D9800838276787C7D8092858381868D898476FE
:103DA800655D4F5D764F627B75789E8C849F949697
:103DB80093A29597898B897C8A7B6F6D786F8392A4
:103DC8008186898A838C807064594B736E47676DCE
:103DD8006B81A0889C9D9EA4A1A2978F7D8A7274F6
:103DE80084776E7C7B6D8F88828F8E8B8B8D776CC2
:103DF800574F4072614A7376758BAD92A09A9F991E
:103E0800A0A09089828B707C7F736E787D7A8E8576
:103E180084868A82868573665A4D497D545A7C7990
:103E2800749CA58CAA9BA198A49690848287708480
:103E38007E6B6D7C717B918085898982877C7067B8
:103E4800554A5A82526181797BA49C90A6989E9883
:103E5800A5969083827D7487766A707A6E7C8C7C56
:103E680088878A87877F77655948657C4E717E7118
:103E78007BA79098A2939F9EA7969277857A747A4B
:103E88006E696E7B6F8C8B878F8B8A84877C775E5D
:103E98005D496C6D4B76767588AB8F9EA2999D991E
:103EA8009E8A866F8077787F757778827891878603
:103EB8008D8B89848B756B5955417C6C4F787878DC
:103EC80092A9879C8D91929B988D887F907A838305
:103ED80078727F7D778D87848789877F80746C600F
:103EE80054557F5D527A70739399869D989998A1DD
:103EF800A0938A878C788589746E7774778E7D7D98
:103F0800878B8689847364574D5F764965746F7DA6
:103F1800A0908EA79AA497A49A998C918171897A76
:103F28007069756F82887D888289868B7C6F5C5604
:103F3800486E6E4A70727387A788A0A69CA2A1A338
:103F48009696828E75798576696D7470868284807E
:103F5800868A8B8576615A4B5B7E5062777579A22B
:103F6800938FA796A79DA29498838A826E857A6F6D
:103F78006B796F7E888087878C89817E6F625350CA
:103F880073535875767497A08BA3989B98A69999A4
:103F98008C848A77837A7067716F788A8484898C35
:103FA8008F847F6F5D574E7C5D567878708DA07FCB
:103FB8009E969C9CA8A3998F858D7082726D697658
:103FC800717D8C8087878A8A877D755E57547B5C74
:103FD80051746C6F8CA084A19FA59EA4A293888223
:103FE800876A7E7470717B777C8C828B898A8989D9
:103FF800827061524D7B5852766E7296A185A69951
:104008009E979D988E867D856D84797876807F824F
:104018008F888983867E7E8169614E567E5B5C7758
:1040280076729C99869C9799949D8C8B7F89857ACA
:104038008E837C7E867781857F80827D7A7C7F7087
:10404800694D5C7F566B7870709F908B9B85938FC2
:10405800A1939484958983987B74717C6C8183790E
:104068007D868C808380756350618155637B696E22
:10407800988A859D8F9C98A0999D85948B728D7B3D
:104088007271766684887B86818A878A806F634DA1
:1040980061795360786C719F9089A0969B97A798D7
:1040A80092859486748674756F766A7A8B83868512
:1040B80088858484706151527A615A767A6E99A49F
:1040C8008499969C96A89A8D85868C768170746D55
:1040D8007C7776858186878E80848172665C4B7555
:1040E8006758767D7191A6869F949594A193908642
:1040F80082917588796F68787870887C828A908ACE
:104108008984716C624B7573526E7C7283A484923D
:1041180096979D9F9C8F8C7C8F79817E6A6A6F7839
:1041280072878283898F8F898C8272634E5D735701
:104138005D747577A0958A989A9E99A58D908286C8
:104148007F78806B72687773818B828F959A8A8B60
:10415800846F68574A715A4F70777293A684A29EEB
:104168009D9CA6918B8978856B78746E647D857F1C
:1041780095848E959A8A8977706B5745606E496FDA
:10418800797285AD8F94A5949E999985887986765C
:1041980071827678778780968B838D88887F7B6E0F
:1041A800706052537D5F597C787096A481A199996B
:1041B800969F8A7F887B857A887E807D817F7D8AAD
:1041C800757D868D80867F7370664A656C466F7FC5
:1041D8007186AC82949B9299989385978393827CFD
:1041E800867A76777E708A7F778A8D8789847276D9
:1041F8006B535A72505E746E769E9291A293A09BF6
:10420800A4848D878B8A7D8371786F7B757F887A8C
:10421800849090888A796C6E5F496F5E4B727D726C
:1042280091A37FA0A49F94A48F80927C877C7F78A1
:104238007F74787D718C817E878E7F8A826E776BA2
:104248004F67784565816D76A5888CA996989E9F5D
:1042580082938183817D80747B76826F8382718370
:104268008C8785907C76755C596F534C73746F9D01
:104278009787A7A3969CA4868D8F81887F80747466
:1042880073757873857782948C8A888570745E5686
:104298006C5F586179628B9C85A0A19F96B39186CB
:1042A800977C8173816D777574887B8F8188858A07
:1042B8008B80836B6B573B7F69716F7E777FBD7B8C
:1042C80098839F8EA6966F8B768A6A7868708280AC
:1042D8009184A29AA1907F7A74856D644A393A963E
:1042E800717C727988AABE709686AA979E6D61873E
:1042F8007A7B5E6F6C909C888D91AE9A9773747C74
:104308008279615046305F9A608E729794BD906F43
:10431800988EAB858A60888C786A617F7F9E857D60
:1043280097A5A5858A6A79877A6360563E2E868224
:104338007B94709B9BB571868AA0A086856F977CBD
:10434800705D687C84967A91A0A89C8979728B7438
:10435800705E594B34389F7C918E7AA3A9A76695D5
:1043680085AA9681777C8F6C695677838E9084A511
:10437800A7A88879687F806D625F5F4D2C52AB7803
:10438800AD7B92A1B38B66917FAD7D886E88857079
:10439800665D8C829586859EA7A17A7A68877C6EF1
:1043A8006267594E2573B47FAE6B9A9CB16A6B866F
:1043B8008CB17C896F957A715A5D8D8192848E9FBC
:1043C800B39A6F7F718C7B75637355411E84A98680
:1043D800A85AA4A3B25C758197AC77836D98776D62
:1043E8004D698E85978093A9BA937B80718B706D88
:1043F800627448401893AC8CA058AEA3B6537A7F29
:104408009DA9707A6E9471704E719793988598AB48
:10441800B588747771836C6B6770483F20ADAA9B31
:104428009660AF9BA4427473A5A175857E9E727039
:1044380056779592937898AEB47C74746E82716E48
:104448006D744F3728BD939D7769ADA195418B76E3
:10445800B5947F81899C736C4D83979286799AACC9
:10446800AC7B7B707B866E606F66462542CB8AAAE2
:10447800667BAAA4814C8A7DB987817D94997161F4
:10448800538C9490887FA2AFA56F766E7F81696305
:10449800765D45176CC081B35692A9AA5B5E8E877C
:1044A800C180897B9E8C755C54928A907E88A3B665
:1044B800976A7A6C80706561795B40189DAA8D9DBA
:1044C80051ACA3A3537C7D9EB078867F997F754FAE
:1044D8006C9B8B8C7B8DA5AD816C767587716467C1
:1044E8007252332AC29B9E8A69B5A193427E76AFE7
:1044F8009F7B8786A37D6F4C779284857197AEAD3D
:1045080077717378856B597271552957CC84AA6372
:1045180082ABA5794E8776BE8C85819596716E5350
:104528008C8F826E76A1AAA36D78768C7D665E7379
:10453800694B228ABE81A95598A6A1565C8685BA80
:10454800818A859F8C786456997F776E8A9EB09908
:1045580069867C8A7568637A5C3829B6A2948E531A
:10456800A89D8F3E7D779CB2868D8FB07A74576AEE
:104578008D736E6898A6BE8B768986837268676E1F
:104588004C2050C2819B6676AEA874518D76B09D42
:104598008181A19C7374557782776B77A3AEBE86B1
:1045A8008A918A75665D5A5338138BB9819A679FC9
:1045B800ABA753698A84A7878888B4806A696485A9
:1045C8007D785D92AFBAA6828C877F635F59584E1B
:1045D800213AC2958F8987B2AE89458A828D8B7DB3
:1045E8007F9DA66C736A808A7D656FA1B0B3938046
:1045F8008C816F5A5657493E20B0AD8F9A78BAA22F
:10460800A24872887490738584B5876F7D78937E8D
:104618007365879FA19D7C898C836553664C4E1377
:1046280087B680AF78B09CAA6A59916D8E728381E3
:10463800A5A3677F73818C7A65699B9EA68B8A8FF9
:104648008882586744531679A36AAC77AE9CB97CC4
:1046580069976A8A6E7978909E73847B868F847A4C
:104668006C8A8D988B878A8B8C627053532F7E89C6
:1046780058A969A68AB17D77A4719C7889758B81C0
:10468800718072758588818092848E918E88888CDD
:104698007B7E6F695556794E7A79538771A480A9C4
:1046A800938FA688A07D97748178787F71737583BE
:1046B8008385818891909389807A69614C763F7B64
:1046C800755A936E9F7BA8889DA492A7819B83832C
:1046D8006E7368756E7077858B85999196938F79CF
:1046E8007E67684674446B794494679E82AB92995E
:1046F800B393AF7F9484826B6F6065746F7D85948C
:10470800879B929494907C7C6B6147664E4B8A4061
:104718008E7A9399A2B095BA95A78385837A6D69A5
:1047280063627C77767C9688979B908E907D77687D
:104738005E4A556A3A90567D9487AB91B691A89A8D
:104748009D8C7D8374786F66626F7E7C8090949177
:10475800948D848B857A736259477E43757953A605
:104768007AA68DAB969EA9919B78817B7B7C6B67A3
:1047780067737F74868E8C959683878E7C7E696836
:104788004B6A68459144928487A698AF8FAE8FA3F1
:104798008B7E7B6A7675696B6C787C808A8B8F944C
:1047A8008F89958B85726150447F327E6A5FA980BC
:1047B800B48FB892A39A8C977B847173756A686A70
:1047C8006E7C818990969D92888889797E5E593E13
:1047D8006E614F993EA1899BAE9AA890B1889E8040
:1047E800797B667772666B71788289898E9A958DE6
:1047F800868681886B5A4A4D7C46955171A080BB4C
:1048080091AB91A696948B6F8264717A676B6D7980
:10481800878E8B8F919B9A8987808378604D337EB2
:10482800437F764EAC80B79EA4979A9B8A8E6F7B07
:104838006F677C6C736C70898295909499A68E8949
:10484800877780605828774E67913AAB82A9A49DF4
:104858009996A485997272746C6D6F74736E89845D
:10486800909F8E96A092888D7384665C31546340C5
:10487800A03B929897C398A28CAA7E967A697D6D80
:1048880076787276747F8C859C949299988A8471D4
:104898007B685E3F41773C9C5871A186BE98A18F8A
:1048A8009F929486697A7378816D79757E8E8897E0
:1048B8009391929785827373715E532A7F3E867AAD
:1048C80054A87BBDA0A5909E9992926C7470747D3B
:1048D80071727B7A8D898E97909B95877E7C69779C
:1048E8005C5B29665A56A43DAF84A9BC9D9D92A3E2
:1048F800859D6A7177727B776D767A898985988FBD
:104908009A95907F806F7461533949753FA8569383
:10491800A48ECD8FA684A183967C5F816B7C7870F2
:10492800737884948D9893979B8D7D79726B63537C
:1049380049388C4796776FB478C6959C8E988F8B3C
:10494800915E79756D8071787682928B91928B9950
:10495800907B7B7C6E7856592E71685D9F4AB18337
:10496800AAB68D99919E80A07169847180737175C2
:10497800788C8B908A92989589797E697C56523882
:104988004F8B46A75491A08EC38D9B88A285998989
:1049980061797677786F7B708C9591918F8A9391F6
:1049A8007B7C7472704D512A85597C8A51C083BFB3
:1049B800A094889590859F697482737A7174717ACE
:1049C8008D8F979A9497918378746C725B4E3F544D
:1049D800934BA45389A18ABD859B89A4869C816831
:1049E8007E727C796E7B79908E8D8F9690928B7D7E
:1049F800747D6F6F4E4D33796D619A49B58CA9AA54
:104A0800918C93A1839D766E847D816F76737D935F
:104A180083888C9C8A928377797D6F6648463C8F21
:104A280058827760B97FC0979088A8938E9B6579E4
:104A38008880786E756D8D88848693988D8F797C43
:104A48007B7D6C634C3E48914A916877AD8CC390EE
:104A58009B88A68E978B637A80747A746E7792801F
:104A68008A8A8E8D93877E857A7B6C5E4C434D89CE
:104A78004E9D608EA793BE8A997FA6829586678190
:104A8800867A796D73798D8088888F908C847F7809
:104A98007D7D6F655741588D4F9C5A919896B78781
:104AA800947EAD849A8467888C8677736B749171D1
:104AB800807E8B8C93877E7F827D7667533F678469
:104AC80054964E908DA2AC899887B38FA17C70853F
:104AD800897F6A706A7987717B8192899788858DC9
:104AE800887E75585141716B5C844DA385B39F8F47
:104AF8009994B3919F737983877262706A7E877481
:104B08007A898E8D9884868C868475584E407B551C
:104B18006A685F9C88C08EA496A6A98F9470857ECB
:104B28008169666E69807A76808E8A9899898A8D7D
:104B3800807F6C553F58754D7C51818CA1AC91B1EB
:104B48008EB798998279847078616C6F7984747D56
:104B58008A8C8D9492858F88797460504A77526CCC
:104B68006863928DAF8AAD969EA690957A907B7772
:104B78007066726E7E76708886929092868D8C7D35
:104B8800786658527A5E7368618285A284A797A076
:104B9800A298947892817874706A7481746F828212
:104BA8008A918C7F888D81776D5B65735D74617682
:104BB8007B978A82A58F9F8E9B7F9099847F707C3C
:104BC80067827768747990869479828C8577625B3E
:104BD800718B63736B8683917D729A9696818F80B1
:104BE8008C978177818A7C78797082827881898CA8
:104BF8008380726D70587D72697C84947D9E8387F2
:104C080091827E8591788184808D867B7584807E73
:104C18007D7A8B888D7F7D7E71695F5D7C6C6D7B15
:104C28008C938E9386A091847A848A838174788306
:104C38008178777E85898782828E92807A7069668C
:104C48005C6B67657A81918F98979C95908E7F832E
:104C5800737E817B7674777C807B7B8F8A92988544
:104C680082827C676553636E6274828C85939A979F
:104C78009C96928D8C7B7B776E78737676767D8327
:104C88008B828B938C96817A717064616D586C7E7F
:104C9800807E9697919E9892948B7D857D71747095
:104CA8007078767C767F898D93828D8A8B81716B03
:104CB8005C7B64657A747E878E8B9C9090958B87DD
:104CC80089807C7F78756D6F7F79797F80898890FE
:104CD800838883777672785F7979727A7F85869010
:104CE80085958D878B9180818B787C7D7C6F7278A0
:104CF8007F8381838983837D77717E836A797B77DC
:104D0800827B7D7D81898D86888E888687877F8452
:104D18007D807E807E7E7C7484807D7A7B707C80C2
:104D28006D7A837C7D857F84888484788083808580
:104D3800858C7E8584858D7E867C828681806E7159
:104D48006B737C6B75817F868987898C8D847E8067
:104D58007B7F787A7F777F858D86858882918C881E
:104D68007C6B6C6D7F64667E76808A8E8488909377
:104D780084878B7F7E797E7276787A7D7B88868938
:104D8800908B857478727F72607D757E858C7E8746
:104D9800938F8E83838185808081787D817A7A7DE7
:104DA8008078897D8377736F7A835C807D7A898C3C
:104DB800858A978F96837B827F7A837D7080847BB8
:104DC800808687898A817975696A5F7B626187795C
:104DD8008A929B8A9D96948E82877D7C787E707954
:104DE800767B7E7E8C8F8A898682767352667B423A
:104DF80075787085969393A796A48E8B8D85797A0E
:104E08007C687B7D7A7D8887818E7D837C6A6B490F
:104E1800885C598C6583849B849C98989E8496852D
:104E2800847589756E85797C888B87898D7881648E
:104E38006C5751923B7386768B94A080AB919F8C74
:104E480085877C827488667C8481898D8D898A7F38
:104E58007A78656D3E637D34927680899F9B91B5A3
:104E68008BAF838E897C6C777955857E7B86978618
:104E78009293837D7C675E37697233996E7A8BAAC9
:104E8800959CB88BB3849789846E767A56856F79AA
:104E98007D8F818F9085897B7069425889207F76C4
:104EA8007189A7A28DC492B2889990817670865430
:104EB80087796C7B8D8486997D8C76706755379160
:104EC800365A98688D8DB57FBF9FA29A89A0817B3D
:104ED8006A8B5D6F86667C8D95809E7E8E79716FFC
:104EE8005C34646B1F9E70858AB49AA5BC8AAA7DBF
:104EF8009F8B7E717F7C5388746D86907F8D9A8896
:104F080092707E5B4E2A8E2F4B9E5A8E8BC086C225
:104F1800A2A39F85A581786D8E616890697A839236
:104F28007B9A928A8374815446429019717F618872
:104F380099B67EC68EB49396A37C7E788B51748284
:104F480065808C9080A18B8E7A836D574752850E31
:104F58008B7076859C9E80C78EAE7FA59785828351
:104F6800865A8177637F8C897FA084907A8367567D
:104F780048597F149B6E7783A79A8ABF85A380A719
:104F88008C7C79828466897D73898A887C9A828FF1
:104F9800757D675B3C6E6422A2628581B7919BB385
:104FA80084A57F9D7D7B78858462877B768C8A8FBC
:104FB80084A2838A7186635D2F62741FA6648386C8
:104FC800B99696BA86AE7D987C7B7179825A847D33
:104FD80074848F9286A5899A7384674E3C5585128E
:104FE80093737E92AAA487C489AD7C95917B7471D2
:104FF800815A7973737D829B849A9099797E785DC2
:105008004C4B911479847A859BB381C78CA6859083
:105018009476776F8F646D7A67817A987E9690948C
:10502800826F825955379F27729A70908EBE7CBEC8
:105038008B9D9182927A886C8767657F7288708F62
:105048008698868E81657F5B4E38A73071977C92F3
:105058009AC27BBE849E918B897C815F836D7077B9
:10506800738A789B8D947A828366795C50389D37F1
:105078006896809198BB7FBF99999685867F8A5F4D
:1050880082746A756F8E7B94859B8092846C625D56
:105098003D4998247C89917CA7B681BF8C9D829FCD
:1050A80087848A5E836E79617F817F948AA17B9BE6
:1050B800727861602E5F762A89879573BB9F94A862
:1050C8008B9989A4748D886F7E78735C8A84878EA7
:1050D8009A93888370755A4F2B8A515C828F8B7D87
:1050E800BD82A38E998D9B896F9A7C7F6D7E717529
:1050F80090898F86A0838E77706B5A315F8643754F
:10510800869779AB938C9E8D8D8B9D718D8A7C6DE6
:105118006F776C8B838C91A28A8B8F7671614C35FB
:105128008F5B5B7F948788A9819C9393789B8B7511
:105138008B7E7D67806675858190969C7C93897946
:105148006A61356F805B6D85A078AB898E9B8F8196
:10515800859F7784797D7374736A7F828F899D8137
:105168008C85797564504B8D68697A9E899AA1857A
:105178009A9A8E769E7F7C7D7474727661787A9125
:105188008C968B858E767661633179796080969B73
:1051980089B387969F9B828D907A897772647265AE
:1051A8006F81878A8F927E917E7860663A54846494
:1051B80075819C7DB3A08FA49F9587A17987856D04
:1051C800676B73687B7C848C978784827A67665464
:1051D800337C75706E978498B58A919AA889A68849
:1051E800838E7C6E6975657278808D979479807FDF
:1051F8007564613A4D786F6B809588B49F8D91AADC
:1052080095909A7E84908367776E69788282889673
:105218008187877E716254356C6C6C70858391B020
:105228009197979F8DA38F838880776D7A71747F0C
:105238008988888B7D86827A696C484D7B676B7517
:105248008271A89C8B9699919CA3848B8485727794
:10525800706F74839188918A86857D7064614162DC
:10526800766C7188757EA68C8C919889A5938783B6
:10527800897E7A7B6D71748B88918E8A888E817114
:1052880071563A686E627288778CAD8E8A96938A68
:105298009E9188848178736D706D808C8E92918BCD
:1052A8008C8F7E756D4D3F716D6277806996AC917C
:1052B800929F9297A88F82777A6774716B65768FC1
:1052C8009098948C918C837162454779716C778240
:1052D8006D9DA489939C9797AC8B837F786B6D6841
:1052E80065697E8E95908A8E8A8F836F6346467233
:1052F80070697D86749EA89796A19090A38C8575F9
:105308007A6C756C6E68798A8E998C8C85827E74BD
:10531800634F3F6B746C7F85709BAF9D9DA4969186
:10532800A288806C77696B747674818F8D92908275
:105338008185747164493A6C73727B887794B69BE3
:105348009E9E998EA3957F757666687877687D8B23
:105358008B9F93868285746F6651385D72747988E5
:105368007786B09C9E9A9A89ACA0907C7A6F657C6F
:10537800666A6B89849996868D8881746E563E48D4
:1053880071786F837C719EA1979EA28DA1A7938A45
:105398007C77686E6E706982838D95938B8781792F
:1053A8007F6A50315F717176856E80AD98999F994B
:1053B80092AE9E917C766B6B757368718689A19AA3
:1053C800937F8A7A7A6C593F407A73757F7E6599A4
:1053D800A38B9F9C8E9AAA908A7A77656E7776734C
:1053E8007C8D90A0988C807F7A78695935517A792C
:1053F8007B81776EA798949A958795A58A89727309
:10540800697C80726E7D8C96A294848289787C6C8B
:10541800543255777378837E72ACA1929692879BAB
:105428009E827E7178747B7A726E7E8B949D95884D
:10543800848A7A8269593A47797D757E856BAAA4F0
:105448009191988494A584807071667976736B7F46
:105458008D94A0998D84917F7D7C614B3B697A778F
:1054680077826F86B0959B979084A38B82766C6ABF
:105478006F756E7172848FA49F958B93868D8962E8
:1054880058443F787E687488709CAA8D9594899258
:10549800A67F846F6E6477726F6B758F93B1A08DE2
:1054A8009093848B81695A413E79797075796AA1A4
:1054B800AC8895988A92A983766D7266726D796ABE
:1054C8007C938FA1A1998A9B8F897F755A493664ED
:1054D800716376827384B590989A948CA3917B7348
:1054E800696F6B716A726F91989E9A9C959F988765
:1054F8008672634F3540756767798474AAA0919D59
:105508009D9397A278876C706374696D707E96948A
:10551800AA9A9897A589847966554D2E5076636C1A
:10552800837D7EBB9593A29F8FA49A7B7C6E6D64CE
:10553800746671728B909CA49A949A9782846F6B0C
:1055480053462161756976857A80C194999AA28DAE
:10555800A99E7A766D6F647A6371778F8F9BA29616
:105568008E91907D856E68564A255F7C6A7687762F
:105578007FC09C9A99A18BB19F7F786F7465775C87
:1055880070679089959D989689947788766A52482D
:105598002D60876A72857684C09D989AA294ADA47E
:1055A80083716771646D606B668D9295979A95901B
:1055B800907A8473705950235E7F6B78897F7FC996
:1055C8009E9A9CA188AAA07A7866736272586E71B6
:1055D8008993929795969189758277705A432C731F
:1055E8007F72808D738DC695999B9B84AC927578DC
:1055F800696E6D745D6B74878C918C8F969F8D7EB0
:105608007D7A6E5F403376797882906A99B88E9900
:105618009F8C89AF8E7D737763746B65666F8B889B
:105628009C8E948EA58B85807167593B51866C74CE
:10563800858271AFA3889BA1879BA97D7C6C6E6CCA
:1056480075616E667B95909390928B9F89827F6639
:105658005E4B3F717C6D74907297B08E909B9A866A
:10566800AC857C737568776F6573718C90998A9235
:10567800869B8C89807862553E4D826C71818570DD
:10568800AFA48E9B96889FA37B7B7670717B6F6A95
:1056980070878497918E859092808A7C6A5448445A
:1056A8007973697789729AB28C969D8C89B28A7D52
:1056B80074776A7D7969707C948B998980849486E3
:1056C800797F715E4D4776766776877094AF85935C
:1056D800A09688A88B7E7B7B70787A766F78908B83
:1056E800908D87789087807D7260514C6E7B686F53
:1056F800896C87AD8D879C9A84AC8B877F857979F7
:10570800787973698D8791898D7D91857D7E6C60AF
:1057180053476A7C6A6F857981AB8F8F97968CAD7A
:105728009D8182827381786C6C6C858C948D8F7D61
:10573800908B7B736D57494A6D806970877589B105
:105748008D88A29E8EB097887F7C737376766E66FE
:10575800898F93918F76878C77786D52504B6B7DBC
:105768006D6D858384B3988BA1A290A7937B7E846B
:105778006F7A7767767387889286908082827A714B
:10578800746648475D837376807984AEA38F929D53
:105798008EA6A1847B7B81757D726E66838B8F89D3
:1057A800887E81847F7470705D52508173767881B1
:1057B800719AAA8E97959295AD9184797B72827130
:1057C800746573848A948B827D8D7E857673596225
:1057D8004A6A7D6D7582787EA594969C9A8BA5976A
:1057E8008D797E71767A766F6786838C92977B90B7
:1057F800877F80806751534776766F778372939E51
:1058080095A19D9192A38C937777717774776B6B41
:105818008986939199818F88807C7962523F567AE4
:105828007467718172AA9B97919E95A2A68C8971C3
:105838007873776F77657A87908F938E8B9C89853D
:1058480072765A58384B76686E728079A89D979C04
:105858009D9A9A9F8C897A776D7470736B80819208
:10586800959492909584896F755C533140716E6EF2
:10587800807A7EA7A79992A18DA89590847C7E694D
:10588800776C7C6889838C9B9A938E957C896F74DE
:1058980059573241666C70768570AEA5A194A29274
:1058A8009EA98D8A7B8269736A776E7F8A87959AAB
:1058B8009791947E8478705953353564636A7D88EE
:1058C80073A5AE9F9DA2989BAD9486767A69726BFC
:1058D8007A6F7D888C99969786977A89756F5D50CF
:1058E8004233626465798F7B9EAEA79EA79897A87E
:1058F800928C77836B726C7574748583959095829E
:1059080095837F79736451443062686973987B9991
:10591800B1A5A3A4A08CAE8F94757E6B6E6F7077C3
:1059280069877B988E98839288807D6E614F463711
:105938006C6A6B708E7C9FB0A2A5A5A291AB8D8A74
:10594800747A6B716E727075877A91919385957F71
:10595800847A755F5A3F3E6C6872748C72ACA8A4E6
:10596800A3A8A094A8898D6D75687371706D7880EF
:1059780085938F9288967B8C7872584A3854775FD3
:10598800787D7F7EB4A5A0A9A29BA79F897B746D13
:105998006B6B6C6C698D81938D9680978C83847109
:1059A800654D453F78666A788576A5A39DA7A99D2C
:1059B8009AAC89886C74626E6C6D6B7C8F8E998FD3
:1059C800868D9182817A645946426D6B67768876B6
:1059D800A0A5929AA99FA0AA8B89736E656D65731D
:1059E80067808D9397988E83957D8175714D41520F
:1059F800706D657E7882A6A48E9F9891A79E8680FA
:105A08007D6F6D6F6A706E7E8F9B92978D888F7F8A
:105A18007D6E614446637A727483718DAC9F8896FB
:105A28008C8FA39B8477806E7F746F67718C90983E
:105A38008B938392857B705F52426F79736888720B
:105A480087A38D87939B82A48F8B7B8B74777D75BF
:105A5800806F88809C8B8C7A8A847B7E5E524679A4
:105A68007D736D816985A79383939085A8928575C9
:105A780087728980746B7C93888C81897592737A1C
:105A8800706B435C847A787B796AA494887E998762
:105A9800A39F8B7B7F837687737C718F8298838D9E
:105AA8007A7A7D737258503E8D847A798E7498A470
:105AB8007E7C8A8F8DA78E8A778777807D816D859A
:105AC80094908D84817C83736A4D513D768176787C
